{"abi":[{"inputs":[{"internalType":"uint256","name":"_restricted_age","type":"uint256"}],"stateMutability":"nonpayable","type":"constructor","name":"constructor"},{"anonymous":false,"inputs":[{"indexed":false,"internalType":"string","name":"message","type":"string"}],"name":"AccessApproved","type":"event"},{"anonymous":false,"inputs":[{"indexed":false,"internalType":"string","name":"message","type":"string"}],"name":"AccessDenied","type":"event"},{"inputs":[{"internalType":"address","name":"","type":"address"}],"name":"authorities","outputs":[{"internalType":"bool","name":"","type":"bool"}],"stateMutability":"view","type":"function"},{"inputs":[{"internalType":"uint256","name":"sub_age","type":"uint256"},{"internalType":"uint256","name":"obj_age","type":"uint256"}],"name":"checkPolicy","outputs":[{"internalType":"bool","name":"","type":"bool"}],"stateMutability":"nonpayable","type":"function"},{"inputs":[{"internalType":"enum Policy6.PolicyState","name":"_policyState","type":"uint8"}],"name":"setPolicyState","outputs":[],"stateMutability":"nonpayable","type":"function"}],"bytecode":"6080604052348015600f57600080fd5b50604051610412380380610412833981016040819052602c916059565b6001805460ff19908116825560039290925533600090815260208190526040902080549092161790556071565b600060208284031215606a57600080fd5b5051919050565b610392806100806000396000f3fe608060405234801561001057600080fd5b50600436106100415760003560e01c80633bd31ccd1461004657806391223d691461005b578063f79a4fc614610092575b600080fd5b6100596100543660046102b2565b6100a5565b005b61007e6100693660046102da565b60006020819052908152604090205460ff1681565b604051901515815260200160405180910390f35b61007e6100a0366004610303565b610133565b3360009081526020819052604090205460ff16151560011461010e5760405162461bcd60e51b815260206004820152601b60248201527f53656e646572206973206e6f7420616e20617574686f726974792e000000000060448201526064015b60405180910390fd5b6001805482919060ff191681838181111561012b5761012b610325565b021790555050565b6000806001805460ff169081111561014d5761014d610325565b146101925760405162461bcd60e51b8152602060048201526015602482015274506f6c69637936206973206e6f742041637469766560581b6044820152606401610105565b426002819055600354906101a790859061033b565b101580156101c45750600354826002546101c1919061033b565b10155b1561024d577f50e8d46dcb719ffeae31cdb40141820a1744374032e7a478588d9300a568fbae60405161023d906020808252602c908201527f5375626a65637427732026204f626a656374277320616765207265737472696360408201526b74696f6e207061737365642160a01b606082015260800190565b60405180910390a15060016102ac565b7ffa521b2cccdb4e77c7c910f706a01f10d54ad95a00ae5eca7241972e5b3d24f36040516102a090602080825260119082015270416765207265737472696374696f6e212160781b604082015260600190565b60405180910390a15060005b92915050565b6000602082840312156102c457600080fd5b8135600281106102d357600080fd5b9392505050565b6000602082840312156102ec57600080fd5b81356001600160a01b03811681146102d357600080fd5b6000806040838503121561031657600080fd5b50508035926020909101359150565b634e487b7160e01b600052602160045260246000fd5b818103818111156102ac57634e487b7160e01b600052601160045260246000fdfea264697066735822122007695915661d4d08ea58b2156a4b34e711a17253f8efcd9098aef5c4eeca5fe664736f6c634300081a0033","bytecodeSha1":"158e969b388784323ea4497ba43ea522ec1ebbf9","compiler":{"evm_version":"istanbul","optimizer":{"enabled":true,"runs":200},"version":"0.8.26+commit.8a97fa7a"},"contractName":"Policy6","language":"Solidity","natspec":{"kind":"dev","methods":{},"version":1},"opcodes":"PUSH1 0x80 PUSH1 0x40 MSTORE CALLVALUE DUP1 ISZERO PUSH2 0x10 JUMPI PUSH1 0x0 DUP1 REVERT JUMPDEST POP PUSH1 0x4 CALLDATASIZE LT PUSH2 0x41 JUMPI PUSH1 0x0 CALLDATALOAD PUSH1 0xE0 SHR DUP1 PUSH4 0x3BD31CCD EQ PUSH2 0x46 JUMPI DUP1 PUSH4 0x91223D69 EQ PUSH2 0x5B JUMPI DUP1 PUSH4 0xF79A4FC6 EQ PUSH2 0x92 JUMPI JUMPDEST PUSH1 0x0 DUP1 REVERT JUMPDEST PUSH2 0x59 PUSH2 0x54 CALLDATASIZE PUSH1 0x4 PUSH2 0x2B2 JUMP JUMPDEST PUSH2 0xA5 JUMP JUMPDEST STOP JUMPDEST PUSH2 0x7E PUSH2 0x69 CALLDATASIZE PUSH1 0x4 PUSH2 0x2DA JUMP JUMPDEST PUSH1 0x0 PUSH1 0x20 DUP2 SWAP1 MSTORE SWAP1 DUP2 MSTORE PUSH1 0x40 SWAP1 KECCAK256 SLOAD PUSH1 0xFF AND DUP2 JUMP JUMPDEST PUSH1 0x40 MLOAD SWAP1 ISZERO ISZERO DUP2 MSTORE PUSH1 0x20 ADD PUSH1 0x40 MLOAD DUP1 SWAP2 SUB SWAP1 RETURN JUMPDEST PUSH2 0x7E PUSH2 0xA0 CALLDATASIZE PUSH1 0x4 PUSH2 0x303 JUMP JUMPDEST PUSH2 0x133 JUMP JUMPDEST CALLER PUSH1 0x0 SWAP1 DUP2 MSTORE PUSH1 0x20 DUP2 SWAP1 MSTORE PUSH1 0x40 SWAP1 KECCAK256 SLOAD PUSH1 0xFF AND ISZERO ISZERO PUSH1 0x1 EQ PUSH2 0x10E JUMPI PUSH1 0x40 MLOAD PUSH3 0x461BCD PUSH1 0xE5 SHL DUP2 MSTORE PUSH1 0x20 PUSH1 0x4 DUP3 ADD MSTORE PUSH1 0x1B PUSH1 0x24 DUP3 ADD MSTORE PUSH32 0x53656E646572206973206E6F7420616E20617574686F726974792E0000000000 PUSH1 0x44 DUP3 ADD MSTORE PUSH1 0x64 ADD JUMPDEST PUSH1 0x40 MLOAD DUP1 SWAP2 SUB SWAP1 REVERT JUMPDEST PUSH1 0x1 DUP1 SLOAD DUP3 SWAP2 SWAP1 PUSH1 0xFF NOT AND DUP2 DUP4 DUP2 DUP2 GT ISZERO PUSH2 0x12B JUMPI PUSH2 0x12B PUSH2 0x325 JUMP JUMPDEST MUL OR SWAP1 SSTORE POP POP JUMP JUMPDEST PUSH1 0x0 DUP1 PUSH1 0x1 DUP1 SLOAD PUSH1 0xFF AND SWAP1 DUP2 GT ISZERO PUSH2 0x14D JUMPI PUSH2 0x14D PUSH2 0x325 JUMP JUMPDEST EQ PUSH2 0x192 JUMPI PUSH1 0x40 MLOAD PUSH3 0x461BCD PUSH1 0xE5 SHL DUP2 MSTORE PUSH1 0x20 PUSH1 0x4 DUP3 ADD MSTORE PUSH1 0x15 PUSH1 0x24 DUP3 ADD MSTORE PUSH21 0x506F6C69637936206973206E6F7420416374697665 PUSH1 0x58 SHL PUSH1 0x44 DUP3 ADD MSTORE PUSH1 0x64 ADD PUSH2 0x105 JUMP JUMPDEST TIMESTAMP PUSH1 0x2 DUP2 SWAP1 SSTORE PUSH1 0x3 SLOAD SWAP1 PUSH2 0x1A7 SWAP1 DUP6 SWAP1 PUSH2 0x33B JUMP JUMPDEST LT ISZERO DUP1 ISZERO PUSH2 0x1C4 JUMPI POP PUSH1 0x3 SLOAD DUP3 PUSH1 0x2 SLOAD PUSH2 0x1C1 SWAP2 SWAP1 PUSH2 0x33B JUMP JUMPDEST LT ISZERO JUMPDEST ISZERO PUSH2 0x24D JUMPI PUSH32 0x50E8D46DCB719FFEAE31CDB40141820A1744374032E7A478588D9300A568FBAE PUSH1 0x40 MLOAD PUSH2 0x23D SWAP1 PUSH1 0x20 DUP1 DUP3 MSTORE PUSH1 0x2C SWAP1 DUP3 ADD MSTORE PUSH32 0x5375626A65637427732026204F626A6563742773206167652072657374726963 PUSH1 0x40 DUP3 ADD MSTORE PUSH12 0x74696F6E2070617373656421 PUSH1 0xA0 SHL PUSH1 0x60 DUP3 ADD MSTORE PUSH1 0x80 ADD SWAP1 JUMP JUMPDEST PUSH1 0x40 MLOAD DUP1 SWAP2 SUB SWAP1 LOG1 POP PUSH1 0x1 PUSH2 0x2AC JUMP JUMPDEST PUSH32 0xFA521B2CCCDB4E77C7C910F706A01F10D54AD95A00AE5ECA7241972E5B3D24F3 PUSH1 0x40 MLOAD PUSH2 0x2A0 SWAP1 PUSH1 0x20 DUP1 DUP3 MSTORE PUSH1 0x11 SWAP1 DUP3 ADD MSTORE PUSH17 0x416765207265737472696374696F6E2121 PUSH1 0x78 SHL PUSH1 0x40 DUP3 ADD MSTORE PUSH1 0x60 ADD SWAP1 JUMP JUMPDEST PUSH1 0x40 MLOAD DUP1 SWAP2 SUB SWAP1 LOG1 POP PUSH1 0x0 JUMPDEST SWAP3 SWAP2 POP POP JUMP JUMPDEST PUSH1 0x0 PUSH1 0x20 DUP3 DUP5 SUB SLT ISZERO PUSH2 0x2C4 JUMPI PUSH1 0x0 DUP1 REVERT JUMPDEST DUP2 CALLDATALOAD PUSH1 0x2 DUP2 LT PUSH2 0x2D3 JUMPI PUSH1 0x0 DUP1 REVERT JUMPDEST SWAP4 SWAP3 POP POP POP JUMP JUMPDEST PUSH1 0x0 PUSH1 0x20 DUP3 DUP5 SUB SLT ISZERO PUSH2 0x2EC JUMPI PUSH1 0x0 DUP1 REVERT JUMPDEST DUP2 CALLDATALOAD PUSH1 0x1 PUSH1 0x1 PUSH1 0xA0 SHL SUB DUP2 AND DUP2 EQ PUSH2 0x2D3 JUMPI PUSH1 0x0 DUP1 REVERT JUMPDEST PUSH1 0x0 DUP1 PUSH1 0x40 DUP4 DUP6 SUB SLT ISZERO PUSH2 0x316 JUMPI PUSH1 0x0 DUP1 REVERT JUMPDEST POP POP DUP1 CALLDATALOAD SWAP3 PUSH1 0x20 SWAP1 SWAP2 ADD CALLDATALOAD SWAP2 POP JUMP JUMPDEST PUSH4 0x4E487B71 PUSH1 0xE0 SHL PUSH1 0x0 MSTORE PUSH1 0x21 PUSH1 0x4 MSTORE PUSH1 0x24 PUSH1 0x0 REVERT JUMPDEST DUP2 DUP2 SUB DUP2 DUP2 GT ISZERO PUSH2 0x2AC JUMPI PUSH4 0x4E487B71 PUSH1 0xE0 SHL PUSH1 0x0 MSTORE PUSH1 0x11 PUSH1 0x4 MSTORE PUSH1 0x24 PUSH1 0x0 REVERT INVALID LOG2 PUSH5 0x6970667358 0x22 SLT KECCAK256 SMOD PUSH10 0x5915661D4D08EA58B215 PUSH11 0x4B34E711A17253F8EFCD90 SWAP9 0xAE CREATE2 0xC4 0xEE 0xCA PUSH0 0xE6 PUSH5 0x736F6C6343 STOP ADDMOD BYTE STOP CALLER ","sha1":"00ed63cfdaacd4b261e28de92ab95c09d9c7e5a7","source":"// SPDX-License-Identifier: UNLICENSED\npragma solidity ^0.8.17;\ncontract Policy6  {\n    enum PolicyState {Active, Deactivated}\n\n    mapping(address => bool) public authorities;\n\n    // VARIABLES\n    PolicyState policyState;\n    uint presentTime;\n    uint restricted_age;\n    // EVENTS\n    event AccessDenied( string message);\n    event AccessApproved( string message);\n    // MODIFIERS\n    modifier authorities_only(){\n        require(authorities[msg.sender] == true, \"Sender is not an authority.\");\n        _;\n    }\n    modifier onlyWhenActive(){\n        require(policyState == PolicyState.Active, \"Policy6 is not Active\");\n        _;\n    }\n    //CONSTRUCTOR\n    constructor( uint _restricted_age){\n        policyState = PolicyState.Active;\n        restricted_age = _restricted_age; // in Seconds\n        authorities[msg.sender] = true;\n\n    }\n\n    function setPolicyState(PolicyState _policyState) public authorities_only(){\n        policyState = _policyState;\n    }\n\n    function checkPolicy(uint sub_age, uint obj_age)public onlyWhenActive() returns (bool){\n        presentTime = block.timestamp;\n        if( (presentTime - sub_age >= restricted_age )&& (presentTime - obj_age >= restricted_age)){\n            emit AccessApproved( \"Subject's & Object's age restriction passed!\");\n            return true;\n        }\n        else{\n            emit AccessDenied( \"Age restriction!!\");\n            return false;\n        }\n    }\n}","sourcePath":"contracts/Policies/Policy6.sol","type":"contract","deployment":{"address":"0x6B2Bb4eea7d664096493EfCF9994fEd708c6d010","chainid":"5777","blockHeight":9}}