{"abi":[{"inputs":[],"stateMutability":"nonpayable","type":"constructor","name":"constructor"},{"anonymous":false,"inputs":[{"indexed":false,"internalType":"address","name":"obj_addr","type":"address"},{"indexed":false,"internalType":"string","name":"name","type":"string"}],"name":"NewObjectAdded","type":"event"},{"anonymous":false,"inputs":[{"indexed":false,"internalType":"address","name":"sub_addr","type":"address"},{"indexed":false,"internalType":"string","name":"name","type":"string"}],"name":"ObjectChanged","type":"event"},{"inputs":[{"internalType":"address","name":"obj_addr","type":"address"},{"internalType":"string","name":"name","type":"string"},{"internalType":"uint256","name":"trust","type":"uint256"},{"internalType":"enum Device.Category","name":"category","type":"uint8"},{"internalType":"enum Device.Zone","name":"zone","type":"uint8"}],"name":"add_object","outputs":[],"stateMutability":"nonpayable","type":"function"},{"inputs":[{"internalType":"address","name":"","type":"address"}],"name":"authorities","outputs":[{"internalType":"bool","name":"","type":"bool"}],"stateMutability":"view","type":"function"},{"inputs":[{"internalType":"address","name":"obj_addr","type":"address"},{"internalType":"string","name":"name","type":"string"},{"internalType":"uint256","name":"age","type":"uint256"},{"internalType":"uint256","name":"trust","type":"uint256"},{"internalType":"enum Device.Category","name":"category","type":"uint8"},{"internalType":"enum Device.Zone","name":"zone","type":"uint8"}],"name":"change_attribs","outputs":[],"stateMutability":"nonpayable","type":"function"},{"inputs":[{"internalType":"address","name":"obj_addr","type":"address"}],"name":"check_bitmap","outputs":[{"internalType":"bool","name":"","type":"bool"}],"stateMutability":"view","type":"function"},{"inputs":[{"internalType":"address","name":"","type":"address"}],"name":"objects","outputs":[{"internalType":"enum Device.State","name":"state","type":"uint8"},{"internalType":"string","name":"name","type":"string"},{"internalType":"uint256","name":"age","type":"uint256"},{"internalType":"uint256","name":"trust","type":"uint256"},{"internalType":"enum Device.Category","name":"category","type":"uint8"},{"internalType":"enum Device.Zone","name":"zone","type":"uint8"}],"stateMutability":"view","type":"function"}],"bytecode":"6080604052348015600f57600080fd5b50336000908152602081905260408120805460ff19908116600190811790925590829055600291909155600380549091166005179055610d2b806100546000396000f3fe608060405234801561001057600080fd5b50600436106100575760003560e01c806304b418e21461005c578063770285ae1461008457806391223d69146100a9578063a1775d05146100cc578063ce654869146100e1575b600080fd5b61006f61006a366004610819565b6100f4565b60405190151581526020015b60405180910390f35b610097610092366004610819565b610222565b60405161007b96959493929190610881565b61006f6100b7366004610819565b60006020819052908152604090205460ff1681565b6100df6100da3660046109cc565b6102eb565b005b6100df6100ef366004610a4d565b610555565b60035460009060ff1661014e5760405162461bcd60e51b815260206004820152601960248201527f4861736820636f756e742063616e6e6f74206265207a65726f0000000000000060448201526064015b60405180910390fd5b60005b60035460ff16811015610219576040516bffffffffffffffffffffffff19606085901b16602082015260348101829052600090610100906054016040516020818303038152906040528051906020012060001c6101ae9190610ac6565b905061010081106101f35760405162461bcd60e51b815260206004820152600f60248201526e4f766572666c6f77204572726f722160881b6044820152606401610145565b6002546001821b90811660000361020f57506000949350505050565b5050600101610151565b50600192915050565b6005602052600090815260409020805460018201805460ff909216929161024890610ae8565b80601f016020809104026020016040519081016040528092919081815260200182805461027490610ae8565b80156102c15780601f10610296576101008083540402835291602001916102c1565b820191906000526020600020905b8154815290600101906020018083116102a457829003601f168201915b50505050600283015460038401546004909401549293909290915060ff8082169161010090041686565b3360009081526020819052604090205460ff16151560011461034f5760405162461bcd60e51b815260206004820152601b60248201527f53656e646572206973206e6f7420616e20617574686f726974792e00000000006044820152606401610145565b8560006001600160a01b03821660009081526005602052604090205460ff16600281111561037f5761037f61083b565b146103cc5760405162461bcd60e51b815260206004820152601c60248201527f4f626a65637420737461746565206973206e6f742061637469766521000000006044820152606401610145565b85518690156103fc576001600160a01b03881660009081526005602052604090206001016103fa8882610b71565b505b8515610421576001600160a01b03881660009081526005602052604090206002018690555b8415610446576001600160a01b03881660009081526005602052604090206003018590555b600084600381111561045a5761045a61083b565b1461049d576001600160a01b0388166000908152600560205260409020600401805485919060ff191660018360038111156104975761049761083b565b02179055505b60008360028111156104b1576104b161083b565b146104f6576001600160a01b0388166000908152600560205260409020600401805484919061ff0019166101008360028111156104f0576104f061083b565b02179055505b6001600160a01b0388166000908152600560205260409081902090517f05d4af0052c23727f02f7b57bc1d07977666cce9e5628db0c182e3eddfe80d5e91610543918b9160010190610c30565b60405180910390a15050505050505050565b3360009081526020819052604090205460ff1615156001146105b95760405162461bcd60e51b815260206004820152601b60248201527f53656e646572206973206e6f7420616e20617574686f726974792e00000000006044820152606401610145565b600180549060006105c983610cce565b90915550506001600160a01b0385166000908152600560205260409020805460ff191681556001016105fb8582610b71565b506001600160a01b0385166000908152600560205260409020426002820155600380820185905560049091018054849260ff199091169060019084908111156106465761064661083b565b02179055506001600160a01b0385166000908152600560205260409020600401805482919061ff0019166101008360028111156106855761068561083b565b0217905550610693856106ef565b6001600160a01b0385166000908152600560205260409081902090517fd7b10ab0017531ed21de18ef1e05292bd4b21c621fe18ee7ccb5c17bec4c8b86916106e091889160010190610c30565b60405180910390a15050505050565b60035460ff166107415760405162461bcd60e51b815260206004820152601a60248201527f4861736820636f756e742063616e6e6f74206265207a65726f210000000000006044820152606401610145565b60005b60035460ff168110156107f9576040516bffffffffffffffffffffffff19606084901b16602082015260348101829052600090610100906054016040516020818303038152906040528051906020012060001c6107a19190610ac6565b905061010081106107e65760405162461bcd60e51b815260206004820152600f60248201526e4f766572666c6f77204572726f722160881b6044820152606401610145565b6002805460019283901b17905501610744565b5050565b80356001600160a01b038116811461081457600080fd5b919050565b60006020828403121561082b57600080fd5b610834826107fd565b9392505050565b634e487b7160e01b600052602160045260246000fd5b600381106108615761086161083b565b50565b600481106108745761087461083b565b9052565b61087481610851565b61088a87610851565b86815260c06020820152600086518060c084015260005b818110156108be576020818a0181015160e08684010152016108a1565b50600060e0828501015260e0601f19601f8301168401019150508560408301528460608301526108f16080830185610864565b6108fe60a0830184610878565b979650505050505050565b634e487b7160e01b600052604160045260246000fd5b600082601f83011261093057600080fd5b813567ffffffffffffffff81111561094a5761094a610909565b604051601f8201601f19908116603f0116810167ffffffffffffffff8111828210171561097957610979610909565b60405281815283820160200185101561099157600080fd5b816020850160208301376000918101602001919091529392505050565b80356004811061081457600080fd5b80356003811061081457600080fd5b60008060008060008060c087890312156109e557600080fd5b6109ee876107fd565b9550602087013567ffffffffffffffff811115610a0a57600080fd5b610a1689828a0161091f565b9550506040870135935060608701359250610a33608088016109ae565b9150610a4160a088016109bd565b90509295509295509295565b600080600080600060a08688031215610a6557600080fd5b610a6e866107fd565b9450602086013567ffffffffffffffff811115610a8a57600080fd5b610a968882890161091f565b94505060408601359250610aac606087016109ae565b9150610aba608087016109bd565b90509295509295909350565b600082610ae357634e487b7160e01b600052601260045260246000fd5b500690565b600181811c90821680610afc57607f821691505b602082108103610b1c57634e487b7160e01b600052602260045260246000fd5b50919050565b601f821115610b6c57806000526020600020601f840160051c81016020851015610b495750805b601f840160051c820191505b81811015610b695760008155600101610b55565b50505b505050565b815167ffffffffffffffff811115610b8b57610b8b610909565b610b9f81610b998454610ae8565b84610b22565b6020601f821160018114610bd35760008315610bbb5750848201515b600019600385901b1c1916600184901b178455610b69565b600084815260208120601f198516915b82811015610c035787850151825560209485019460019092019101610be3565b5084821015610c215786840151600019600387901b60f8161c191681555b50505050600190811b01905550565b6001600160a01b03831681526040602082015281546000908190610c5381610ae8565b8060408601526001821660008114610c725760018114610c8e57610cc2565b60ff1983166060870152606082151560051b8701019350610cc2565b86600052602060002060005b83811015610cb957815488820160600152600190910190602001610c9a565b87016060019450505b50919695505050505050565b600060018201610cee57634e487b7160e01b600052601160045260246000fd5b506001019056fea26469706673582212202615ffa98deca608fd6917feba87327c634b7fe52b3df56c49044829cd79702a64736f6c634300081a0033","bytecodeSha1":"58fe3f302878d45b0c76753f15283606c75f029e","compiler":{"evm_version":"istanbul","optimizer":{"enabled":true,"runs":200},"version":"0.8.26+commit.8a97fa7a"},"contractName":"ObjectAttribute","language":"Solidity","natspec":{"kind":"dev","methods":{},"version":1},"opcodes":"PUSH1 0x80 PUSH1 0x40 MSTORE CALLVALUE DUP1 ISZERO PUSH2 0x10 JUMPI PUSH1 0x0 DUP1 REVERT JUMPDEST POP PUSH1 0x4 CALLDATASIZE LT PUSH2 0x57 JUMPI PUSH1 0x0 CALLDATALOAD PUSH1 0xE0 SHR DUP1 PUSH4 0x4B418E2 EQ PUSH2 0x5C JUMPI DUP1 PUSH4 0x770285AE EQ PUSH2 0x84 JUMPI DUP1 PUSH4 0x91223D69 EQ PUSH2 0xA9 JUMPI DUP1 PUSH4 0xA1775D05 EQ PUSH2 0xCC JUMPI DUP1 PUSH4 0xCE654869 EQ PUSH2 0xE1 JUMPI JUMPDEST PUSH1 0x0 DUP1 REVERT JUMPDEST PUSH2 0x6F PUSH2 0x6A CALLDATASIZE PUSH1 0x4 PUSH2 0x819 JUMP JUMPDEST PUSH2 0xF4 JUMP JUMPDEST PUSH1 0x40 MLOAD SWAP1 ISZERO ISZERO DUP2 MSTORE PUSH1 0x20 ADD JUMPDEST PUSH1 0x40 MLOAD DUP1 SWAP2 SUB SWAP1 RETURN JUMPDEST PUSH2 0x97 PUSH2 0x92 CALLDATASIZE PUSH1 0x4 PUSH2 0x819 JUMP JUMPDEST PUSH2 0x222 JUMP JUMPDEST PUSH1 0x40 MLOAD PUSH2 0x7B SWAP7 SWAP6 SWAP5 SWAP4 SWAP3 SWAP2 SWAP1 PUSH2 0x881 JUMP JUMPDEST PUSH2 0x6F PUSH2 0xB7 CALLDATASIZE PUSH1 0x4 PUSH2 0x819 JUMP JUMPDEST PUSH1 0x0 PUSH1 0x20 DUP2 SWAP1 MSTORE SWAP1 DUP2 MSTORE PUSH1 0x40 SWAP1 KECCAK256 SLOAD PUSH1 0xFF AND DUP2 JUMP JUMPDEST PUSH2 0xDF PUSH2 0xDA CALLDATASIZE PUSH1 0x4 PUSH2 0x9CC JUMP JUMPDEST PUSH2 0x2EB JUMP JUMPDEST STOP JUMPDEST PUSH2 0xDF PUSH2 0xEF CALLDATASIZE PUSH1 0x4 PUSH2 0xA4D JUMP JUMPDEST PUSH2 0x555 JUMP JUMPDEST PUSH1 0x3 SLOAD PUSH1 0x0 SWAP1 PUSH1 0xFF AND PUSH2 0x14E JUMPI PUSH1 0x40 MLOAD PUSH3 0x461BCD PUSH1 0xE5 SHL DUP2 MSTORE PUSH1 0x20 PUSH1 0x4 DUP3 ADD MSTORE PUSH1 0x19 PUSH1 0x24 DUP3 ADD MSTORE PUSH32 0x4861736820636F756E742063616E6E6F74206265207A65726F00000000000000 PUSH1 0x44 DUP3 ADD MSTORE PUSH1 0x64 ADD JUMPDEST PUSH1 0x40 MLOAD DUP1 SWAP2 SUB SWAP1 REVERT JUMPDEST PUSH1 0x0 JUMPDEST PUSH1 0x3 SLOAD PUSH1 0xFF AND DUP2 LT ISZERO PUSH2 0x219 JUMPI PUSH1 0x40 MLOAD PUSH12 0xFFFFFFFFFFFFFFFFFFFFFFFF NOT PUSH1 0x60 DUP6 SWAP1 SHL AND PUSH1 0x20 DUP3 ADD MSTORE PUSH1 0x34 DUP2 ADD DUP3 SWAP1 MSTORE PUSH1 0x0 SWAP1 PUSH2 0x100 SWAP1 PUSH1 0x54 ADD PUSH1 0x40 MLOAD PUSH1 0x20 DUP2 DUP4 SUB SUB DUP2 MSTORE SWAP1 PUSH1 0x40 MSTORE DUP1 MLOAD SWAP1 PUSH1 0x20 ADD KECCAK256 PUSH1 0x0 SHR PUSH2 0x1AE SWAP2 SWAP1 PUSH2 0xAC6 JUMP JUMPDEST SWAP1 POP PUSH2 0x100 DUP2 LT PUSH2 0x1F3 JUMPI PUSH1 0x40 MLOAD PUSH3 0x461BCD PUSH1 0xE5 SHL DUP2 MSTORE PUSH1 0x20 PUSH1 0x4 DUP3 ADD MSTORE PUSH1 0xF PUSH1 0x24 DUP3 ADD MSTORE PUSH15 0x4F766572666C6F77204572726F7221 PUSH1 0x88 SHL PUSH1 0x44 DUP3 ADD MSTORE PUSH1 0x64 ADD PUSH2 0x145 JUMP JUMPDEST PUSH1 0x2 SLOAD PUSH1 0x1 DUP3 SHL SWAP1 DUP2 AND PUSH1 0x0 SUB PUSH2 0x20F JUMPI POP PUSH1 0x0 SWAP5 SWAP4 POP POP POP POP JUMP JUMPDEST POP POP PUSH1 0x1 ADD PUSH2 0x151 JUMP JUMPDEST POP PUSH1 0x1 SWAP3 SWAP2 POP POP JUMP JUMPDEST PUSH1 0x5 PUSH1 0x20 MSTORE PUSH1 0x0 SWAP1 DUP2 MSTORE PUSH1 0x40 SWAP1 KECCAK256 DUP1 SLOAD PUSH1 0x1 DUP3 ADD DUP1 SLOAD PUSH1 0xFF SWAP1 SWAP3 AND SWAP3 SWAP2 PUSH2 0x248 SWAP1 PUSH2 0xAE8 JUMP JUMPDEST DUP1 PUSH1 0x1F ADD PUSH1 0x20 DUP1 SWAP2 DIV MUL PUSH1 0x20 ADD PUSH1 0x40 MLOAD SWAP1 DUP2 ADD PUSH1 0x40 MSTORE DUP1 SWAP3 SWAP2 SWAP1 DUP2 DUP2 MSTORE PUSH1 0x20 ADD DUP3 DUP1 SLOAD PUSH2 0x274 SWAP1 PUSH2 0xAE8 JUMP JUMPDEST DUP1 ISZERO PUSH2 0x2C1 JUMPI DUP1 PUSH1 0x1F LT PUSH2 0x296 JUMPI PUSH2 0x100 DUP1 DUP4 SLOAD DIV MUL DUP4 MSTORE SWAP2 PUSH1 0x20 ADD SWAP2 PUSH2 0x2C1 JUMP JUMPDEST DUP3 ADD SWAP2 SWAP1 PUSH1 0x0 MSTORE PUSH1 0x20 PUSH1 0x0 KECCAK256 SWAP1 JUMPDEST DUP2 SLOAD DUP2 MSTORE SWAP1 PUSH1 0x1 ADD SWAP1 PUSH1 0x20 ADD DUP1 DUP4 GT PUSH2 0x2A4 JUMPI DUP3 SWAP1 SUB PUSH1 0x1F AND DUP3 ADD SWAP2 JUMPDEST POP POP POP POP PUSH1 0x2 DUP4 ADD SLOAD PUSH1 0x3 DUP5 ADD SLOAD PUSH1 0x4 SWAP1 SWAP5 ADD SLOAD SWAP3 SWAP4 SWAP1 SWAP3 SWAP1 SWAP2 POP PUSH1 0xFF DUP1 DUP3 AND SWAP2 PUSH2 0x100 SWAP1 DIV AND DUP7 JUMP JUMPDEST CALLER PUSH1 0x0 SWAP1 DUP2 MSTORE PUSH1 0x20 DUP2 SWAP1 MSTORE PUSH1 0x40 SWAP1 KECCAK256 SLOAD PUSH1 0xFF AND ISZERO ISZERO PUSH1 0x1 EQ PUSH2 0x34F JUMPI PUSH1 0x40 MLOAD PUSH3 0x461BCD PUSH1 0xE5 SHL DUP2 MSTORE PUSH1 0x20 PUSH1 0x4 DUP3 ADD MSTORE PUSH1 0x1B PUSH1 0x24 DUP3 ADD MSTORE PUSH32 0x53656E646572206973206E6F7420616E20617574686F726974792E0000000000 PUSH1 0x44 DUP3 ADD MSTORE PUSH1 0x64 ADD PUSH2 0x145 JUMP JUMPDEST DUP6 PUSH1 0x0 PUSH1 0x1 PUSH1 0x1 PUSH1 0xA0 SHL SUB DUP3 AND PUSH1 0x0 SWAP1 DUP2 MSTORE PUSH1 0x5 PUSH1 0x20 MSTORE PUSH1 0x40 SWAP1 KECCAK256 SLOAD PUSH1 0xFF AND PUSH1 0x2 DUP2 GT ISZERO PUSH2 0x37F JUMPI PUSH2 0x37F PUSH2 0x83B JUMP JUMPDEST EQ PUSH2 0x3CC JUMPI PUSH1 0x40 MLOAD PUSH3 0x461BCD PUSH1 0xE5 SHL DUP2 MSTORE PUSH1 0x20 PUSH1 0x4 DUP3 ADD MSTORE PUSH1 0x1C PUSH1 0x24 DUP3 ADD MSTORE PUSH32 0x4F626A65637420737461746565206973206E6F74206163746976652100000000 PUSH1 0x44 DUP3 ADD MSTORE PUSH1 0x64 ADD PUSH2 0x145 JUMP JUMPDEST DUP6 MLOAD DUP7 SWAP1 ISZERO PUSH2 0x3FC JUMPI PUSH1 0x1 PUSH1 0x1 PUSH1 0xA0 SHL SUB DUP9 AND PUSH1 0x0 SWAP1 DUP2 MSTORE PUSH1 0x5 PUSH1 0x20 MSTORE PUSH1 0x40 SWAP1 KECCAK256 PUSH1 0x1 ADD PUSH2 0x3FA DUP9 DUP3 PUSH2 0xB71 JUMP JUMPDEST POP JUMPDEST DUP6 ISZERO PUSH2 0x421 JUMPI PUSH1 0x1 PUSH1 0x1 PUSH1 0xA0 SHL SUB DUP9 AND PUSH1 0x0 SWAP1 DUP2 MSTORE PUSH1 0x5 PUSH1 0x20 MSTORE PUSH1 0x40 SWAP1 KECCAK256 PUSH1 0x2 ADD DUP7 SWAP1 SSTORE JUMPDEST DUP5 ISZERO PUSH2 0x446 JUMPI PUSH1 0x1 PUSH1 0x1 PUSH1 0xA0 SHL SUB DUP9 AND PUSH1 0x0 SWAP1 DUP2 MSTORE PUSH1 0x5 PUSH1 0x20 MSTORE PUSH1 0x40 SWAP1 KECCAK256 PUSH1 0x3 ADD DUP6 SWAP1 SSTORE JUMPDEST PUSH1 0x0 DUP5 PUSH1 0x3 DUP2 GT ISZERO PUSH2 0x45A JUMPI PUSH2 0x45A PUSH2 0x83B JUMP JUMPDEST EQ PUSH2 0x49D JUMPI PUSH1 0x1 PUSH1 0x1 PUSH1 0xA0 SHL SUB DUP9 AND PUSH1 0x0 SWAP1 DUP2 MSTORE PUSH1 0x5 PUSH1 0x20 MSTORE PUSH1 0x40 SWAP1 KECCAK256 PUSH1 0x4 ADD DUP1 SLOAD DUP6 SWAP2 SWAP1 PUSH1 0xFF NOT AND PUSH1 0x1 DUP4 PUSH1 0x3 DUP2 GT ISZERO PUSH2 0x497 JUMPI PUSH2 0x497 PUSH2 0x83B JUMP JUMPDEST MUL OR SWAP1 SSTORE POP JUMPDEST PUSH1 0x0 DUP4 PUSH1 0x2 DUP2 GT ISZERO PUSH2 0x4B1 JUMPI PUSH2 0x4B1 PUSH2 0x83B JUMP JUMPDEST EQ PUSH2 0x4F6 JUMPI PUSH1 0x1 PUSH1 0x1 PUSH1 0xA0 SHL SUB DUP9 AND PUSH1 0x0 SWAP1 DUP2 MSTORE PUSH1 0x5 PUSH1 0x20 MSTORE PUSH1 0x40 SWAP1 KECCAK256 PUSH1 0x4 ADD DUP1 SLOAD DUP5 SWAP2 SWAP1 PUSH2 0xFF00 NOT AND PUSH2 0x100 DUP4 PUSH1 0x2 DUP2 GT ISZERO PUSH2 0x4F0 JUMPI PUSH2 0x4F0 PUSH2 0x83B JUMP JUMPDEST MUL OR SWAP1 SSTORE POP JUMPDEST PUSH1 0x1 PUSH1 0x1 PUSH1 0xA0 SHL SUB DUP9 AND PUSH1 0x0 SWAP1 DUP2 MSTORE PUSH1 0x5 PUSH1 0x20 MSTORE PUSH1 0x40 SWAP1 DUP2 SWAP1 KECCAK256 SWAP1 MLOAD PUSH32 0x5D4AF0052C23727F02F7B57BC1D07977666CCE9E5628DB0C182E3EDDFE80D5E SWAP2 PUSH2 0x543 SWAP2 DUP12 SWAP2 PUSH1 0x1 ADD SWAP1 PUSH2 0xC30 JUMP JUMPDEST PUSH1 0x40 MLOAD DUP1 SWAP2 SUB SWAP1 LOG1 POP POP POP POP POP POP POP POP JUMP JUMPDEST CALLER PUSH1 0x0 SWAP1 DUP2 MSTORE PUSH1 0x20 DUP2 SWAP1 MSTORE PUSH1 0x40 SWAP1 KECCAK256 SLOAD PUSH1 0xFF AND ISZERO ISZERO PUSH1 0x1 EQ PUSH2 0x5B9 JUMPI PUSH1 0x40 MLOAD PUSH3 0x461BCD PUSH1 0xE5 SHL DUP2 MSTORE PUSH1 0x20 PUSH1 0x4 DUP3 ADD MSTORE PUSH1 0x1B PUSH1 0x24 DUP3 ADD MSTORE PUSH32 0x53656E646572206973206E6F7420616E20617574686F726974792E0000000000 PUSH1 0x44 DUP3 ADD MSTORE PUSH1 0x64 ADD PUSH2 0x145 JUMP JUMPDEST PUSH1 0x1 DUP1 SLOAD SWAP1 PUSH1 0x0 PUSH2 0x5C9 DUP4 PUSH2 0xCCE JUMP JUMPDEST SWAP1 SWAP2 SSTORE POP POP PUSH1 0x1 PUSH1 0x1 PUSH1 0xA0 SHL SUB DUP6 AND PUSH1 0x0 SWAP1 DUP2 MSTORE PUSH1 0x5 PUSH1 0x20 MSTORE PUSH1 0x40 SWAP1 KECCAK256 DUP1 SLOAD PUSH1 0xFF NOT AND DUP2 SSTORE PUSH1 0x1 ADD PUSH2 0x5FB DUP6 DUP3 PUSH2 0xB71 JUMP JUMPDEST POP PUSH1 0x1 PUSH1 0x1 PUSH1 0xA0 SHL SUB DUP6 AND PUSH1 0x0 SWAP1 DUP2 MSTORE PUSH1 0x5 PUSH1 0x20 MSTORE PUSH1 0x40 SWAP1 KECCAK256 TIMESTAMP PUSH1 0x2 DUP3 ADD SSTORE PUSH1 0x3 DUP1 DUP3 ADD DUP6 SWAP1 SSTORE PUSH1 0x4 SWAP1 SWAP2 ADD DUP1 SLOAD DUP5 SWAP3 PUSH1 0xFF NOT SWAP1 SWAP2 AND SWAP1 PUSH1 0x1 SWAP1 DUP5 SWAP1 DUP2 GT ISZERO PUSH2 0x646 JUMPI PUSH2 0x646 PUSH2 0x83B JUMP JUMPDEST MUL OR SWAP1 SSTORE POP PUSH1 0x1 PUSH1 0x1 PUSH1 0xA0 SHL SUB DUP6 AND PUSH1 0x0 SWAP1 DUP2 MSTORE PUSH1 0x5 PUSH1 0x20 MSTORE PUSH1 0x40 SWAP1 KECCAK256 PUSH1 0x4 ADD DUP1 SLOAD DUP3 SWAP2 SWAP1 PUSH2 0xFF00 NOT AND PUSH2 0x100 DUP4 PUSH1 0x2 DUP2 GT ISZERO PUSH2 0x685 JUMPI PUSH2 0x685 PUSH2 0x83B JUMP JUMPDEST MUL OR SWAP1 SSTORE POP PUSH2 0x693 DUP6 PUSH2 0x6EF JUMP JUMPDEST PUSH1 0x1 PUSH1 0x1 PUSH1 0xA0 SHL SUB DUP6 AND PUSH1 0x0 SWAP1 DUP2 MSTORE PUSH1 0x5 PUSH1 0x20 MSTORE PUSH1 0x40 SWAP1 DUP2 SWAP1 KECCAK256 SWAP1 MLOAD PUSH32 0xD7B10AB0017531ED21DE18EF1E05292BD4B21C621FE18EE7CCB5C17BEC4C8B86 SWAP2 PUSH2 0x6E0 SWAP2 DUP9 SWAP2 PUSH1 0x1 ADD SWAP1 PUSH2 0xC30 JUMP JUMPDEST PUSH1 0x40 MLOAD DUP1 SWAP2 SUB SWAP1 LOG1 POP POP POP POP POP JUMP JUMPDEST PUSH1 0x3 SLOAD PUSH1 0xFF AND PUSH2 0x741 JUMPI PUSH1 0x40 MLOAD PUSH3 0x461BCD PUSH1 0xE5 SHL DUP2 MSTORE PUSH1 0x20 PUSH1 0x4 DUP3 ADD MSTORE PUSH1 0x1A PUSH1 0x24 DUP3 ADD MSTORE PUSH32 0x4861736820636F756E742063616E6E6F74206265207A65726F21000000000000 PUSH1 0x44 DUP3 ADD MSTORE PUSH1 0x64 ADD PUSH2 0x145 JUMP JUMPDEST PUSH1 0x0 JUMPDEST PUSH1 0x3 SLOAD PUSH1 0xFF AND DUP2 LT ISZERO PUSH2 0x7F9 JUMPI PUSH1 0x40 MLOAD PUSH12 0xFFFFFFFFFFFFFFFFFFFFFFFF NOT PUSH1 0x60 DUP5 SWAP1 SHL AND PUSH1 0x20 DUP3 ADD MSTORE PUSH1 0x34 DUP2 ADD DUP3 SWAP1 MSTORE PUSH1 0x0 SWAP1 PUSH2 0x100 SWAP1 PUSH1 0x54 ADD PUSH1 0x40 MLOAD PUSH1 0x20 DUP2 DUP4 SUB SUB DUP2 MSTORE SWAP1 PUSH1 0x40 MSTORE DUP1 MLOAD SWAP1 PUSH1 0x20 ADD KECCAK256 PUSH1 0x0 SHR PUSH2 0x7A1 SWAP2 SWAP1 PUSH2 0xAC6 JUMP JUMPDEST SWAP1 POP PUSH2 0x100 DUP2 LT PUSH2 0x7E6 JUMPI PUSH1 0x40 MLOAD PUSH3 0x461BCD PUSH1 0xE5 SHL DUP2 MSTORE PUSH1 0x20 PUSH1 0x4 DUP3 ADD MSTORE PUSH1 0xF PUSH1 0x24 DUP3 ADD MSTORE PUSH15 0x4F766572666C6F77204572726F7221 PUSH1 0x88 SHL PUSH1 0x44 DUP3 ADD MSTORE PUSH1 0x64 ADD PUSH2 0x145 JUMP JUMPDEST PUSH1 0x2 DUP1 SLOAD PUSH1 0x1 SWAP3 DUP4 SWAP1 SHL OR SWAP1 SSTORE ADD PUSH2 0x744 JUMP JUMPDEST POP POP JUMP JUMPDEST DUP1 CALLDATALOAD PUSH1 0x1 PUSH1 0x1 PUSH1 0xA0 SHL SUB DUP2 AND DUP2 EQ PUSH2 0x814 JUMPI PUSH1 0x0 DUP1 REVERT JUMPDEST SWAP2 SWAP1 POP JUMP JUMPDEST PUSH1 0x0 PUSH1 0x20 DUP3 DUP5 SUB SLT ISZERO PUSH2 0x82B JUMPI PUSH1 0x0 DUP1 REVERT JUMPDEST PUSH2 0x834 DUP3 PUSH2 0x7FD JUMP JUMPDEST SWAP4 SWAP3 POP POP POP JUMP JUMPDEST PUSH4 0x4E487B71 PUSH1 0xE0 SHL PUSH1 0x0 MSTORE PUSH1 0x21 PUSH1 0x4 MSTORE PUSH1 0x24 PUSH1 0x0 REVERT JUMPDEST PUSH1 0x3 DUP2 LT PUSH2 0x861 JUMPI PUSH2 0x861 PUSH2 0x83B JUMP JUMPDEST POP JUMP JUMPDEST PUSH1 0x4 DUP2 LT PUSH2 0x874 JUMPI PUSH2 0x874 PUSH2 0x83B JUMP JUMPDEST SWAP1 MSTORE JUMP JUMPDEST PUSH2 0x874 DUP2 PUSH2 0x851 JUMP JUMPDEST PUSH2 0x88A DUP8 PUSH2 0x851 JUMP JUMPDEST DUP7 DUP2 MSTORE PUSH1 0xC0 PUSH1 0x20 DUP3 ADD MSTORE PUSH1 0x0 DUP7 MLOAD DUP1 PUSH1 0xC0 DUP5 ADD MSTORE PUSH1 0x0 JUMPDEST DUP2 DUP2 LT ISZERO PUSH2 0x8BE JUMPI PUSH1 0x20 DUP2 DUP11 ADD DUP2 ADD MLOAD PUSH1 0xE0 DUP7 DUP5 ADD ADD MSTORE ADD PUSH2 0x8A1 JUMP JUMPDEST POP PUSH1 0x0 PUSH1 0xE0 DUP3 DUP6 ADD ADD MSTORE PUSH1 0xE0 PUSH1 0x1F NOT PUSH1 0x1F DUP4 ADD AND DUP5 ADD ADD SWAP2 POP POP DUP6 PUSH1 0x40 DUP4 ADD MSTORE DUP5 PUSH1 0x60 DUP4 ADD MSTORE PUSH2 0x8F1 PUSH1 0x80 DUP4 ADD DUP6 PUSH2 0x864 JUMP JUMPDEST PUSH2 0x8FE PUSH1 0xA0 DUP4 ADD DUP5 PUSH2 0x878 JUMP JUMPDEST SWAP8 SWAP7 POP POP POP POP POP POP POP JUMP JUMPDEST PUSH4 0x4E487B71 PUSH1 0xE0 SHL PUSH1 0x0 MSTORE PUSH1 0x41 PUSH1 0x4 MSTORE PUSH1 0x24 PUSH1 0x0 REVERT JUMPDEST PUSH1 0x0 DUP3 PUSH1 0x1F DUP4 ADD SLT PUSH2 0x930 JUMPI PUSH1 0x0 DUP1 REVERT JUMPDEST DUP2 CALLDATALOAD PUSH8 0xFFFFFFFFFFFFFFFF DUP2 GT ISZERO PUSH2 0x94A JUMPI PUSH2 0x94A PUSH2 0x909 JUMP JUMPDEST PUSH1 0x40 MLOAD PUSH1 0x1F DUP3 ADD PUSH1 0x1F NOT SWAP1 DUP2 AND PUSH1 0x3F ADD AND DUP2 ADD PUSH8 0xFFFFFFFFFFFFFFFF DUP2 GT DUP3 DUP3 LT OR ISZERO PUSH2 0x979 JUMPI PUSH2 0x979 PUSH2 0x909 JUMP JUMPDEST PUSH1 0x40 MSTORE DUP2 DUP2 MSTORE DUP4 DUP3 ADD PUSH1 0x20 ADD DUP6 LT ISZERO PUSH2 0x991 JUMPI PUSH1 0x0 DUP1 REVERT JUMPDEST DUP2 PUSH1 0x20 DUP6 ADD PUSH1 0x20 DUP4 ADD CALLDATACOPY PUSH1 0x0 SWAP2 DUP2 ADD PUSH1 0x20 ADD SWAP2 SWAP1 SWAP2 MSTORE SWAP4 SWAP3 POP POP POP JUMP JUMPDEST DUP1 CALLDATALOAD PUSH1 0x4 DUP2 LT PUSH2 0x814 JUMPI PUSH1 0x0 DUP1 REVERT JUMPDEST DUP1 CALLDATALOAD PUSH1 0x3 DUP2 LT PUSH2 0x814 JUMPI PUSH1 0x0 DUP1 REVERT JUMPDEST PUSH1 0x0 DUP1 PUSH1 0x0 DUP1 PUSH1 0x0 DUP1 PUSH1 0xC0 DUP8 DUP10 SUB SLT ISZERO PUSH2 0x9E5 JUMPI PUSH1 0x0 DUP1 REVERT JUMPDEST PUSH2 0x9EE DUP8 PUSH2 0x7FD JUMP JUMPDEST SWAP6 POP PUSH1 0x20 DUP8 ADD CALLDATALOAD PUSH8 0xFFFFFFFFFFFFFFFF DUP2 GT ISZERO PUSH2 0xA0A JUMPI PUSH1 0x0 DUP1 REVERT JUMPDEST PUSH2 0xA16 DUP10 DUP3 DUP11 ADD PUSH2 0x91F JUMP JUMPDEST SWAP6 POP POP PUSH1 0x40 DUP8 ADD CALLDATALOAD SWAP4 POP PUSH1 0x60 DUP8 ADD CALLDATALOAD SWAP3 POP PUSH2 0xA33 PUSH1 0x80 DUP9 ADD PUSH2 0x9AE JUMP JUMPDEST SWAP2 POP PUSH2 0xA41 PUSH1 0xA0 DUP9 ADD PUSH2 0x9BD JUMP JUMPDEST SWAP1 POP SWAP3 SWAP6 POP SWAP3 SWAP6 POP SWAP3 SWAP6 JUMP JUMPDEST PUSH1 0x0 DUP1 PUSH1 0x0 DUP1 PUSH1 0x0 PUSH1 0xA0 DUP7 DUP9 SUB SLT ISZERO PUSH2 0xA65 JUMPI PUSH1 0x0 DUP1 REVERT JUMPDEST PUSH2 0xA6E DUP7 PUSH2 0x7FD JUMP JUMPDEST SWAP5 POP PUSH1 0x20 DUP7 ADD CALLDATALOAD PUSH8 0xFFFFFFFFFFFFFFFF DUP2 GT ISZERO PUSH2 0xA8A JUMPI PUSH1 0x0 DUP1 REVERT JUMPDEST PUSH2 0xA96 DUP9 DUP3 DUP10 ADD PUSH2 0x91F JUMP JUMPDEST SWAP5 POP POP PUSH1 0x40 DUP7 ADD CALLDATALOAD SWAP3 POP PUSH2 0xAAC PUSH1 0x60 DUP8 ADD PUSH2 0x9AE JUMP JUMPDEST SWAP2 POP PUSH2 0xABA PUSH1 0x80 DUP8 ADD PUSH2 0x9BD JUMP JUMPDEST SWAP1 POP SWAP3 SWAP6 POP SWAP3 SWAP6 SWAP1 SWAP4 POP JUMP JUMPDEST PUSH1 0x0 DUP3 PUSH2 0xAE3 JUMPI PUSH4 0x4E487B71 PUSH1 0xE0 SHL PUSH1 0x0 MSTORE PUSH1 0x12 PUSH1 0x4 MSTORE PUSH1 0x24 PUSH1 0x0 REVERT JUMPDEST POP MOD SWAP1 JUMP JUMPDEST PUSH1 0x1 DUP2 DUP2 SHR SWAP1 DUP3 AND DUP1 PUSH2 0xAFC JUMPI PUSH1 0x7F DUP3 AND SWAP2 POP JUMPDEST PUSH1 0x20 DUP3 LT DUP2 SUB PUSH2 0xB1C JUMPI PUSH4 0x4E487B71 PUSH1 0xE0 SHL PUSH1 0x0 MSTORE PUSH1 0x22 PUSH1 0x4 MSTORE PUSH1 0x24 PUSH1 0x0 REVERT JUMPDEST POP SWAP2 SWAP1 POP JUMP JUMPDEST PUSH1 0x1F DUP3 GT ISZERO PUSH2 0xB6C JUMPI DUP1 PUSH1 0x0 MSTORE PUSH1 0x20 PUSH1 0x0 KECCAK256 PUSH1 0x1F DUP5 ADD PUSH1 0x5 SHR DUP2 ADD PUSH1 0x20 DUP6 LT ISZERO PUSH2 0xB49 JUMPI POP DUP1 JUMPDEST PUSH1 0x1F DUP5 ADD PUSH1 0x5 SHR DUP3 ADD SWAP2 POP JUMPDEST DUP2 DUP2 LT ISZERO PUSH2 0xB69 JUMPI PUSH1 0x0 DUP2 SSTORE PUSH1 0x1 ADD PUSH2 0xB55 JUMP JUMPDEST POP POP JUMPDEST POP POP POP JUMP JUMPDEST DUP2 MLOAD PUSH8 0xFFFFFFFFFFFFFFFF DUP2 GT ISZERO PUSH2 0xB8B JUMPI PUSH2 0xB8B PUSH2 0x909 JUMP JUMPDEST PUSH2 0xB9F DUP2 PUSH2 0xB99 DUP5 SLOAD PUSH2 0xAE8 JUMP JUMPDEST DUP5 PUSH2 0xB22 JUMP JUMPDEST PUSH1 0x20 PUSH1 0x1F DUP3 GT PUSH1 0x1 DUP2 EQ PUSH2 0xBD3 JUMPI PUSH1 0x0 DUP4 ISZERO PUSH2 0xBBB JUMPI POP DUP5 DUP3 ADD MLOAD JUMPDEST PUSH1 0x0 NOT PUSH1 0x3 DUP6 SWAP1 SHL SHR NOT AND PUSH1 0x1 DUP5 SWAP1 SHL OR DUP5 SSTORE PUSH2 0xB69 JUMP JUMPDEST PUSH1 0x0 DUP5 DUP2 MSTORE PUSH1 0x20 DUP2 KECCAK256 PUSH1 0x1F NOT DUP6 AND SWAP2 JUMPDEST DUP3 DUP2 LT ISZERO PUSH2 0xC03 JUMPI DUP8 DUP6 ADD MLOAD DUP3 SSTORE PUSH1 0x20 SWAP5 DUP6 ADD SWAP5 PUSH1 0x1 SWAP1 SWAP3 ADD SWAP2 ADD PUSH2 0xBE3 JUMP JUMPDEST POP DUP5 DUP3 LT ISZERO PUSH2 0xC21 JUMPI DUP7 DUP5 ADD MLOAD PUSH1 0x0 NOT PUSH1 0x3 DUP8 SWAP1 SHL PUSH1 0xF8 AND SHR NOT AND DUP2 SSTORE JUMPDEST POP POP POP POP PUSH1 0x1 SWAP1 DUP2 SHL ADD SWAP1 SSTORE POP JUMP JUMPDEST PUSH1 0x1 PUSH1 0x1 PUSH1 0xA0 SHL SUB DUP4 AND DUP2 MSTORE PUSH1 0x40 PUSH1 0x20 DUP3 ADD MSTORE DUP2 SLOAD PUSH1 0x0 SWAP1 DUP2 SWAP1 PUSH2 0xC53 DUP2 PUSH2 0xAE8 JUMP JUMPDEST DUP1 PUSH1 0x40 DUP7 ADD MSTORE PUSH1 0x1 DUP3 AND PUSH1 0x0 DUP2 EQ PUSH2 0xC72 JUMPI PUSH1 0x1 DUP2 EQ PUSH2 0xC8E JUMPI PUSH2 0xCC2 JUMP JUMPDEST PUSH1 0xFF NOT DUP4 AND PUSH1 0x60 DUP8 ADD MSTORE PUSH1 0x60 DUP3 ISZERO ISZERO PUSH1 0x5 SHL DUP8 ADD ADD SWAP4 POP PUSH2 0xCC2 JUMP JUMPDEST DUP7 PUSH1 0x0 MSTORE PUSH1 0x20 PUSH1 0x0 KECCAK256 PUSH1 0x0 JUMPDEST DUP4 DUP2 LT ISZERO PUSH2 0xCB9 JUMPI DUP2 SLOAD DUP9 DUP3 ADD PUSH1 0x60 ADD MSTORE PUSH1 0x1 SWAP1 SWAP2 ADD SWAP1 PUSH1 0x20 ADD PUSH2 0xC9A JUMP JUMPDEST DUP8 ADD PUSH1 0x60 ADD SWAP5 POP POP JUMPDEST POP SWAP2 SWAP7 SWAP6 POP POP POP POP POP POP JUMP JUMPDEST PUSH1 0x0 PUSH1 0x1 DUP3 ADD PUSH2 0xCEE JUMPI PUSH4 0x4E487B71 PUSH1 0xE0 SHL PUSH1 0x0 MSTORE PUSH1 0x11 PUSH1 0x4 MSTORE PUSH1 0x24 PUSH1 0x0 REVERT JUMPDEST POP PUSH1 0x1 ADD SWAP1 JUMP INVALID LOG2 PUSH5 0x6970667358 0x22 SLT KECCAK256 0x26 ISZERO SELFDESTRUCT 0xA9 DUP14 0xEC 0xA6 ADDMOD REVERT PUSH10 0x17FEBA87327C634B7FE5 0x2B RETURNDATASIZE CREATE2 PUSH13 0x49044829CD79702A64736F6C63 NUMBER STOP ADDMOD BYTE STOP CALLER ","sha1":"3b76c9f328ea419f3b229aee557049d9419f4ae5","source":"// SPDX-License-Identifier: UNLICENSED\npragma solidity ^0.8.17;\nimport \"contracts/Device.sol\";\ncontract ObjectAttribute {\n    struct Object {\n        Device.State state;\n        string name; // type od the device\n        uint age; // Number of days since the device was first registered\n        uint trust; // 1 to 10\n        Device.Category category; \n        Device.Zone zone; // Location\n    }\n    struct BloomFilter {\n        uint256 bitmap;\n        uint8 hash_count; \n    }\n    // local variables\n    mapping(address => bool) public authorities;\n    uint256 num_objects;\n    BloomFilter filter;\n    address[] users;\n\n    //mapping addresses of objects\n    mapping (address => Object) public objects;\n\n    constructor() {\n        authorities[msg.sender] = true;\n        num_objects = 0;\n        filter.bitmap = 0;\n        filter.hash_count = 5;\n    }\n\n    //Authorities Only\n    modifier authorities_only(){\n        require(authorities[msg.sender] == true, \"Sender is not an authority.\");\n        _;\n    }\n    modifier obj_active(address obj_addr){\n        require(objects[obj_addr].state == Device.State.Active, \"Object statee is not active!\");\n        _;\n    }\n    // Events\n    event NewObjectAdded(address obj_addr, string name);\n    event ObjectChanged(address sub_addr, string name);\n\n\n    //Adding an Object\n    function add_object (\n        address obj_addr,         \n        string memory name, // type of the device\n        uint trust, // 1 to 10\n        Device.Category category, \n        Device.Zone zone // Location\n        ) public authorities_only() {\n\n        num_objects++;\n        objects[obj_addr].state = Device.State.Active;\n        //Subject Attributes:\n        objects[obj_addr].name = name;\n        objects[obj_addr].age = block.timestamp;\n        objects[obj_addr].trust = trust;\n        objects[obj_addr].category = category;\n        objects[obj_addr].zone = zone;\n\n        add_bitmap(obj_addr);\n\n        emit NewObjectAdded(obj_addr, objects[obj_addr].name);\n        \n        }\n\n    // Adds a subject to bloom filter\n    // By default hash_count is 5 in constructor\n    // hash_count is number of times the ob_addr gets hashed\n    function add_bitmap(  /**SUBJECT ID**/ address sub_addr)internal {\n         require(filter.hash_count > 0, \"Hash count cannot be zero!\");\n        for(uint i = 0; i < filter.hash_count; i++) {\n            uint256 index = uint256(keccak256(abi.encodePacked(sub_addr, i))) % 256;\n            require(index < 256, \"Overflow Error!\");\n            uint256 bit_place = 1 << index;\n            filter.bitmap = filter.bitmap | bit_place;\n        }    \n    }\n    function check_bitmap( /**OBJECT ID**/ address obj_addr )/**MODIFIERS**/external view returns(bool)\n    {\n        require(filter.hash_count > 0, \"Hash count cannot be zero\");\n        for(uint256 i = 0; i < filter.hash_count; i++){\n            uint256 index = uint256(keccak256(abi.encodePacked(obj_addr, i))) % 256;\n            require(index < 256, \"Overflow Error!\");\n            uint256 bit_place = 1 << index;\n            if((filter.bitmap & bit_place) == 0) return false;\n        }\n        return true;\n    }\n    \n    // Changes the attributes of a subject\n    // If attribute are blank \"\" skip to next attribute (no change done)\n    // Note: Cannot set any attribute to empty string (blank)\n    // Emits SubjectChanged event\n    function change_attribs( \n        address obj_addr,         \n        string memory name, // type of the device\n        uint age, // Number of days since the device was first registered\n        uint trust, // 1 to 10\n        Device.Category category, \n        Device.Zone zone // Location\n         )  /**MODIFIERS**/ public authorities_only()  obj_active(obj_addr){\n        bytes memory empty_test = bytes(name);  \n        if (empty_test.length != 0) objects[obj_addr].name = name;\n        if (age != 0) objects[obj_addr].age = age;\n        if (trust != 0) objects[obj_addr].trust = trust;\n        if (category != Device.Category.Security) objects[obj_addr].category = category;\n        if (zone != Device.Zone.Zone1) objects[obj_addr].zone = zone; \n         \n        emit ObjectChanged(obj_addr,objects[obj_addr].name );\n\n    }\n}","sourcePath":"contracts/ObjectAttribute.sol","type":"contract","deployment":{"address":"0xA8A488433330f1818c1126123e553a009c00408a","chainid":"5777","blockHeight":3}}