{"abi":[{"inputs":[],"stateMutability":"nonpayable","type":"constructor","name":"constructor"},{"anonymous":false,"inputs":[{"indexed":false,"internalType":"address","name":"sub_addr","type":"address"},{"indexed":false,"internalType":"string","name":"sub","type":"string"}],"name":"NewSubjectAdded","type":"event"},{"anonymous":false,"inputs":[{"indexed":false,"internalType":"address","name":"sub_addr","type":"address"}],"name":"SubjectChanged","type":"event"},{"inputs":[{"internalType":"address","name":"authority","type":"address"}],"name":"addAuthority","outputs":[],"stateMutability":"nonpayable","type":"function"},{"inputs":[{"internalType":"address","name":"sub_addr","type":"address"},{"internalType":"string","name":"name","type":"string"},{"internalType":"uint256","name":"trust","type":"uint256"},{"internalType":"enum Device.Category","name":"category","type":"uint8"},{"internalType":"enum Device.Zone","name":"zone","type":"uint8"}],"name":"add_subject","outputs":[],"stateMutability":"nonpayable","type":"function"},{"inputs":[{"internalType":"address","name":"","type":"address"}],"name":"authorities","outputs":[{"internalType":"bool","name":"","type":"bool"}],"stateMutability":"view","type":"function"},{"inputs":[{"internalType":"address","name":"sub_addr","type":"address"},{"internalType":"string","name":"name","type":"string"},{"internalType":"uint256","name":"age","type":"uint256"},{"internalType":"uint256","name":"trust","type":"uint256"},{"internalType":"enum Device.Category","name":"category","type":"uint8"},{"internalType":"enum Device.Zone","name":"zone","type":"uint8"},{"internalType":"uint256","name":"lastUpdated","type":"uint256"}],"name":"change_attribs","outputs":[],"stateMutability":"nonpayable","type":"function"},{"inputs":[{"internalType":"address","name":"sub_addr","type":"address"}],"name":"check_bitmap","outputs":[{"internalType":"bool","name":"","type":"bool"}],"stateMutability":"view","type":"function"},{"inputs":[{"internalType":"address","name":"","type":"address"}],"name":"subjects","outputs":[{"internalType":"enum Device.State","name":"state","type":"uint8"},{"internalType":"string","name":"name","type":"string"},{"internalType":"uint256","name":"age","type":"uint256"},{"internalType":"uint256","name":"trust","type":"uint256"},{"internalType":"enum Device.Category","name":"category","type":"uint8"},{"internalType":"enum Device.Zone","name":"zone","type":"uint8"},{"internalType":"uint256","name":"lastUpdated","type":"uint256"}],"stateMutability":"view","type":"function"}],"bytecode":"6080604052348015600f57600080fd5b50336000908152602081905260408120805460ff19908116600190811790925590829055600291909155600380549091166005179055610dc6806100546000396000f3fe608060405234801561001057600080fd5b50600436106100625760003560e01c806304b418e21461006757806326defa731461008f578063896e2096146100a45780638e8d6008146100ca57806391223d69146100dd578063e2b4aded14610100575b600080fd5b61007a610075366004610865565b610113565b60405190151581526020015b60405180910390f35b6100a261009d366004610865565b610241565b005b6100b76100b2366004610865565b610299565b60405161008697969594939291906108cd565b6100a26100d8366004610a22565b610368565b61007a6100eb366004610865565b60006020819052908152604090205460ff1681565b6100a261010e366004610a9b565b6104f2565b60035460009060ff1661016d5760405162461bcd60e51b815260206004820152601960248201527f4861736820636f756e742063616e6e6f74206265207a65726f0000000000000060448201526064015b60405180910390fd5b60005b60035460ff16811015610238576040516bffffffffffffffffffffffff19606085901b16602082015260348101829052600090610100906054016040516020818303038152906040528051906020012060001c6101cd9190610b2a565b905061010081106102125760405162461bcd60e51b815260206004820152600f60248201526e4f766572666c6f77204572726f722160881b6044820152606401610164565b6002546001821b90811660000361022e57506000949350505050565b5050600101610170565b50600192915050565b3360009081526020819052604090205460ff1615156001146102755760405162461bcd60e51b815260040161016490610b4c565b6001600160a01b03166000908152602081905260409020805460ff19166001179055565b6004602052600090815260409020805460018201805460ff90921692916102bf90610b83565b80601f01602080910402602001604051908101604052809291908181526020018280546102eb90610b83565b80156103385780601f1061030d57610100808354040283529160200191610338565b820191906000526020600020905b81548152906001019060200180831161031b57829003601f168201915b505050506002830154600384015460048501546005909501549394919390925060ff808316926101009004169087565b3360009081526020819052604090205460ff16151560011461039c5760405162461bcd60e51b815260040161016490610b4c565b600180549060006103ac83610bbd565b90915550506001600160a01b0385166000908152600460205260409020805460ff191681556001016103de8582610c33565b506001600160a01b0385166000908152600460208190526040909120426002820155600380820186905591018054849260ff1990911690600190849081111561042957610429610887565b02179055506001600160a01b038516600090815260046020819052604090912001805482919061ff00191661010083600281111561046957610469610887565b02179055506001600160a01b0385166000908152600460205260409020426005909101556104968561073b565b6001600160a01b0385166000908152600460205260409081902090517f1683cc50ac1a71a8f4dad75963c1d06c991028ac82a87fc59580114a45a7930a916104e391889160010190610cf2565b60405180910390a15050505050565b3360009081526020819052604090205460ff1615156001146105265760405162461bcd60e51b815260040161016490610b4c565b8660006001600160a01b03821660009081526004602052604090205460ff16600281111561055657610556610887565b146105a35760405162461bcd60e51b815260206004820152601b60248201527f4f626a656374207374617465206973206e6f74206163746976652100000000006044820152606401610164565b86518790156105d3576001600160a01b03891660009081526004602052604090206001016105d18982610c33565b505b86156105f8576001600160a01b03891660009081526004602052604090206002018790555b851561061d576001600160a01b03891660009081526004602052604090206003018690555b600085600381111561063157610631610887565b14610675576001600160a01b038916600090815260046020819052604090912001805486919060ff1916600183600381111561066f5761066f610887565b02179055505b600084600281111561068957610689610887565b146106cf576001600160a01b038916600090815260046020819052604090912001805485919061ff0019166101008360028111156106c9576106c9610887565b02179055505b82156106f4576001600160a01b03891660009081526004602052604090206005018390555b6040516001600160a01b038a1681527f644798de72c3890447d568c96ae8781e30dee9fc66f7e538aa73604943fd05c59060200160405180910390a1505050505050505050565b60035460ff1661078d5760405162461bcd60e51b815260206004820152601a60248201527f4861736820636f756e742063616e6e6f74206265207a65726f210000000000006044820152606401610164565b60005b60035460ff16811015610845576040516bffffffffffffffffffffffff19606084901b16602082015260348101829052600090610100906054016040516020818303038152906040528051906020012060001c6107ed9190610b2a565b905061010081106108325760405162461bcd60e51b815260206004820152600f60248201526e4f766572666c6f77204572726f722160881b6044820152606401610164565b6002805460019283901b17905501610790565b5050565b80356001600160a01b038116811461086057600080fd5b919050565b60006020828403121561087757600080fd5b61088082610849565b9392505050565b634e487b7160e01b600052602160045260246000fd5b600381106108ad576108ad610887565b50565b600481106108c0576108c0610887565b9052565b6108c08161089d565b6108d68861089d565b87815260e06020820152600087518060e084015260005b8181101561090b576020818b018101516101008684010152016108ed565b5060006101008285010152610100601f19601f83011684010191505086604083015285606083015261094060808301866108b0565b61094d60a08301856108c4565b8260c083015298975050505050505050565b634e487b7160e01b600052604160045260246000fd5b600082601f83011261098657600080fd5b813567ffffffffffffffff8111156109a0576109a061095f565b604051601f8201601f19908116603f0116810167ffffffffffffffff811182821017156109cf576109cf61095f565b6040528181528382016020018510156109e757600080fd5b816020850160208301376000918101602001919091529392505050565b80356004811061086057600080fd5b80356003811061086057600080fd5b600080600080600060a08688031215610a3a57600080fd5b610a4386610849565b9450602086013567ffffffffffffffff811115610a5f57600080fd5b610a6b88828901610975565b94505060408601359250610a8160608701610a04565b9150610a8f60808701610a13565b90509295509295909350565b600080600080600080600060e0888a031215610ab657600080fd5b610abf88610849565b9650602088013567ffffffffffffffff811115610adb57600080fd5b610ae78a828b01610975565b9650506040880135945060608801359350610b0460808901610a04565b9250610b1260a08901610a13565b96999598509396929591949193505060c09091013590565b600082610b4757634e487b7160e01b600052601260045260246000fd5b500690565b6020808252601b908201527f53656e646572206973206e6f7420616e20617574686f726974792e0000000000604082015260600190565b600181811c90821680610b9757607f821691505b602082108103610bb757634e487b7160e01b600052602260045260246000fd5b50919050565b600060018201610bdd57634e487b7160e01b600052601160045260246000fd5b5060010190565b601f821115610c2e57806000526020600020601f840160051c81016020851015610c0b5750805b601f840160051c820191505b81811015610c2b5760008155600101610c17565b50505b505050565b815167ffffffffffffffff811115610c4d57610c4d61095f565b610c6181610c5b8454610b83565b84610be4565b6020601f821160018114610c955760008315610c7d5750848201515b600019600385901b1c1916600184901b178455610c2b565b600084815260208120601f198516915b82811015610cc55787850151825560209485019460019092019101610ca5565b5084821015610ce35786840151600019600387901b60f8161c191681555b50505050600190811b01905550565b6001600160a01b03831681526040602082015281546000908190610d1581610b83565b8060408601526001821660008114610d345760018114610d5057610d84565b60ff1983166060870152606082151560051b8701019350610d84565b86600052602060002060005b83811015610d7b57815488820160600152600190910190602001610d5c565b87016060019450505b5091969550505050505056fea264697066735822122058503bf9cb16e13fbb4eb452c5de93ca4d6ec356333e9b4aa5358b3b011e73ec64736f6c634300081a0033","bytecodeSha1":"ff206b71dffc546a1972ae2d874e45fa46673741","compiler":{"evm_version":"istanbul","optimizer":{"enabled":true,"runs":200},"version":"0.8.26+commit.8a97fa7a"},"contractName":"SubjectAttribute","language":"Solidity","natspec":{"kind":"dev","methods":{},"version":1},"opcodes":"PUSH1 0x80 PUSH1 0x40 MSTORE CALLVALUE DUP1 ISZERO PUSH2 0x10 JUMPI PUSH1 0x0 DUP1 REVERT JUMPDEST POP PUSH1 0x4 CALLDATASIZE LT PUSH2 0x62 JUMPI PUSH1 0x0 CALLDATALOAD PUSH1 0xE0 SHR DUP1 PUSH4 0x4B418E2 EQ PUSH2 0x67 JUMPI DUP1 PUSH4 0x26DEFA73 EQ PUSH2 0x8F JUMPI DUP1 PUSH4 0x896E2096 EQ PUSH2 0xA4 JUMPI DUP1 PUSH4 0x8E8D6008 EQ PUSH2 0xCA JUMPI DUP1 PUSH4 0x91223D69 EQ PUSH2 0xDD JUMPI DUP1 PUSH4 0xE2B4ADED EQ PUSH2 0x100 JUMPI JUMPDEST PUSH1 0x0 DUP1 REVERT JUMPDEST PUSH2 0x7A PUSH2 0x75 CALLDATASIZE PUSH1 0x4 PUSH2 0x865 JUMP JUMPDEST PUSH2 0x113 JUMP JUMPDEST PUSH1 0x40 MLOAD SWAP1 ISZERO ISZERO DUP2 MSTORE PUSH1 0x20 ADD JUMPDEST PUSH1 0x40 MLOAD DUP1 SWAP2 SUB SWAP1 RETURN JUMPDEST PUSH2 0xA2 PUSH2 0x9D CALLDATASIZE PUSH1 0x4 PUSH2 0x865 JUMP JUMPDEST PUSH2 0x241 JUMP JUMPDEST STOP JUMPDEST PUSH2 0xB7 PUSH2 0xB2 CALLDATASIZE PUSH1 0x4 PUSH2 0x865 JUMP JUMPDEST PUSH2 0x299 JUMP JUMPDEST PUSH1 0x40 MLOAD PUSH2 0x86 SWAP8 SWAP7 SWAP6 SWAP5 SWAP4 SWAP3 SWAP2 SWAP1 PUSH2 0x8CD JUMP JUMPDEST PUSH2 0xA2 PUSH2 0xD8 CALLDATASIZE PUSH1 0x4 PUSH2 0xA22 JUMP JUMPDEST PUSH2 0x368 JUMP JUMPDEST PUSH2 0x7A PUSH2 0xEB CALLDATASIZE PUSH1 0x4 PUSH2 0x865 JUMP JUMPDEST PUSH1 0x0 PUSH1 0x20 DUP2 SWAP1 MSTORE SWAP1 DUP2 MSTORE PUSH1 0x40 SWAP1 KECCAK256 SLOAD PUSH1 0xFF AND DUP2 JUMP JUMPDEST PUSH2 0xA2 PUSH2 0x10E CALLDATASIZE PUSH1 0x4 PUSH2 0xA9B JUMP JUMPDEST PUSH2 0x4F2 JUMP JUMPDEST PUSH1 0x3 SLOAD PUSH1 0x0 SWAP1 PUSH1 0xFF AND PUSH2 0x16D JUMPI PUSH1 0x40 MLOAD PUSH3 0x461BCD PUSH1 0xE5 SHL DUP2 MSTORE PUSH1 0x20 PUSH1 0x4 DUP3 ADD MSTORE PUSH1 0x19 PUSH1 0x24 DUP3 ADD MSTORE PUSH32 0x4861736820636F756E742063616E6E6F74206265207A65726F00000000000000 PUSH1 0x44 DUP3 ADD MSTORE PUSH1 0x64 ADD JUMPDEST PUSH1 0x40 MLOAD DUP1 SWAP2 SUB SWAP1 REVERT JUMPDEST PUSH1 0x0 JUMPDEST PUSH1 0x3 SLOAD PUSH1 0xFF AND DUP2 LT ISZERO PUSH2 0x238 JUMPI PUSH1 0x40 MLOAD PUSH12 0xFFFFFFFFFFFFFFFFFFFFFFFF NOT PUSH1 0x60 DUP6 SWAP1 SHL AND PUSH1 0x20 DUP3 ADD MSTORE PUSH1 0x34 DUP2 ADD DUP3 SWAP1 MSTORE PUSH1 0x0 SWAP1 PUSH2 0x100 SWAP1 PUSH1 0x54 ADD PUSH1 0x40 MLOAD PUSH1 0x20 DUP2 DUP4 SUB SUB DUP2 MSTORE SWAP1 PUSH1 0x40 MSTORE DUP1 MLOAD SWAP1 PUSH1 0x20 ADD KECCAK256 PUSH1 0x0 SHR PUSH2 0x1CD SWAP2 SWAP1 PUSH2 0xB2A JUMP JUMPDEST SWAP1 POP PUSH2 0x100 DUP2 LT PUSH2 0x212 JUMPI PUSH1 0x40 MLOAD PUSH3 0x461BCD PUSH1 0xE5 SHL DUP2 MSTORE PUSH1 0x20 PUSH1 0x4 DUP3 ADD MSTORE PUSH1 0xF PUSH1 0x24 DUP3 ADD MSTORE PUSH15 0x4F766572666C6F77204572726F7221 PUSH1 0x88 SHL PUSH1 0x44 DUP3 ADD MSTORE PUSH1 0x64 ADD PUSH2 0x164 JUMP JUMPDEST PUSH1 0x2 SLOAD PUSH1 0x1 DUP3 SHL SWAP1 DUP2 AND PUSH1 0x0 SUB PUSH2 0x22E JUMPI POP PUSH1 0x0 SWAP5 SWAP4 POP POP POP POP JUMP JUMPDEST POP POP PUSH1 0x1 ADD PUSH2 0x170 JUMP JUMPDEST POP PUSH1 0x1 SWAP3 SWAP2 POP POP JUMP JUMPDEST CALLER PUSH1 0x0 SWAP1 DUP2 MSTORE PUSH1 0x20 DUP2 SWAP1 MSTORE PUSH1 0x40 SWAP1 KECCAK256 SLOAD PUSH1 0xFF AND ISZERO ISZERO PUSH1 0x1 EQ PUSH2 0x275 JUMPI PUSH1 0x40 MLOAD PUSH3 0x461BCD PUSH1 0xE5 SHL DUP2 MSTORE PUSH1 0x4 ADD PUSH2 0x164 SWAP1 PUSH2 0xB4C JUMP JUMPDEST PUSH1 0x1 PUSH1 0x1 PUSH1 0xA0 SHL SUB AND PUSH1 0x0 SWAP1 DUP2 MSTORE PUSH1 0x20 DUP2 SWAP1 MSTORE PUSH1 0x40 SWAP1 KECCAK256 DUP1 SLOAD PUSH1 0xFF NOT AND PUSH1 0x1 OR SWAP1 SSTORE JUMP JUMPDEST PUSH1 0x4 PUSH1 0x20 MSTORE PUSH1 0x0 SWAP1 DUP2 MSTORE PUSH1 0x40 SWAP1 KECCAK256 DUP1 SLOAD PUSH1 0x1 DUP3 ADD DUP1 SLOAD PUSH1 0xFF SWAP1 SWAP3 AND SWAP3 SWAP2 PUSH2 0x2BF SWAP1 PUSH2 0xB83 JUMP JUMPDEST DUP1 PUSH1 0x1F ADD PUSH1 0x20 DUP1 SWAP2 DIV MUL PUSH1 0x20 ADD PUSH1 0x40 MLOAD SWAP1 DUP2 ADD PUSH1 0x40 MSTORE DUP1 SWAP3 SWAP2 SWAP1 DUP2 DUP2 MSTORE PUSH1 0x20 ADD DUP3 DUP1 SLOAD PUSH2 0x2EB SWAP1 PUSH2 0xB83 JUMP JUMPDEST DUP1 ISZERO PUSH2 0x338 JUMPI DUP1 PUSH1 0x1F LT PUSH2 0x30D JUMPI PUSH2 0x100 DUP1 DUP4 SLOAD DIV MUL DUP4 MSTORE SWAP2 PUSH1 0x20 ADD SWAP2 PUSH2 0x338 JUMP JUMPDEST DUP3 ADD SWAP2 SWAP1 PUSH1 0x0 MSTORE PUSH1 0x20 PUSH1 0x0 KECCAK256 SWAP1 JUMPDEST DUP2 SLOAD DUP2 MSTORE SWAP1 PUSH1 0x1 ADD SWAP1 PUSH1 0x20 ADD DUP1 DUP4 GT PUSH2 0x31B JUMPI DUP3 SWAP1 SUB PUSH1 0x1F AND DUP3 ADD SWAP2 JUMPDEST POP POP POP POP PUSH1 0x2 DUP4 ADD SLOAD PUSH1 0x3 DUP5 ADD SLOAD PUSH1 0x4 DUP6 ADD SLOAD PUSH1 0x5 SWAP1 SWAP6 ADD SLOAD SWAP4 SWAP5 SWAP2 SWAP4 SWAP1 SWAP3 POP PUSH1 0xFF DUP1 DUP4 AND SWAP3 PUSH2 0x100 SWAP1 DIV AND SWAP1 DUP8 JUMP JUMPDEST CALLER PUSH1 0x0 SWAP1 DUP2 MSTORE PUSH1 0x20 DUP2 SWAP1 MSTORE PUSH1 0x40 SWAP1 KECCAK256 SLOAD PUSH1 0xFF AND ISZERO ISZERO PUSH1 0x1 EQ PUSH2 0x39C JUMPI PUSH1 0x40 MLOAD PUSH3 0x461BCD PUSH1 0xE5 SHL DUP2 MSTORE PUSH1 0x4 ADD PUSH2 0x164 SWAP1 PUSH2 0xB4C JUMP JUMPDEST PUSH1 0x1 DUP1 SLOAD SWAP1 PUSH1 0x0 PUSH2 0x3AC DUP4 PUSH2 0xBBD JUMP JUMPDEST SWAP1 SWAP2 SSTORE POP POP PUSH1 0x1 PUSH1 0x1 PUSH1 0xA0 SHL SUB DUP6 AND PUSH1 0x0 SWAP1 DUP2 MSTORE PUSH1 0x4 PUSH1 0x20 MSTORE PUSH1 0x40 SWAP1 KECCAK256 DUP1 SLOAD PUSH1 0xFF NOT AND DUP2 SSTORE PUSH1 0x1 ADD PUSH2 0x3DE DUP6 DUP3 PUSH2 0xC33 JUMP JUMPDEST POP PUSH1 0x1 PUSH1 0x1 PUSH1 0xA0 SHL SUB DUP6 AND PUSH1 0x0 SWAP1 DUP2 MSTORE PUSH1 0x4 PUSH1 0x20 DUP2 SWAP1 MSTORE PUSH1 0x40 SWAP1 SWAP2 KECCAK256 TIMESTAMP PUSH1 0x2 DUP3 ADD SSTORE PUSH1 0x3 DUP1 DUP3 ADD DUP7 SWAP1 SSTORE SWAP2 ADD DUP1 SLOAD DUP5 SWAP3 PUSH1 0xFF NOT SWAP1 SWAP2 AND SWAP1 PUSH1 0x1 SWAP1 DUP5 SWAP1 DUP2 GT ISZERO PUSH2 0x429 JUMPI PUSH2 0x429 PUSH2 0x887 JUMP JUMPDEST MUL OR SWAP1 SSTORE POP PUSH1 0x1 PUSH1 0x1 PUSH1 0xA0 SHL SUB DUP6 AND PUSH1 0x0 SWAP1 DUP2 MSTORE PUSH1 0x4 PUSH1 0x20 DUP2 SWAP1 MSTORE PUSH1 0x40 SWAP1 SWAP2 KECCAK256 ADD DUP1 SLOAD DUP3 SWAP2 SWAP1 PUSH2 0xFF00 NOT AND PUSH2 0x100 DUP4 PUSH1 0x2 DUP2 GT ISZERO PUSH2 0x469 JUMPI PUSH2 0x469 PUSH2 0x887 JUMP JUMPDEST MUL OR SWAP1 SSTORE POP PUSH1 0x1 PUSH1 0x1 PUSH1 0xA0 SHL SUB DUP6 AND PUSH1 0x0 SWAP1 DUP2 MSTORE PUSH1 0x4 PUSH1 0x20 MSTORE PUSH1 0x40 SWAP1 KECCAK256 TIMESTAMP PUSH1 0x5 SWAP1 SWAP2 ADD SSTORE PUSH2 0x496 DUP6 PUSH2 0x73B JUMP JUMPDEST PUSH1 0x1 PUSH1 0x1 PUSH1 0xA0 SHL SUB DUP6 AND PUSH1 0x0 SWAP1 DUP2 MSTORE PUSH1 0x4 PUSH1 0x20 MSTORE PUSH1 0x40 SWAP1 DUP2 SWAP1 KECCAK256 SWAP1 MLOAD PUSH32 0x1683CC50AC1A71A8F4DAD75963C1D06C991028AC82A87FC59580114A45A7930A SWAP2 PUSH2 0x4E3 SWAP2 DUP9 SWAP2 PUSH1 0x1 ADD SWAP1 PUSH2 0xCF2 JUMP JUMPDEST PUSH1 0x40 MLOAD DUP1 SWAP2 SUB SWAP1 LOG1 POP POP POP POP POP JUMP JUMPDEST CALLER PUSH1 0x0 SWAP1 DUP2 MSTORE PUSH1 0x20 DUP2 SWAP1 MSTORE PUSH1 0x40 SWAP1 KECCAK256 SLOAD PUSH1 0xFF AND ISZERO ISZERO PUSH1 0x1 EQ PUSH2 0x526 JUMPI PUSH1 0x40 MLOAD PUSH3 0x461BCD PUSH1 0xE5 SHL DUP2 MSTORE PUSH1 0x4 ADD PUSH2 0x164 SWAP1 PUSH2 0xB4C JUMP JUMPDEST DUP7 PUSH1 0x0 PUSH1 0x1 PUSH1 0x1 PUSH1 0xA0 SHL SUB DUP3 AND PUSH1 0x0 SWAP1 DUP2 MSTORE PUSH1 0x4 PUSH1 0x20 MSTORE PUSH1 0x40 SWAP1 KECCAK256 SLOAD PUSH1 0xFF AND PUSH1 0x2 DUP2 GT ISZERO PUSH2 0x556 JUMPI PUSH2 0x556 PUSH2 0x887 JUMP JUMPDEST EQ PUSH2 0x5A3 JUMPI PUSH1 0x40 MLOAD PUSH3 0x461BCD PUSH1 0xE5 SHL DUP2 MSTORE PUSH1 0x20 PUSH1 0x4 DUP3 ADD MSTORE PUSH1 0x1B PUSH1 0x24 DUP3 ADD MSTORE PUSH32 0x4F626A656374207374617465206973206E6F7420616374697665210000000000 PUSH1 0x44 DUP3 ADD MSTORE PUSH1 0x64 ADD PUSH2 0x164 JUMP JUMPDEST DUP7 MLOAD DUP8 SWAP1 ISZERO PUSH2 0x5D3 JUMPI PUSH1 0x1 PUSH1 0x1 PUSH1 0xA0 SHL SUB DUP10 AND PUSH1 0x0 SWAP1 DUP2 MSTORE PUSH1 0x4 PUSH1 0x20 MSTORE PUSH1 0x40 SWAP1 KECCAK256 PUSH1 0x1 ADD PUSH2 0x5D1 DUP10 DUP3 PUSH2 0xC33 JUMP JUMPDEST POP JUMPDEST DUP7 ISZERO PUSH2 0x5F8 JUMPI PUSH1 0x1 PUSH1 0x1 PUSH1 0xA0 SHL SUB DUP10 AND PUSH1 0x0 SWAP1 DUP2 MSTORE PUSH1 0x4 PUSH1 0x20 MSTORE PUSH1 0x40 SWAP1 KECCAK256 PUSH1 0x2 ADD DUP8 SWAP1 SSTORE JUMPDEST DUP6 ISZERO PUSH2 0x61D JUMPI PUSH1 0x1 PUSH1 0x1 PUSH1 0xA0 SHL SUB DUP10 AND PUSH1 0x0 SWAP1 DUP2 MSTORE PUSH1 0x4 PUSH1 0x20 MSTORE PUSH1 0x40 SWAP1 KECCAK256 PUSH1 0x3 ADD DUP7 SWAP1 SSTORE JUMPDEST PUSH1 0x0 DUP6 PUSH1 0x3 DUP2 GT ISZERO PUSH2 0x631 JUMPI PUSH2 0x631 PUSH2 0x887 JUMP JUMPDEST EQ PUSH2 0x675 JUMPI PUSH1 0x1 PUSH1 0x1 PUSH1 0xA0 SHL SUB DUP10 AND PUSH1 0x0 SWAP1 DUP2 MSTORE PUSH1 0x4 PUSH1 0x20 DUP2 SWAP1 MSTORE PUSH1 0x40 SWAP1 SWAP2 KECCAK256 ADD DUP1 SLOAD DUP7 SWAP2 SWAP1 PUSH1 0xFF NOT AND PUSH1 0x1 DUP4 PUSH1 0x3 DUP2 GT ISZERO PUSH2 0x66F JUMPI PUSH2 0x66F PUSH2 0x887 JUMP JUMPDEST MUL OR SWAP1 SSTORE POP JUMPDEST PUSH1 0x0 DUP5 PUSH1 0x2 DUP2 GT ISZERO PUSH2 0x689 JUMPI PUSH2 0x689 PUSH2 0x887 JUMP JUMPDEST EQ PUSH2 0x6CF JUMPI PUSH1 0x1 PUSH1 0x1 PUSH1 0xA0 SHL SUB DUP10 AND PUSH1 0x0 SWAP1 DUP2 MSTORE PUSH1 0x4 PUSH1 0x20 DUP2 SWAP1 MSTORE PUSH1 0x40 SWAP1 SWAP2 KECCAK256 ADD DUP1 SLOAD DUP6 SWAP2 SWAP1 PUSH2 0xFF00 NOT AND PUSH2 0x100 DUP4 PUSH1 0x2 DUP2 GT ISZERO PUSH2 0x6C9 JUMPI PUSH2 0x6C9 PUSH2 0x887 JUMP JUMPDEST MUL OR SWAP1 SSTORE POP JUMPDEST DUP3 ISZERO PUSH2 0x6F4 JUMPI PUSH1 0x1 PUSH1 0x1 PUSH1 0xA0 SHL SUB DUP10 AND PUSH1 0x0 SWAP1 DUP2 MSTORE PUSH1 0x4 PUSH1 0x20 MSTORE PUSH1 0x40 SWAP1 KECCAK256 PUSH1 0x5 ADD DUP4 SWAP1 SSTORE JUMPDEST PUSH1 0x40 MLOAD PUSH1 0x1 PUSH1 0x1 PUSH1 0xA0 SHL SUB DUP11 AND DUP2 MSTORE PUSH32 0x644798DE72C3890447D568C96AE8781E30DEE9FC66F7E538AA73604943FD05C5 SWAP1 PUSH1 0x20 ADD PUSH1 0x40 MLOAD DUP1 SWAP2 SUB SWAP1 LOG1 POP POP POP POP POP POP POP POP POP JUMP JUMPDEST PUSH1 0x3 SLOAD PUSH1 0xFF AND PUSH2 0x78D JUMPI PUSH1 0x40 MLOAD PUSH3 0x461BCD PUSH1 0xE5 SHL DUP2 MSTORE PUSH1 0x20 PUSH1 0x4 DUP3 ADD MSTORE PUSH1 0x1A PUSH1 0x24 DUP3 ADD MSTORE PUSH32 0x4861736820636F756E742063616E6E6F74206265207A65726F21000000000000 PUSH1 0x44 DUP3 ADD MSTORE PUSH1 0x64 ADD PUSH2 0x164 JUMP JUMPDEST PUSH1 0x0 JUMPDEST PUSH1 0x3 SLOAD PUSH1 0xFF AND DUP2 LT ISZERO PUSH2 0x845 JUMPI PUSH1 0x40 MLOAD PUSH12 0xFFFFFFFFFFFFFFFFFFFFFFFF NOT PUSH1 0x60 DUP5 SWAP1 SHL AND PUSH1 0x20 DUP3 ADD MSTORE PUSH1 0x34 DUP2 ADD DUP3 SWAP1 MSTORE PUSH1 0x0 SWAP1 PUSH2 0x100 SWAP1 PUSH1 0x54 ADD PUSH1 0x40 MLOAD PUSH1 0x20 DUP2 DUP4 SUB SUB DUP2 MSTORE SWAP1 PUSH1 0x40 MSTORE DUP1 MLOAD SWAP1 PUSH1 0x20 ADD KECCAK256 PUSH1 0x0 SHR PUSH2 0x7ED SWAP2 SWAP1 PUSH2 0xB2A JUMP JUMPDEST SWAP1 POP PUSH2 0x100 DUP2 LT PUSH2 0x832 JUMPI PUSH1 0x40 MLOAD PUSH3 0x461BCD PUSH1 0xE5 SHL DUP2 MSTORE PUSH1 0x20 PUSH1 0x4 DUP3 ADD MSTORE PUSH1 0xF PUSH1 0x24 DUP3 ADD MSTORE PUSH15 0x4F766572666C6F77204572726F7221 PUSH1 0x88 SHL PUSH1 0x44 DUP3 ADD MSTORE PUSH1 0x64 ADD PUSH2 0x164 JUMP JUMPDEST PUSH1 0x2 DUP1 SLOAD PUSH1 0x1 SWAP3 DUP4 SWAP1 SHL OR SWAP1 SSTORE ADD PUSH2 0x790 JUMP JUMPDEST POP POP JUMP JUMPDEST DUP1 CALLDATALOAD PUSH1 0x1 PUSH1 0x1 PUSH1 0xA0 SHL SUB DUP2 AND DUP2 EQ PUSH2 0x860 JUMPI PUSH1 0x0 DUP1 REVERT JUMPDEST SWAP2 SWAP1 POP JUMP JUMPDEST PUSH1 0x0 PUSH1 0x20 DUP3 DUP5 SUB SLT ISZERO PUSH2 0x877 JUMPI PUSH1 0x0 DUP1 REVERT JUMPDEST PUSH2 0x880 DUP3 PUSH2 0x849 JUMP JUMPDEST SWAP4 SWAP3 POP POP POP JUMP JUMPDEST PUSH4 0x4E487B71 PUSH1 0xE0 SHL PUSH1 0x0 MSTORE PUSH1 0x21 PUSH1 0x4 MSTORE PUSH1 0x24 PUSH1 0x0 REVERT JUMPDEST PUSH1 0x3 DUP2 LT PUSH2 0x8AD JUMPI PUSH2 0x8AD PUSH2 0x887 JUMP JUMPDEST POP JUMP JUMPDEST PUSH1 0x4 DUP2 LT PUSH2 0x8C0 JUMPI PUSH2 0x8C0 PUSH2 0x887 JUMP JUMPDEST SWAP1 MSTORE JUMP JUMPDEST PUSH2 0x8C0 DUP2 PUSH2 0x89D JUMP JUMPDEST PUSH2 0x8D6 DUP9 PUSH2 0x89D JUMP JUMPDEST DUP8 DUP2 MSTORE PUSH1 0xE0 PUSH1 0x20 DUP3 ADD MSTORE PUSH1 0x0 DUP8 MLOAD DUP1 PUSH1 0xE0 DUP5 ADD MSTORE PUSH1 0x0 JUMPDEST DUP2 DUP2 LT ISZERO PUSH2 0x90B JUMPI PUSH1 0x20 DUP2 DUP12 ADD DUP2 ADD MLOAD PUSH2 0x100 DUP7 DUP5 ADD ADD MSTORE ADD PUSH2 0x8ED JUMP JUMPDEST POP PUSH1 0x0 PUSH2 0x100 DUP3 DUP6 ADD ADD MSTORE PUSH2 0x100 PUSH1 0x1F NOT PUSH1 0x1F DUP4 ADD AND DUP5 ADD ADD SWAP2 POP POP DUP7 PUSH1 0x40 DUP4 ADD MSTORE DUP6 PUSH1 0x60 DUP4 ADD MSTORE PUSH2 0x940 PUSH1 0x80 DUP4 ADD DUP7 PUSH2 0x8B0 JUMP JUMPDEST PUSH2 0x94D PUSH1 0xA0 DUP4 ADD DUP6 PUSH2 0x8C4 JUMP JUMPDEST DUP3 PUSH1 0xC0 DUP4 ADD MSTORE SWAP9 SWAP8 POP POP POP POP POP POP POP POP JUMP JUMPDEST PUSH4 0x4E487B71 PUSH1 0xE0 SHL PUSH1 0x0 MSTORE PUSH1 0x41 PUSH1 0x4 MSTORE PUSH1 0x24 PUSH1 0x0 REVERT JUMPDEST PUSH1 0x0 DUP3 PUSH1 0x1F DUP4 ADD SLT PUSH2 0x986 JUMPI PUSH1 0x0 DUP1 REVERT JUMPDEST DUP2 CALLDATALOAD PUSH8 0xFFFFFFFFFFFFFFFF DUP2 GT ISZERO PUSH2 0x9A0 JUMPI PUSH2 0x9A0 PUSH2 0x95F JUMP JUMPDEST PUSH1 0x40 MLOAD PUSH1 0x1F DUP3 ADD PUSH1 0x1F NOT SWAP1 DUP2 AND PUSH1 0x3F ADD AND DUP2 ADD PUSH8 0xFFFFFFFFFFFFFFFF DUP2 GT DUP3 DUP3 LT OR ISZERO PUSH2 0x9CF JUMPI PUSH2 0x9CF PUSH2 0x95F JUMP JUMPDEST PUSH1 0x40 MSTORE DUP2 DUP2 MSTORE DUP4 DUP3 ADD PUSH1 0x20 ADD DUP6 LT ISZERO PUSH2 0x9E7 JUMPI PUSH1 0x0 DUP1 REVERT JUMPDEST DUP2 PUSH1 0x20 DUP6 ADD PUSH1 0x20 DUP4 ADD CALLDATACOPY PUSH1 0x0 SWAP2 DUP2 ADD PUSH1 0x20 ADD SWAP2 SWAP1 SWAP2 MSTORE SWAP4 SWAP3 POP POP POP JUMP JUMPDEST DUP1 CALLDATALOAD PUSH1 0x4 DUP2 LT PUSH2 0x860 JUMPI PUSH1 0x0 DUP1 REVERT JUMPDEST DUP1 CALLDATALOAD PUSH1 0x3 DUP2 LT PUSH2 0x860 JUMPI PUSH1 0x0 DUP1 REVERT JUMPDEST PUSH1 0x0 DUP1 PUSH1 0x0 DUP1 PUSH1 0x0 PUSH1 0xA0 DUP7 DUP9 SUB SLT ISZERO PUSH2 0xA3A JUMPI PUSH1 0x0 DUP1 REVERT JUMPDEST PUSH2 0xA43 DUP7 PUSH2 0x849 JUMP JUMPDEST SWAP5 POP PUSH1 0x20 DUP7 ADD CALLDATALOAD PUSH8 0xFFFFFFFFFFFFFFFF DUP2 GT ISZERO PUSH2 0xA5F JUMPI PUSH1 0x0 DUP1 REVERT JUMPDEST PUSH2 0xA6B DUP9 DUP3 DUP10 ADD PUSH2 0x975 JUMP JUMPDEST SWAP5 POP POP PUSH1 0x40 DUP7 ADD CALLDATALOAD SWAP3 POP PUSH2 0xA81 PUSH1 0x60 DUP8 ADD PUSH2 0xA04 JUMP JUMPDEST SWAP2 POP PUSH2 0xA8F PUSH1 0x80 DUP8 ADD PUSH2 0xA13 JUMP JUMPDEST SWAP1 POP SWAP3 SWAP6 POP SWAP3 SWAP6 SWAP1 SWAP4 POP JUMP JUMPDEST PUSH1 0x0 DUP1 PUSH1 0x0 DUP1 PUSH1 0x0 DUP1 PUSH1 0x0 PUSH1 0xE0 DUP9 DUP11 SUB SLT ISZERO PUSH2 0xAB6 JUMPI PUSH1 0x0 DUP1 REVERT JUMPDEST PUSH2 0xABF DUP9 PUSH2 0x849 JUMP JUMPDEST SWAP7 POP PUSH1 0x20 DUP9 ADD CALLDATALOAD PUSH8 0xFFFFFFFFFFFFFFFF DUP2 GT ISZERO PUSH2 0xADB JUMPI PUSH1 0x0 DUP1 REVERT JUMPDEST PUSH2 0xAE7 DUP11 DUP3 DUP12 ADD PUSH2 0x975 JUMP JUMPDEST SWAP7 POP POP PUSH1 0x40 DUP9 ADD CALLDATALOAD SWAP5 POP PUSH1 0x60 DUP9 ADD CALLDATALOAD SWAP4 POP PUSH2 0xB04 PUSH1 0x80 DUP10 ADD PUSH2 0xA04 JUMP JUMPDEST SWAP3 POP PUSH2 0xB12 PUSH1 0xA0 DUP10 ADD PUSH2 0xA13 JUMP JUMPDEST SWAP7 SWAP10 SWAP6 SWAP9 POP SWAP4 SWAP7 SWAP3 SWAP6 SWAP2 SWAP5 SWAP2 SWAP4 POP POP PUSH1 0xC0 SWAP1 SWAP2 ADD CALLDATALOAD SWAP1 JUMP JUMPDEST PUSH1 0x0 DUP3 PUSH2 0xB47 JUMPI PUSH4 0x4E487B71 PUSH1 0xE0 SHL PUSH1 0x0 MSTORE PUSH1 0x12 PUSH1 0x4 MSTORE PUSH1 0x24 PUSH1 0x0 REVERT JUMPDEST POP MOD SWAP1 JUMP JUMPDEST PUSH1 0x20 DUP1 DUP3 MSTORE PUSH1 0x1B SWAP1 DUP3 ADD MSTORE PUSH32 0x53656E646572206973206E6F7420616E20617574686F726974792E0000000000 PUSH1 0x40 DUP3 ADD MSTORE PUSH1 0x60 ADD SWAP1 JUMP JUMPDEST PUSH1 0x1 DUP2 DUP2 SHR SWAP1 DUP3 AND DUP1 PUSH2 0xB97 JUMPI PUSH1 0x7F DUP3 AND SWAP2 POP JUMPDEST PUSH1 0x20 DUP3 LT DUP2 SUB PUSH2 0xBB7 JUMPI PUSH4 0x4E487B71 PUSH1 0xE0 SHL PUSH1 0x0 MSTORE PUSH1 0x22 PUSH1 0x4 MSTORE PUSH1 0x24 PUSH1 0x0 REVERT JUMPDEST POP SWAP2 SWAP1 POP JUMP JUMPDEST PUSH1 0x0 PUSH1 0x1 DUP3 ADD PUSH2 0xBDD JUMPI PUSH4 0x4E487B71 PUSH1 0xE0 SHL PUSH1 0x0 MSTORE PUSH1 0x11 PUSH1 0x4 MSTORE PUSH1 0x24 PUSH1 0x0 REVERT JUMPDEST POP PUSH1 0x1 ADD SWAP1 JUMP JUMPDEST PUSH1 0x1F DUP3 GT ISZERO PUSH2 0xC2E JUMPI DUP1 PUSH1 0x0 MSTORE PUSH1 0x20 PUSH1 0x0 KECCAK256 PUSH1 0x1F DUP5 ADD PUSH1 0x5 SHR DUP2 ADD PUSH1 0x20 DUP6 LT ISZERO PUSH2 0xC0B JUMPI POP DUP1 JUMPDEST PUSH1 0x1F DUP5 ADD PUSH1 0x5 SHR DUP3 ADD SWAP2 POP JUMPDEST DUP2 DUP2 LT ISZERO PUSH2 0xC2B JUMPI PUSH1 0x0 DUP2 SSTORE PUSH1 0x1 ADD PUSH2 0xC17 JUMP JUMPDEST POP POP JUMPDEST POP POP POP JUMP JUMPDEST DUP2 MLOAD PUSH8 0xFFFFFFFFFFFFFFFF DUP2 GT ISZERO PUSH2 0xC4D JUMPI PUSH2 0xC4D PUSH2 0x95F JUMP JUMPDEST PUSH2 0xC61 DUP2 PUSH2 0xC5B DUP5 SLOAD PUSH2 0xB83 JUMP JUMPDEST DUP5 PUSH2 0xBE4 JUMP JUMPDEST PUSH1 0x20 PUSH1 0x1F DUP3 GT PUSH1 0x1 DUP2 EQ PUSH2 0xC95 JUMPI PUSH1 0x0 DUP4 ISZERO PUSH2 0xC7D JUMPI POP DUP5 DUP3 ADD MLOAD JUMPDEST PUSH1 0x0 NOT PUSH1 0x3 DUP6 SWAP1 SHL SHR NOT AND PUSH1 0x1 DUP5 SWAP1 SHL OR DUP5 SSTORE PUSH2 0xC2B JUMP JUMPDEST PUSH1 0x0 DUP5 DUP2 MSTORE PUSH1 0x20 DUP2 KECCAK256 PUSH1 0x1F NOT DUP6 AND SWAP2 JUMPDEST DUP3 DUP2 LT ISZERO PUSH2 0xCC5 JUMPI DUP8 DUP6 ADD MLOAD DUP3 SSTORE PUSH1 0x20 SWAP5 DUP6 ADD SWAP5 PUSH1 0x1 SWAP1 SWAP3 ADD SWAP2 ADD PUSH2 0xCA5 JUMP JUMPDEST POP DUP5 DUP3 LT ISZERO PUSH2 0xCE3 JUMPI DUP7 DUP5 ADD MLOAD PUSH1 0x0 NOT PUSH1 0x3 DUP8 SWAP1 SHL PUSH1 0xF8 AND SHR NOT AND DUP2 SSTORE JUMPDEST POP POP POP POP PUSH1 0x1 SWAP1 DUP2 SHL ADD SWAP1 SSTORE POP JUMP JUMPDEST PUSH1 0x1 PUSH1 0x1 PUSH1 0xA0 SHL SUB DUP4 AND DUP2 MSTORE PUSH1 0x40 PUSH1 0x20 DUP3 ADD MSTORE DUP2 SLOAD PUSH1 0x0 SWAP1 DUP2 SWAP1 PUSH2 0xD15 DUP2 PUSH2 0xB83 JUMP JUMPDEST DUP1 PUSH1 0x40 DUP7 ADD MSTORE PUSH1 0x1 DUP3 AND PUSH1 0x0 DUP2 EQ PUSH2 0xD34 JUMPI PUSH1 0x1 DUP2 EQ PUSH2 0xD50 JUMPI PUSH2 0xD84 JUMP JUMPDEST PUSH1 0xFF NOT DUP4 AND PUSH1 0x60 DUP8 ADD MSTORE PUSH1 0x60 DUP3 ISZERO ISZERO PUSH1 0x5 SHL DUP8 ADD ADD SWAP4 POP PUSH2 0xD84 JUMP JUMPDEST DUP7 PUSH1 0x0 MSTORE PUSH1 0x20 PUSH1 0x0 KECCAK256 PUSH1 0x0 JUMPDEST DUP4 DUP2 LT ISZERO PUSH2 0xD7B JUMPI DUP2 SLOAD DUP9 DUP3 ADD PUSH1 0x60 ADD MSTORE PUSH1 0x1 SWAP1 SWAP2 ADD SWAP1 PUSH1 0x20 ADD PUSH2 0xD5C JUMP JUMPDEST DUP8 ADD PUSH1 0x60 ADD SWAP5 POP POP JUMPDEST POP SWAP2 SWAP7 SWAP6 POP POP POP POP POP POP JUMP INVALID LOG2 PUSH5 0x6970667358 0x22 SLT KECCAK256 PC POP EXTCODESIZE 0xF9 0xCB AND 0xE1 EXTCODEHASH 0xBB 0x4E 0xB4 MSTORE 0xC5 0xDE SWAP4 0xCA 0x4D PUSH15 0xC356333E9B4AA5358B3B011E73EC64 PUSH20 0x6F6C634300081A00330000000000000000000000 ","sha1":"dba0d705232a404dbaf7b6d0fa6ef5764a38e624","source":"// SPDX-License-Identifier: UNLICENSED\npragma solidity ^0.8.17;\nimport \"contracts/Device.sol\";\ncontract SubjectAttribute {\n\n    struct Subject {\n        Device.State state;\n        string name; // type of the device\n        uint age; // Number of days since the device was first registered\n        uint trust; // 1 to 10\n        Device.Category category; \n        Device.Zone zone; // Location\n        uint256 lastUpdated; //lastime send request\n    }\n    struct BloomFilter{\n        uint256 bitmap;\n        uint8 hash_count;\n    }\n    \n    // VARIABLES\n    mapping(address => bool) public authorities;\n    uint256 num_subjects;\n    BloomFilter filter;\n    mapping (address => Subject) public subjects;\n    constructor() {\n        authorities[msg.sender] = true;\n        num_subjects = 0;\n        filter.bitmap = 0;\n        filter.hash_count = 5;\n    }\n\n    event NewSubjectAdded(address sub_addr, string sub);\n    event SubjectChanged(address sub_addr);\n        // Modifier\n    //Authorities Only\n    modifier authorities_only(){\n        require(authorities[msg.sender] == true, \"Sender is not an authority.\");\n        _;\n    }\n\n    modifier sub_active(address sub_addr){\n        require(subjects[sub_addr].state == Device.State.Active, \"Object state is not active!\");\n        _;\n    }\n\n    function addAuthority(address authority) public authorities_only() {\n        authorities[authority] = true;\n    }\n    function add_subject (\n        address sub_addr,         \n        string memory name, // type of the device\n        uint trust, // 1 to 10\n        Device.Category category, \n        Device.Zone zone // Location\n        ) public authorities_only() {\n\n        num_subjects++;\n        subjects[sub_addr].state = Device.State.Active;\n        //Subject Attributes:\n        subjects[sub_addr].name = name;\n        subjects[sub_addr].age = block.timestamp;\n        subjects[sub_addr].trust = trust;\n        subjects[sub_addr].category = category;\n        subjects[sub_addr].zone = zone;\n        subjects[sub_addr].lastUpdated = block.timestamp;\n\n        add_bitmap(sub_addr);\n\n        emit NewSubjectAdded(sub_addr, subjects[sub_addr].name);\n    }\n\n    // Adds a subject to bloom filter\n    // By default hash_count is 5 in constructor\n    // hash_count is number of times the sub_addr gets hashed\n    function add_bitmap( /**SUBJECT ID**/address sub_addr )\n    /**MODIFIERS**/\n        internal\n    {\n        require(filter.hash_count > 0, \"Hash count cannot be zero!\");\n        for(uint i = 0; i < filter.hash_count; i++) {\n            uint256 index = uint256(keccak256(abi.encodePacked(sub_addr, i))) % 256;\n            require(index < 256, \"Overflow Error!\");\n            uint256 bit_place = 1 << index;\n            filter.bitmap = filter.bitmap | bit_place;\n        }\n    }\n\n     // Check the sub_addr with the existing bloom filter\n    // to see if sub_addr exists.\n    // Returns true if sub_addr may exist\n    // Returns false if sub_addr definitely doesn't exist\n    function check_bitmap( /**SUBJECT ID**/ address sub_addr )/**MODIFIERS**/external view returns(bool)\n    {\n        require(filter.hash_count > 0, \"Hash count cannot be zero\");\n        for(uint256 i = 0; i < filter.hash_count; i++){\n            uint256 index = uint256(keccak256(abi.encodePacked(sub_addr, i))) % 256;\n            require(index < 256, \"Overflow Error!\");\n            uint256 bit_place = 1 << index;\n            if((filter.bitmap & bit_place) == 0) return false;\n        }\n        return true;\n    }\n\n    // Changes the attributes of a subject\n    // If attribute are blank \"\" skip to next attribute (no change done)\n    // Note: Cannot set any attribute to empty string (blank)\n    // Emits SubjectChanged event\n    function change_attribs( \n        address sub_addr,         \n        string memory name, // type of the device\n        uint age, // Number of days since the device was first registered\n        uint trust, // 1 to 10\n        Device.Category category, \n        Device.Zone zone, // Location\n        uint lastUpdated //lastime send request\n         )  /**MODIFIERS**/ public authorities_only()  sub_active(sub_addr){\n        bytes memory empty_test = bytes(name);  \n        if (empty_test.length != 0) subjects[sub_addr].name = name;\n        if (age != 0) subjects[sub_addr].age = age;\n        if (trust != 0) subjects[sub_addr].trust = trust;\n        if (category != Device.Category.Security) subjects[sub_addr].category = category;\n        if (zone != Device.Zone.Zone1) subjects[sub_addr].zone = zone; \n        if (lastUpdated != 0) subjects[sub_addr].lastUpdated = lastUpdated;\n        \n        emit SubjectChanged(sub_addr);\n\n    }\n}\n\n\n\n\n    \n\n        \n    \n","sourcePath":"contracts/SubjectAttribute.sol","type":"contract","deployment":{"address":"0xc84484024192D5e61083E563656E3dc3F5246036","chainid":"5777","blockHeight":2}}