{"abi":[{"inputs":[],"stateMutability":"nonpayable","type":"constructor","name":"constructor"},{"anonymous":false,"inputs":[{"indexed":false,"internalType":"address","name":"obj_addr","type":"address"},{"indexed":false,"internalType":"string","name":"name","type":"string"}],"name":"NewObjectAdded","type":"event"},{"anonymous":false,"inputs":[{"indexed":false,"internalType":"address","name":"sub_addr","type":"address"},{"indexed":false,"internalType":"string","name":"name","type":"string"}],"name":"ObjectChanged","type":"event"},{"inputs":[{"internalType":"address","name":"authority","type":"address"}],"name":"addAuthority","outputs":[],"stateMutability":"nonpayable","type":"function"},{"inputs":[{"internalType":"address","name":"obj_addr","type":"address"},{"internalType":"string","name":"name","type":"string"},{"internalType":"uint256","name":"trust","type":"uint256"},{"internalType":"enum Device.Category","name":"category","type":"uint8"},{"internalType":"enum Device.Zone","name":"zone","type":"uint8"}],"name":"add_object","outputs":[],"stateMutability":"nonpayable","type":"function"},{"inputs":[{"internalType":"address","name":"","type":"address"}],"name":"authorities","outputs":[{"internalType":"bool","name":"","type":"bool"}],"stateMutability":"view","type":"function"},{"inputs":[{"internalType":"address","name":"obj_addr","type":"address"},{"internalType":"string","name":"name","type":"string"},{"internalType":"uint256","name":"age","type":"uint256"},{"internalType":"uint256","name":"trust","type":"uint256"},{"internalType":"enum Device.Category","name":"category","type":"uint8"},{"internalType":"enum Device.Zone","name":"zone","type":"uint8"}],"name":"change_attribs","outputs":[],"stateMutability":"nonpayable","type":"function"},{"inputs":[{"internalType":"address","name":"obj_addr","type":"address"}],"name":"check_bitmap","outputs":[{"internalType":"bool","name":"","type":"bool"}],"stateMutability":"view","type":"function"},{"inputs":[{"internalType":"address","name":"","type":"address"}],"name":"objects","outputs":[{"internalType":"enum Device.State","name":"state","type":"uint8"},{"internalType":"string","name":"name","type":"string"},{"internalType":"uint256","name":"age","type":"uint256"},{"internalType":"uint256","name":"trust","type":"uint256"},{"internalType":"enum Device.Category","name":"category","type":"uint8"},{"internalType":"enum Device.Zone","name":"zone","type":"uint8"}],"stateMutability":"view","type":"function"},{"inputs":[{"internalType":"address","name":"obj_addr","type":"address"},{"internalType":"enum Device.State","name":"_state","type":"uint8"}],"name":"set_object_state","outputs":[],"stateMutability":"nonpayable","type":"function"}],"bytecode":"6080604052348015600f57600080fd5b50336000908152602081905260408120805460ff19908116600190811790925590829055600291909155600380549091166005179055610e55806100546000396000f3fe608060405234801561001057600080fd5b506004361061007d5760003560e01c806391223d691161005b57806391223d69146100e4578063a1775d0514610107578063ce6548691461011a578063f33becd51461012d57600080fd5b806304b418e21461008257806326defa73146100aa578063770285ae146100bf575b600080fd5b6100956100903660046108cf565b610140565b60405190151581526020015b60405180910390f35b6100bd6100b83660046108cf565b61026e565b005b6100d26100cd3660046108cf565b6102c6565b6040516100a196959493929190610937565b6100956100f23660046108cf565b60006020819052908152604090205460ff1681565b6100bd610115366004610a80565b61038f565b6100bd610128366004610b05565b6105c9565b6100bd61013b366004610b82565b610733565b60035460009060ff1661019a5760405162461bcd60e51b815260206004820152601960248201527f4861736820636f756e742063616e6e6f74206265207a65726f0000000000000060448201526064015b60405180910390fd5b60005b60035460ff16811015610265576040516bffffffffffffffffffffffff19606085901b16602082015260348101829052600090610100906054016040516020818303038152906040528051906020012060001c6101fa9190610bb9565b9050610100811061023f5760405162461bcd60e51b815260206004820152600f60248201526e4f766572666c6f77204572726f722160881b6044820152606401610191565b6002546001821b90811660000361025b57506000949350505050565b505060010161019d565b50600192915050565b3360009081526020819052604090205460ff1615156001146102a25760405162461bcd60e51b815260040161019190610bdb565b6001600160a01b03166000908152602081905260409020805460ff19166001179055565b6005602052600090815260409020805460018201805460ff90921692916102ec90610c12565b80601f016020809104026020016040519081016040528092919081815260200182805461031890610c12565b80156103655780601f1061033a57610100808354040283529160200191610365565b820191906000526020600020905b81548152906001019060200180831161034857829003601f168201915b50505050600283015460038401546004909401549293909290915060ff8082169161010090041686565b3360009081526020819052604090205460ff1615156001146103c35760405162461bcd60e51b815260040161019190610bdb565b8560006001600160a01b03821660009081526005602052604090205460ff1660028111156103f3576103f36108f1565b146104405760405162461bcd60e51b815260206004820152601c60248201527f4f626a65637420737461746565206973206e6f742061637469766521000000006044820152606401610191565b8551869015610470576001600160a01b038816600090815260056020526040902060010161046e8882610c9b565b505b8515610495576001600160a01b03881660009081526005602052604090206002018690555b84156104ba576001600160a01b03881660009081526005602052604090206003018590555b60008460038111156104ce576104ce6108f1565b14610511576001600160a01b0388166000908152600560205260409020600401805485919060ff1916600183600381111561050b5761050b6108f1565b02179055505b6000836002811115610525576105256108f1565b1461056a576001600160a01b0388166000908152600560205260409020600401805484919061ff001916610100836002811115610564576105646108f1565b02179055505b6001600160a01b0388166000908152600560205260409081902090517f05d4af0052c23727f02f7b57bc1d07977666cce9e5628db0c182e3eddfe80d5e916105b7918b9160010190610d5a565b60405180910390a15050505050505050565b3360009081526020819052604090205460ff1615156001146105fd5760405162461bcd60e51b815260040161019190610bdb565b6001805490600061060d83610df8565b90915550506001600160a01b0385166000908152600560205260409020805460ff1916815560010161063f8582610c9b565b506001600160a01b0385166000908152600560205260409020426002820155600380820185905560049091018054849260ff1990911690600190849081111561068a5761068a6108f1565b02179055506001600160a01b0385166000908152600560205260409020600401805482919061ff0019166101008360028111156106c9576106c96108f1565b02179055506106d7856107a5565b6001600160a01b0385166000908152600560205260409081902090517fd7b10ab0017531ed21de18ef1e05292bd4b21c621fe18ee7ccb5c17bec4c8b869161072491889160010190610d5a565b60405180910390a15050505050565b3360009081526020819052604090205460ff1615156001146107675760405162461bcd60e51b815260040161019190610bdb565b6001600160a01b0382166000908152600560205260409020805482919060ff1916600183600281111561079c5761079c6108f1565b02179055505050565b60035460ff166107f75760405162461bcd60e51b815260206004820152601a60248201527f4861736820636f756e742063616e6e6f74206265207a65726f210000000000006044820152606401610191565b60005b60035460ff168110156108af576040516bffffffffffffffffffffffff19606084901b16602082015260348101829052600090610100906054016040516020818303038152906040528051906020012060001c6108579190610bb9565b9050610100811061089c5760405162461bcd60e51b815260206004820152600f60248201526e4f766572666c6f77204572726f722160881b6044820152606401610191565b6002805460019283901b179055016107fa565b5050565b80356001600160a01b03811681146108ca57600080fd5b919050565b6000602082840312156108e157600080fd5b6108ea826108b3565b9392505050565b634e487b7160e01b600052602160045260246000fd5b60038110610917576109176108f1565b50565b6004811061092a5761092a6108f1565b9052565b61092a81610907565b61094087610907565b86815260c06020820152600086518060c084015260005b81811015610974576020818a0181015160e0868401015201610957565b50600060e0828501015260e0601f19601f8301168401019150508560408301528460608301526109a7608083018561091a565b6109b460a083018461092e565b979650505050505050565b634e487b7160e01b600052604160045260246000fd5b600082601f8301126109e657600080fd5b813567ffffffffffffffff811115610a0057610a006109bf565b604051601f8201601f19908116603f0116810167ffffffffffffffff81118282101715610a2f57610a2f6109bf565b604052818152838201602001851015610a4757600080fd5b816020850160208301376000918101602001919091529392505050565b8035600481106108ca57600080fd5b6003811061091757600080fd5b60008060008060008060c08789031215610a9957600080fd5b610aa2876108b3565b9550602087013567ffffffffffffffff811115610abe57600080fd5b610aca89828a016109d5565b9550506040870135935060608701359250610ae760808801610a64565b915060a0870135610af781610a73565b809150509295509295509295565b600080600080600060a08688031215610b1d57600080fd5b610b26866108b3565b9450602086013567ffffffffffffffff811115610b4257600080fd5b610b4e888289016109d5565b94505060408601359250610b6460608701610a64565b91506080860135610b7481610a73565b809150509295509295909350565b60008060408385031215610b9557600080fd5b610b9e836108b3565b91506020830135610bae81610a73565b809150509250929050565b600082610bd657634e487b7160e01b600052601260045260246000fd5b500690565b6020808252601b908201527f53656e646572206973206e6f7420616e20617574686f726974792e0000000000604082015260600190565b600181811c90821680610c2657607f821691505b602082108103610c4657634e487b7160e01b600052602260045260246000fd5b50919050565b601f821115610c9657806000526020600020601f840160051c81016020851015610c735750805b601f840160051c820191505b81811015610c935760008155600101610c7f565b50505b505050565b815167ffffffffffffffff811115610cb557610cb56109bf565b610cc981610cc38454610c12565b84610c4c565b6020601f821160018114610cfd5760008315610ce55750848201515b600019600385901b1c1916600184901b178455610c93565b600084815260208120601f198516915b82811015610d2d5787850151825560209485019460019092019101610d0d565b5084821015610d4b5786840151600019600387901b60f8161c191681555b50505050600190811b01905550565b6001600160a01b03831681526040602082015281546000908190610d7d81610c12565b8060408601526001821660008114610d9c5760018114610db857610dec565b60ff1983166060870152606082151560051b8701019350610dec565b86600052602060002060005b83811015610de357815488820160600152600190910190602001610dc4565b87016060019450505b50919695505050505050565b600060018201610e1857634e487b7160e01b600052601160045260246000fd5b506001019056fea264697066735822122045aa1ff8f7a656ee450cf8218e3b250d17ac31152683ee0e25fb07483c97b2eb64736f6c634300081a0033","bytecodeSha1":"e11993ee58ed86c036bab1f670dd406480626220","compiler":{"evm_version":"istanbul","optimizer":{"enabled":true,"runs":200},"version":"0.8.26+commit.8a97fa7a"},"contractName":"ObjectAttribute","language":"Solidity","natspec":{"kind":"dev","methods":{},"version":1},"opcodes":"PUSH1 0x80 PUSH1 0x40 MSTORE CALLVALUE DUP1 ISZERO PUSH2 0x10 JUMPI PUSH1 0x0 DUP1 REVERT JUMPDEST POP PUSH1 0x4 CALLDATASIZE LT PUSH2 0x7D JUMPI PUSH1 0x0 CALLDATALOAD PUSH1 0xE0 SHR DUP1 PUSH4 0x91223D69 GT PUSH2 0x5B JUMPI DUP1 PUSH4 0x91223D69 EQ PUSH2 0xE4 JUMPI DUP1 PUSH4 0xA1775D05 EQ PUSH2 0x107 JUMPI DUP1 PUSH4 0xCE654869 EQ PUSH2 0x11A JUMPI DUP1 PUSH4 0xF33BECD5 EQ PUSH2 0x12D JUMPI PUSH1 0x0 DUP1 REVERT JUMPDEST DUP1 PUSH4 0x4B418E2 EQ PUSH2 0x82 JUMPI DUP1 PUSH4 0x26DEFA73 EQ PUSH2 0xAA JUMPI DUP1 PUSH4 0x770285AE EQ PUSH2 0xBF JUMPI JUMPDEST PUSH1 0x0 DUP1 REVERT JUMPDEST PUSH2 0x95 PUSH2 0x90 CALLDATASIZE PUSH1 0x4 PUSH2 0x8CF JUMP JUMPDEST PUSH2 0x140 JUMP JUMPDEST PUSH1 0x40 MLOAD SWAP1 ISZERO ISZERO DUP2 MSTORE PUSH1 0x20 ADD JUMPDEST PUSH1 0x40 MLOAD DUP1 SWAP2 SUB SWAP1 RETURN JUMPDEST PUSH2 0xBD PUSH2 0xB8 CALLDATASIZE PUSH1 0x4 PUSH2 0x8CF JUMP JUMPDEST PUSH2 0x26E JUMP JUMPDEST STOP JUMPDEST PUSH2 0xD2 PUSH2 0xCD CALLDATASIZE PUSH1 0x4 PUSH2 0x8CF JUMP JUMPDEST PUSH2 0x2C6 JUMP JUMPDEST PUSH1 0x40 MLOAD PUSH2 0xA1 SWAP7 SWAP6 SWAP5 SWAP4 SWAP3 SWAP2 SWAP1 PUSH2 0x937 JUMP JUMPDEST PUSH2 0x95 PUSH2 0xF2 CALLDATASIZE PUSH1 0x4 PUSH2 0x8CF JUMP JUMPDEST PUSH1 0x0 PUSH1 0x20 DUP2 SWAP1 MSTORE SWAP1 DUP2 MSTORE PUSH1 0x40 SWAP1 KECCAK256 SLOAD PUSH1 0xFF AND DUP2 JUMP JUMPDEST PUSH2 0xBD PUSH2 0x115 CALLDATASIZE PUSH1 0x4 PUSH2 0xA80 JUMP JUMPDEST PUSH2 0x38F JUMP JUMPDEST PUSH2 0xBD PUSH2 0x128 CALLDATASIZE PUSH1 0x4 PUSH2 0xB05 JUMP JUMPDEST PUSH2 0x5C9 JUMP JUMPDEST PUSH2 0xBD PUSH2 0x13B CALLDATASIZE PUSH1 0x4 PUSH2 0xB82 JUMP JUMPDEST PUSH2 0x733 JUMP JUMPDEST PUSH1 0x3 SLOAD PUSH1 0x0 SWAP1 PUSH1 0xFF AND PUSH2 0x19A JUMPI PUSH1 0x40 MLOAD PUSH3 0x461BCD PUSH1 0xE5 SHL DUP2 MSTORE PUSH1 0x20 PUSH1 0x4 DUP3 ADD MSTORE PUSH1 0x19 PUSH1 0x24 DUP3 ADD MSTORE PUSH32 0x4861736820636F756E742063616E6E6F74206265207A65726F00000000000000 PUSH1 0x44 DUP3 ADD MSTORE PUSH1 0x64 ADD JUMPDEST PUSH1 0x40 MLOAD DUP1 SWAP2 SUB SWAP1 REVERT JUMPDEST PUSH1 0x0 JUMPDEST PUSH1 0x3 SLOAD PUSH1 0xFF AND DUP2 LT ISZERO PUSH2 0x265 JUMPI PUSH1 0x40 MLOAD PUSH12 0xFFFFFFFFFFFFFFFFFFFFFFFF NOT PUSH1 0x60 DUP6 SWAP1 SHL AND PUSH1 0x20 DUP3 ADD MSTORE PUSH1 0x34 DUP2 ADD DUP3 SWAP1 MSTORE PUSH1 0x0 SWAP1 PUSH2 0x100 SWAP1 PUSH1 0x54 ADD PUSH1 0x40 MLOAD PUSH1 0x20 DUP2 DUP4 SUB SUB DUP2 MSTORE SWAP1 PUSH1 0x40 MSTORE DUP1 MLOAD SWAP1 PUSH1 0x20 ADD KECCAK256 PUSH1 0x0 SHR PUSH2 0x1FA SWAP2 SWAP1 PUSH2 0xBB9 JUMP JUMPDEST SWAP1 POP PUSH2 0x100 DUP2 LT PUSH2 0x23F JUMPI PUSH1 0x40 MLOAD PUSH3 0x461BCD PUSH1 0xE5 SHL DUP2 MSTORE PUSH1 0x20 PUSH1 0x4 DUP3 ADD MSTORE PUSH1 0xF PUSH1 0x24 DUP3 ADD MSTORE PUSH15 0x4F766572666C6F77204572726F7221 PUSH1 0x88 SHL PUSH1 0x44 DUP3 ADD MSTORE PUSH1 0x64 ADD PUSH2 0x191 JUMP JUMPDEST PUSH1 0x2 SLOAD PUSH1 0x1 DUP3 SHL SWAP1 DUP2 AND PUSH1 0x0 SUB PUSH2 0x25B JUMPI POP PUSH1 0x0 SWAP5 SWAP4 POP POP POP POP JUMP JUMPDEST POP POP PUSH1 0x1 ADD PUSH2 0x19D JUMP JUMPDEST POP PUSH1 0x1 SWAP3 SWAP2 POP POP JUMP JUMPDEST CALLER PUSH1 0x0 SWAP1 DUP2 MSTORE PUSH1 0x20 DUP2 SWAP1 MSTORE PUSH1 0x40 SWAP1 KECCAK256 SLOAD PUSH1 0xFF AND ISZERO ISZERO PUSH1 0x1 EQ PUSH2 0x2A2 JUMPI PUSH1 0x40 MLOAD PUSH3 0x461BCD PUSH1 0xE5 SHL DUP2 MSTORE PUSH1 0x4 ADD PUSH2 0x191 SWAP1 PUSH2 0xBDB JUMP JUMPDEST PUSH1 0x1 PUSH1 0x1 PUSH1 0xA0 SHL SUB AND PUSH1 0x0 SWAP1 DUP2 MSTORE PUSH1 0x20 DUP2 SWAP1 MSTORE PUSH1 0x40 SWAP1 KECCAK256 DUP1 SLOAD PUSH1 0xFF NOT AND PUSH1 0x1 OR SWAP1 SSTORE JUMP JUMPDEST PUSH1 0x5 PUSH1 0x20 MSTORE PUSH1 0x0 SWAP1 DUP2 MSTORE PUSH1 0x40 SWAP1 KECCAK256 DUP1 SLOAD PUSH1 0x1 DUP3 ADD DUP1 SLOAD PUSH1 0xFF SWAP1 SWAP3 AND SWAP3 SWAP2 PUSH2 0x2EC SWAP1 PUSH2 0xC12 JUMP JUMPDEST DUP1 PUSH1 0x1F ADD PUSH1 0x20 DUP1 SWAP2 DIV MUL PUSH1 0x20 ADD PUSH1 0x40 MLOAD SWAP1 DUP2 ADD PUSH1 0x40 MSTORE DUP1 SWAP3 SWAP2 SWAP1 DUP2 DUP2 MSTORE PUSH1 0x20 ADD DUP3 DUP1 SLOAD PUSH2 0x318 SWAP1 PUSH2 0xC12 JUMP JUMPDEST DUP1 ISZERO PUSH2 0x365 JUMPI DUP1 PUSH1 0x1F LT PUSH2 0x33A JUMPI PUSH2 0x100 DUP1 DUP4 SLOAD DIV MUL DUP4 MSTORE SWAP2 PUSH1 0x20 ADD SWAP2 PUSH2 0x365 JUMP JUMPDEST DUP3 ADD SWAP2 SWAP1 PUSH1 0x0 MSTORE PUSH1 0x20 PUSH1 0x0 KECCAK256 SWAP1 JUMPDEST DUP2 SLOAD DUP2 MSTORE SWAP1 PUSH1 0x1 ADD SWAP1 PUSH1 0x20 ADD DUP1 DUP4 GT PUSH2 0x348 JUMPI DUP3 SWAP1 SUB PUSH1 0x1F AND DUP3 ADD SWAP2 JUMPDEST POP POP POP POP PUSH1 0x2 DUP4 ADD SLOAD PUSH1 0x3 DUP5 ADD SLOAD PUSH1 0x4 SWAP1 SWAP5 ADD SLOAD SWAP3 SWAP4 SWAP1 SWAP3 SWAP1 SWAP2 POP PUSH1 0xFF DUP1 DUP3 AND SWAP2 PUSH2 0x100 SWAP1 DIV AND DUP7 JUMP JUMPDEST CALLER PUSH1 0x0 SWAP1 DUP2 MSTORE PUSH1 0x20 DUP2 SWAP1 MSTORE PUSH1 0x40 SWAP1 KECCAK256 SLOAD PUSH1 0xFF AND ISZERO ISZERO PUSH1 0x1 EQ PUSH2 0x3C3 JUMPI PUSH1 0x40 MLOAD PUSH3 0x461BCD PUSH1 0xE5 SHL DUP2 MSTORE PUSH1 0x4 ADD PUSH2 0x191 SWAP1 PUSH2 0xBDB JUMP JUMPDEST DUP6 PUSH1 0x0 PUSH1 0x1 PUSH1 0x1 PUSH1 0xA0 SHL SUB DUP3 AND PUSH1 0x0 SWAP1 DUP2 MSTORE PUSH1 0x5 PUSH1 0x20 MSTORE PUSH1 0x40 SWAP1 KECCAK256 SLOAD PUSH1 0xFF AND PUSH1 0x2 DUP2 GT ISZERO PUSH2 0x3F3 JUMPI PUSH2 0x3F3 PUSH2 0x8F1 JUMP JUMPDEST EQ PUSH2 0x440 JUMPI PUSH1 0x40 MLOAD PUSH3 0x461BCD PUSH1 0xE5 SHL DUP2 MSTORE PUSH1 0x20 PUSH1 0x4 DUP3 ADD MSTORE PUSH1 0x1C PUSH1 0x24 DUP3 ADD MSTORE PUSH32 0x4F626A65637420737461746565206973206E6F74206163746976652100000000 PUSH1 0x44 DUP3 ADD MSTORE PUSH1 0x64 ADD PUSH2 0x191 JUMP JUMPDEST DUP6 MLOAD DUP7 SWAP1 ISZERO PUSH2 0x470 JUMPI PUSH1 0x1 PUSH1 0x1 PUSH1 0xA0 SHL SUB DUP9 AND PUSH1 0x0 SWAP1 DUP2 MSTORE PUSH1 0x5 PUSH1 0x20 MSTORE PUSH1 0x40 SWAP1 KECCAK256 PUSH1 0x1 ADD PUSH2 0x46E DUP9 DUP3 PUSH2 0xC9B JUMP JUMPDEST POP JUMPDEST DUP6 ISZERO PUSH2 0x495 JUMPI PUSH1 0x1 PUSH1 0x1 PUSH1 0xA0 SHL SUB DUP9 AND PUSH1 0x0 SWAP1 DUP2 MSTORE PUSH1 0x5 PUSH1 0x20 MSTORE PUSH1 0x40 SWAP1 KECCAK256 PUSH1 0x2 ADD DUP7 SWAP1 SSTORE JUMPDEST DUP5 ISZERO PUSH2 0x4BA JUMPI PUSH1 0x1 PUSH1 0x1 PUSH1 0xA0 SHL SUB DUP9 AND PUSH1 0x0 SWAP1 DUP2 MSTORE PUSH1 0x5 PUSH1 0x20 MSTORE PUSH1 0x40 SWAP1 KECCAK256 PUSH1 0x3 ADD DUP6 SWAP1 SSTORE JUMPDEST PUSH1 0x0 DUP5 PUSH1 0x3 DUP2 GT ISZERO PUSH2 0x4CE JUMPI PUSH2 0x4CE PUSH2 0x8F1 JUMP JUMPDEST EQ PUSH2 0x511 JUMPI PUSH1 0x1 PUSH1 0x1 PUSH1 0xA0 SHL SUB DUP9 AND PUSH1 0x0 SWAP1 DUP2 MSTORE PUSH1 0x5 PUSH1 0x20 MSTORE PUSH1 0x40 SWAP1 KECCAK256 PUSH1 0x4 ADD DUP1 SLOAD DUP6 SWAP2 SWAP1 PUSH1 0xFF NOT AND PUSH1 0x1 DUP4 PUSH1 0x3 DUP2 GT ISZERO PUSH2 0x50B JUMPI PUSH2 0x50B PUSH2 0x8F1 JUMP JUMPDEST MUL OR SWAP1 SSTORE POP JUMPDEST PUSH1 0x0 DUP4 PUSH1 0x2 DUP2 GT ISZERO PUSH2 0x525 JUMPI PUSH2 0x525 PUSH2 0x8F1 JUMP JUMPDEST EQ PUSH2 0x56A JUMPI PUSH1 0x1 PUSH1 0x1 PUSH1 0xA0 SHL SUB DUP9 AND PUSH1 0x0 SWAP1 DUP2 MSTORE PUSH1 0x5 PUSH1 0x20 MSTORE PUSH1 0x40 SWAP1 KECCAK256 PUSH1 0x4 ADD DUP1 SLOAD DUP5 SWAP2 SWAP1 PUSH2 0xFF00 NOT AND PUSH2 0x100 DUP4 PUSH1 0x2 DUP2 GT ISZERO PUSH2 0x564 JUMPI PUSH2 0x564 PUSH2 0x8F1 JUMP JUMPDEST MUL OR SWAP1 SSTORE POP JUMPDEST PUSH1 0x1 PUSH1 0x1 PUSH1 0xA0 SHL SUB DUP9 AND PUSH1 0x0 SWAP1 DUP2 MSTORE PUSH1 0x5 PUSH1 0x20 MSTORE PUSH1 0x40 SWAP1 DUP2 SWAP1 KECCAK256 SWAP1 MLOAD PUSH32 0x5D4AF0052C23727F02F7B57BC1D07977666CCE9E5628DB0C182E3EDDFE80D5E SWAP2 PUSH2 0x5B7 SWAP2 DUP12 SWAP2 PUSH1 0x1 ADD SWAP1 PUSH2 0xD5A JUMP JUMPDEST PUSH1 0x40 MLOAD DUP1 SWAP2 SUB SWAP1 LOG1 POP POP POP POP POP POP POP POP JUMP JUMPDEST CALLER PUSH1 0x0 SWAP1 DUP2 MSTORE PUSH1 0x20 DUP2 SWAP1 MSTORE PUSH1 0x40 SWAP1 KECCAK256 SLOAD PUSH1 0xFF AND ISZERO ISZERO PUSH1 0x1 EQ PUSH2 0x5FD JUMPI PUSH1 0x40 MLOAD PUSH3 0x461BCD PUSH1 0xE5 SHL DUP2 MSTORE PUSH1 0x4 ADD PUSH2 0x191 SWAP1 PUSH2 0xBDB JUMP JUMPDEST PUSH1 0x1 DUP1 SLOAD SWAP1 PUSH1 0x0 PUSH2 0x60D DUP4 PUSH2 0xDF8 JUMP JUMPDEST SWAP1 SWAP2 SSTORE POP POP PUSH1 0x1 PUSH1 0x1 PUSH1 0xA0 SHL SUB DUP6 AND PUSH1 0x0 SWAP1 DUP2 MSTORE PUSH1 0x5 PUSH1 0x20 MSTORE PUSH1 0x40 SWAP1 KECCAK256 DUP1 SLOAD PUSH1 0xFF NOT AND DUP2 SSTORE PUSH1 0x1 ADD PUSH2 0x63F DUP6 DUP3 PUSH2 0xC9B JUMP JUMPDEST POP PUSH1 0x1 PUSH1 0x1 PUSH1 0xA0 SHL SUB DUP6 AND PUSH1 0x0 SWAP1 DUP2 MSTORE PUSH1 0x5 PUSH1 0x20 MSTORE PUSH1 0x40 SWAP1 KECCAK256 TIMESTAMP PUSH1 0x2 DUP3 ADD SSTORE PUSH1 0x3 DUP1 DUP3 ADD DUP6 SWAP1 SSTORE PUSH1 0x4 SWAP1 SWAP2 ADD DUP1 SLOAD DUP5 SWAP3 PUSH1 0xFF NOT SWAP1 SWAP2 AND SWAP1 PUSH1 0x1 SWAP1 DUP5 SWAP1 DUP2 GT ISZERO PUSH2 0x68A JUMPI PUSH2 0x68A PUSH2 0x8F1 JUMP JUMPDEST MUL OR SWAP1 SSTORE POP PUSH1 0x1 PUSH1 0x1 PUSH1 0xA0 SHL SUB DUP6 AND PUSH1 0x0 SWAP1 DUP2 MSTORE PUSH1 0x5 PUSH1 0x20 MSTORE PUSH1 0x40 SWAP1 KECCAK256 PUSH1 0x4 ADD DUP1 SLOAD DUP3 SWAP2 SWAP1 PUSH2 0xFF00 NOT AND PUSH2 0x100 DUP4 PUSH1 0x2 DUP2 GT ISZERO PUSH2 0x6C9 JUMPI PUSH2 0x6C9 PUSH2 0x8F1 JUMP JUMPDEST MUL OR SWAP1 SSTORE POP PUSH2 0x6D7 DUP6 PUSH2 0x7A5 JUMP JUMPDEST PUSH1 0x1 PUSH1 0x1 PUSH1 0xA0 SHL SUB DUP6 AND PUSH1 0x0 SWAP1 DUP2 MSTORE PUSH1 0x5 PUSH1 0x20 MSTORE PUSH1 0x40 SWAP1 DUP2 SWAP1 KECCAK256 SWAP1 MLOAD PUSH32 0xD7B10AB0017531ED21DE18EF1E05292BD4B21C621FE18EE7CCB5C17BEC4C8B86 SWAP2 PUSH2 0x724 SWAP2 DUP9 SWAP2 PUSH1 0x1 ADD SWAP1 PUSH2 0xD5A JUMP JUMPDEST PUSH1 0x40 MLOAD DUP1 SWAP2 SUB SWAP1 LOG1 POP POP POP POP POP JUMP JUMPDEST CALLER PUSH1 0x0 SWAP1 DUP2 MSTORE PUSH1 0x20 DUP2 SWAP1 MSTORE PUSH1 0x40 SWAP1 KECCAK256 SLOAD PUSH1 0xFF AND ISZERO ISZERO PUSH1 0x1 EQ PUSH2 0x767 JUMPI PUSH1 0x40 MLOAD PUSH3 0x461BCD PUSH1 0xE5 SHL DUP2 MSTORE PUSH1 0x4 ADD PUSH2 0x191 SWAP1 PUSH2 0xBDB JUMP JUMPDEST PUSH1 0x1 PUSH1 0x1 PUSH1 0xA0 SHL SUB DUP3 AND PUSH1 0x0 SWAP1 DUP2 MSTORE PUSH1 0x5 PUSH1 0x20 MSTORE PUSH1 0x40 SWAP1 KECCAK256 DUP1 SLOAD DUP3 SWAP2 SWAP1 PUSH1 0xFF NOT AND PUSH1 0x1 DUP4 PUSH1 0x2 DUP2 GT ISZERO PUSH2 0x79C JUMPI PUSH2 0x79C PUSH2 0x8F1 JUMP JUMPDEST MUL OR SWAP1 SSTORE POP POP POP JUMP JUMPDEST PUSH1 0x3 SLOAD PUSH1 0xFF AND PUSH2 0x7F7 JUMPI PUSH1 0x40 MLOAD PUSH3 0x461BCD PUSH1 0xE5 SHL DUP2 MSTORE PUSH1 0x20 PUSH1 0x4 DUP3 ADD MSTORE PUSH1 0x1A PUSH1 0x24 DUP3 ADD MSTORE PUSH32 0x4861736820636F756E742063616E6E6F74206265207A65726F21000000000000 PUSH1 0x44 DUP3 ADD MSTORE PUSH1 0x64 ADD PUSH2 0x191 JUMP JUMPDEST PUSH1 0x0 JUMPDEST PUSH1 0x3 SLOAD PUSH1 0xFF AND DUP2 LT ISZERO PUSH2 0x8AF JUMPI PUSH1 0x40 MLOAD PUSH12 0xFFFFFFFFFFFFFFFFFFFFFFFF NOT PUSH1 0x60 DUP5 SWAP1 SHL AND PUSH1 0x20 DUP3 ADD MSTORE PUSH1 0x34 DUP2 ADD DUP3 SWAP1 MSTORE PUSH1 0x0 SWAP1 PUSH2 0x100 SWAP1 PUSH1 0x54 ADD PUSH1 0x40 MLOAD PUSH1 0x20 DUP2 DUP4 SUB SUB DUP2 MSTORE SWAP1 PUSH1 0x40 MSTORE DUP1 MLOAD SWAP1 PUSH1 0x20 ADD KECCAK256 PUSH1 0x0 SHR PUSH2 0x857 SWAP2 SWAP1 PUSH2 0xBB9 JUMP JUMPDEST SWAP1 POP PUSH2 0x100 DUP2 LT PUSH2 0x89C JUMPI PUSH1 0x40 MLOAD PUSH3 0x461BCD PUSH1 0xE5 SHL DUP2 MSTORE PUSH1 0x20 PUSH1 0x4 DUP3 ADD MSTORE PUSH1 0xF PUSH1 0x24 DUP3 ADD MSTORE PUSH15 0x4F766572666C6F77204572726F7221 PUSH1 0x88 SHL PUSH1 0x44 DUP3 ADD MSTORE PUSH1 0x64 ADD PUSH2 0x191 JUMP JUMPDEST PUSH1 0x2 DUP1 SLOAD PUSH1 0x1 SWAP3 DUP4 SWAP1 SHL OR SWAP1 SSTORE ADD PUSH2 0x7FA JUMP JUMPDEST POP POP JUMP JUMPDEST DUP1 CALLDATALOAD PUSH1 0x1 PUSH1 0x1 PUSH1 0xA0 SHL SUB DUP2 AND DUP2 EQ PUSH2 0x8CA JUMPI PUSH1 0x0 DUP1 REVERT JUMPDEST SWAP2 SWAP1 POP JUMP JUMPDEST PUSH1 0x0 PUSH1 0x20 DUP3 DUP5 SUB SLT ISZERO PUSH2 0x8E1 JUMPI PUSH1 0x0 DUP1 REVERT JUMPDEST PUSH2 0x8EA DUP3 PUSH2 0x8B3 JUMP JUMPDEST SWAP4 SWAP3 POP POP POP JUMP JUMPDEST PUSH4 0x4E487B71 PUSH1 0xE0 SHL PUSH1 0x0 MSTORE PUSH1 0x21 PUSH1 0x4 MSTORE PUSH1 0x24 PUSH1 0x0 REVERT JUMPDEST PUSH1 0x3 DUP2 LT PUSH2 0x917 JUMPI PUSH2 0x917 PUSH2 0x8F1 JUMP JUMPDEST POP JUMP JUMPDEST PUSH1 0x4 DUP2 LT PUSH2 0x92A JUMPI PUSH2 0x92A PUSH2 0x8F1 JUMP JUMPDEST SWAP1 MSTORE JUMP JUMPDEST PUSH2 0x92A DUP2 PUSH2 0x907 JUMP JUMPDEST PUSH2 0x940 DUP8 PUSH2 0x907 JUMP JUMPDEST DUP7 DUP2 MSTORE PUSH1 0xC0 PUSH1 0x20 DUP3 ADD MSTORE PUSH1 0x0 DUP7 MLOAD DUP1 PUSH1 0xC0 DUP5 ADD MSTORE PUSH1 0x0 JUMPDEST DUP2 DUP2 LT ISZERO PUSH2 0x974 JUMPI PUSH1 0x20 DUP2 DUP11 ADD DUP2 ADD MLOAD PUSH1 0xE0 DUP7 DUP5 ADD ADD MSTORE ADD PUSH2 0x957 JUMP JUMPDEST POP PUSH1 0x0 PUSH1 0xE0 DUP3 DUP6 ADD ADD MSTORE PUSH1 0xE0 PUSH1 0x1F NOT PUSH1 0x1F DUP4 ADD AND DUP5 ADD ADD SWAP2 POP POP DUP6 PUSH1 0x40 DUP4 ADD MSTORE DUP5 PUSH1 0x60 DUP4 ADD MSTORE PUSH2 0x9A7 PUSH1 0x80 DUP4 ADD DUP6 PUSH2 0x91A JUMP JUMPDEST PUSH2 0x9B4 PUSH1 0xA0 DUP4 ADD DUP5 PUSH2 0x92E JUMP JUMPDEST SWAP8 SWAP7 POP POP POP POP POP POP POP JUMP JUMPDEST PUSH4 0x4E487B71 PUSH1 0xE0 SHL PUSH1 0x0 MSTORE PUSH1 0x41 PUSH1 0x4 MSTORE PUSH1 0x24 PUSH1 0x0 REVERT JUMPDEST PUSH1 0x0 DUP3 PUSH1 0x1F DUP4 ADD SLT PUSH2 0x9E6 JUMPI PUSH1 0x0 DUP1 REVERT JUMPDEST DUP2 CALLDATALOAD PUSH8 0xFFFFFFFFFFFFFFFF DUP2 GT ISZERO PUSH2 0xA00 JUMPI PUSH2 0xA00 PUSH2 0x9BF JUMP JUMPDEST PUSH1 0x40 MLOAD PUSH1 0x1F DUP3 ADD PUSH1 0x1F NOT SWAP1 DUP2 AND PUSH1 0x3F ADD AND DUP2 ADD PUSH8 0xFFFFFFFFFFFFFFFF DUP2 GT DUP3 DUP3 LT OR ISZERO PUSH2 0xA2F JUMPI PUSH2 0xA2F PUSH2 0x9BF JUMP JUMPDEST PUSH1 0x40 MSTORE DUP2 DUP2 MSTORE DUP4 DUP3 ADD PUSH1 0x20 ADD DUP6 LT ISZERO PUSH2 0xA47 JUMPI PUSH1 0x0 DUP1 REVERT JUMPDEST DUP2 PUSH1 0x20 DUP6 ADD PUSH1 0x20 DUP4 ADD CALLDATACOPY PUSH1 0x0 SWAP2 DUP2 ADD PUSH1 0x20 ADD SWAP2 SWAP1 SWAP2 MSTORE SWAP4 SWAP3 POP POP POP JUMP JUMPDEST DUP1 CALLDATALOAD PUSH1 0x4 DUP2 LT PUSH2 0x8CA JUMPI PUSH1 0x0 DUP1 REVERT JUMPDEST PUSH1 0x3 DUP2 LT PUSH2 0x917 JUMPI PUSH1 0x0 DUP1 REVERT JUMPDEST PUSH1 0x0 DUP1 PUSH1 0x0 DUP1 PUSH1 0x0 DUP1 PUSH1 0xC0 DUP8 DUP10 SUB SLT ISZERO PUSH2 0xA99 JUMPI PUSH1 0x0 DUP1 REVERT JUMPDEST PUSH2 0xAA2 DUP8 PUSH2 0x8B3 JUMP JUMPDEST SWAP6 POP PUSH1 0x20 DUP8 ADD CALLDATALOAD PUSH8 0xFFFFFFFFFFFFFFFF DUP2 GT ISZERO PUSH2 0xABE JUMPI PUSH1 0x0 DUP1 REVERT JUMPDEST PUSH2 0xACA DUP10 DUP3 DUP11 ADD PUSH2 0x9D5 JUMP JUMPDEST SWAP6 POP POP PUSH1 0x40 DUP8 ADD CALLDATALOAD SWAP4 POP PUSH1 0x60 DUP8 ADD CALLDATALOAD SWAP3 POP PUSH2 0xAE7 PUSH1 0x80 DUP9 ADD PUSH2 0xA64 JUMP JUMPDEST SWAP2 POP PUSH1 0xA0 DUP8 ADD CALLDATALOAD PUSH2 0xAF7 DUP2 PUSH2 0xA73 JUMP JUMPDEST DUP1 SWAP2 POP POP SWAP3 SWAP6 POP SWAP3 SWAP6 POP SWAP3 SWAP6 JUMP JUMPDEST PUSH1 0x0 DUP1 PUSH1 0x0 DUP1 PUSH1 0x0 PUSH1 0xA0 DUP7 DUP9 SUB SLT ISZERO PUSH2 0xB1D JUMPI PUSH1 0x0 DUP1 REVERT JUMPDEST PUSH2 0xB26 DUP7 PUSH2 0x8B3 JUMP JUMPDEST SWAP5 POP PUSH1 0x20 DUP7 ADD CALLDATALOAD PUSH8 0xFFFFFFFFFFFFFFFF DUP2 GT ISZERO PUSH2 0xB42 JUMPI PUSH1 0x0 DUP1 REVERT JUMPDEST PUSH2 0xB4E DUP9 DUP3 DUP10 ADD PUSH2 0x9D5 JUMP JUMPDEST SWAP5 POP POP PUSH1 0x40 DUP7 ADD CALLDATALOAD SWAP3 POP PUSH2 0xB64 PUSH1 0x60 DUP8 ADD PUSH2 0xA64 JUMP JUMPDEST SWAP2 POP PUSH1 0x80 DUP7 ADD CALLDATALOAD PUSH2 0xB74 DUP2 PUSH2 0xA73 JUMP JUMPDEST DUP1 SWAP2 POP POP SWAP3 SWAP6 POP SWAP3 SWAP6 SWAP1 SWAP4 POP JUMP JUMPDEST PUSH1 0x0 DUP1 PUSH1 0x40 DUP4 DUP6 SUB SLT ISZERO PUSH2 0xB95 JUMPI PUSH1 0x0 DUP1 REVERT JUMPDEST PUSH2 0xB9E DUP4 PUSH2 0x8B3 JUMP JUMPDEST SWAP2 POP PUSH1 0x20 DUP4 ADD CALLDATALOAD PUSH2 0xBAE DUP2 PUSH2 0xA73 JUMP JUMPDEST DUP1 SWAP2 POP POP SWAP3 POP SWAP3 SWAP1 POP JUMP JUMPDEST PUSH1 0x0 DUP3 PUSH2 0xBD6 JUMPI PUSH4 0x4E487B71 PUSH1 0xE0 SHL PUSH1 0x0 MSTORE PUSH1 0x12 PUSH1 0x4 MSTORE PUSH1 0x24 PUSH1 0x0 REVERT JUMPDEST POP MOD SWAP1 JUMP JUMPDEST PUSH1 0x20 DUP1 DUP3 MSTORE PUSH1 0x1B SWAP1 DUP3 ADD MSTORE PUSH32 0x53656E646572206973206E6F7420616E20617574686F726974792E0000000000 PUSH1 0x40 DUP3 ADD MSTORE PUSH1 0x60 ADD SWAP1 JUMP JUMPDEST PUSH1 0x1 DUP2 DUP2 SHR SWAP1 DUP3 AND DUP1 PUSH2 0xC26 JUMPI PUSH1 0x7F DUP3 AND SWAP2 POP JUMPDEST PUSH1 0x20 DUP3 LT DUP2 SUB PUSH2 0xC46 JUMPI PUSH4 0x4E487B71 PUSH1 0xE0 SHL PUSH1 0x0 MSTORE PUSH1 0x22 PUSH1 0x4 MSTORE PUSH1 0x24 PUSH1 0x0 REVERT JUMPDEST POP SWAP2 SWAP1 POP JUMP JUMPDEST PUSH1 0x1F DUP3 GT ISZERO PUSH2 0xC96 JUMPI DUP1 PUSH1 0x0 MSTORE PUSH1 0x20 PUSH1 0x0 KECCAK256 PUSH1 0x1F DUP5 ADD PUSH1 0x5 SHR DUP2 ADD PUSH1 0x20 DUP6 LT ISZERO PUSH2 0xC73 JUMPI POP DUP1 JUMPDEST PUSH1 0x1F DUP5 ADD PUSH1 0x5 SHR DUP3 ADD SWAP2 POP JUMPDEST DUP2 DUP2 LT ISZERO PUSH2 0xC93 JUMPI PUSH1 0x0 DUP2 SSTORE PUSH1 0x1 ADD PUSH2 0xC7F JUMP JUMPDEST POP POP JUMPDEST POP POP POP JUMP JUMPDEST DUP2 MLOAD PUSH8 0xFFFFFFFFFFFFFFFF DUP2 GT ISZERO PUSH2 0xCB5 JUMPI PUSH2 0xCB5 PUSH2 0x9BF JUMP JUMPDEST PUSH2 0xCC9 DUP2 PUSH2 0xCC3 DUP5 SLOAD PUSH2 0xC12 JUMP JUMPDEST DUP5 PUSH2 0xC4C JUMP JUMPDEST PUSH1 0x20 PUSH1 0x1F DUP3 GT PUSH1 0x1 DUP2 EQ PUSH2 0xCFD JUMPI PUSH1 0x0 DUP4 ISZERO PUSH2 0xCE5 JUMPI POP DUP5 DUP3 ADD MLOAD JUMPDEST PUSH1 0x0 NOT PUSH1 0x3 DUP6 SWAP1 SHL SHR NOT AND PUSH1 0x1 DUP5 SWAP1 SHL OR DUP5 SSTORE PUSH2 0xC93 JUMP JUMPDEST PUSH1 0x0 DUP5 DUP2 MSTORE PUSH1 0x20 DUP2 KECCAK256 PUSH1 0x1F NOT DUP6 AND SWAP2 JUMPDEST DUP3 DUP2 LT ISZERO PUSH2 0xD2D JUMPI DUP8 DUP6 ADD MLOAD DUP3 SSTORE PUSH1 0x20 SWAP5 DUP6 ADD SWAP5 PUSH1 0x1 SWAP1 SWAP3 ADD SWAP2 ADD PUSH2 0xD0D JUMP JUMPDEST POP DUP5 DUP3 LT ISZERO PUSH2 0xD4B JUMPI DUP7 DUP5 ADD MLOAD PUSH1 0x0 NOT PUSH1 0x3 DUP8 SWAP1 SHL PUSH1 0xF8 AND SHR NOT AND DUP2 SSTORE JUMPDEST POP POP POP POP PUSH1 0x1 SWAP1 DUP2 SHL ADD SWAP1 SSTORE POP JUMP JUMPDEST PUSH1 0x1 PUSH1 0x1 PUSH1 0xA0 SHL SUB DUP4 AND DUP2 MSTORE PUSH1 0x40 PUSH1 0x20 DUP3 ADD MSTORE DUP2 SLOAD PUSH1 0x0 SWAP1 DUP2 SWAP1 PUSH2 0xD7D DUP2 PUSH2 0xC12 JUMP JUMPDEST DUP1 PUSH1 0x40 DUP7 ADD MSTORE PUSH1 0x1 DUP3 AND PUSH1 0x0 DUP2 EQ PUSH2 0xD9C JUMPI PUSH1 0x1 DUP2 EQ PUSH2 0xDB8 JUMPI PUSH2 0xDEC JUMP JUMPDEST PUSH1 0xFF NOT DUP4 AND PUSH1 0x60 DUP8 ADD MSTORE PUSH1 0x60 DUP3 ISZERO ISZERO PUSH1 0x5 SHL DUP8 ADD ADD SWAP4 POP PUSH2 0xDEC JUMP JUMPDEST DUP7 PUSH1 0x0 MSTORE PUSH1 0x20 PUSH1 0x0 KECCAK256 PUSH1 0x0 JUMPDEST DUP4 DUP2 LT ISZERO PUSH2 0xDE3 JUMPI DUP2 SLOAD DUP9 DUP3 ADD PUSH1 0x60 ADD MSTORE PUSH1 0x1 SWAP1 SWAP2 ADD SWAP1 PUSH1 0x20 ADD PUSH2 0xDC4 JUMP JUMPDEST DUP8 ADD PUSH1 0x60 ADD SWAP5 POP POP JUMPDEST POP SWAP2 SWAP7 SWAP6 POP POP POP POP POP POP JUMP JUMPDEST PUSH1 0x0 PUSH1 0x1 DUP3 ADD PUSH2 0xE18 JUMPI PUSH4 0x4E487B71 PUSH1 0xE0 SHL PUSH1 0x0 MSTORE PUSH1 0x11 PUSH1 0x4 MSTORE PUSH1 0x24 PUSH1 0x0 REVERT JUMPDEST POP PUSH1 0x1 ADD SWAP1 JUMP INVALID LOG2 PUSH5 0x6970667358 0x22 SLT KECCAK256 GASLIMIT 0xAA 0x1F 0xF8 0xF7 0xA6 JUMP 0xEE GASLIMIT 0xC 0xF8 0x21 DUP15 EXTCODESIZE 0x25 0xD OR 0xAC BALANCE ISZERO 0x26 DUP4 0xEE 0xE 0x25 0xFB SMOD BASEFEE EXTCODECOPY SWAP8 0xB2 0xEB PUSH5 0x736F6C6343 STOP ADDMOD BYTE STOP CALLER ","sha1":"fc447f76dd7a20a21421830e63e49ef408d6afec","source":"// SPDX-License-Identifier: UNLICENSED\npragma solidity ^0.8.17;\nimport \"contracts/Device.sol\";\ncontract ObjectAttribute {\n    struct Object {\n        Device.State state;\n        string name; // type od the device\n        uint age; // Number of days since the device was first registered\n        uint trust; // 1 to 10\n        Device.Category category; \n        Device.Zone zone; // Location\n    }\n    struct BloomFilter {\n        uint256 bitmap;\n        uint8 hash_count; \n    }\n    // local variables\n    mapping(address => bool) public authorities;\n    uint256 num_objects;\n    BloomFilter filter;\n    address[] users;\n\n    //mapping addresses of objects\n    mapping (address => Object) public objects;\n\n    constructor() {\n        authorities[msg.sender] = true;\n        num_objects = 0;\n        filter.bitmap = 0;\n        filter.hash_count = 5;\n    }\n\n    //Authorities Only\n    modifier authorities_only(){\n        require(authorities[msg.sender] == true, \"Sender is not an authority.\");\n        _;\n    }\n    modifier obj_active(address obj_addr){\n        require(objects[obj_addr].state == Device.State.Active, \"Object statee is not active!\");\n        _;\n    }\n    // Events\n    event NewObjectAdded(address obj_addr, string name);\n    event ObjectChanged(address sub_addr, string name);\n\n    function addAuthority(address authority) public authorities_only() {\n        authorities[authority] = true;\n    }\n\n    //Adding an Object\n    function add_object (\n        address obj_addr,         \n        string memory name, // type of the device\n        uint trust, // 1 to 10\n        Device.Category category, \n        Device.Zone zone // Location\n        ) public authorities_only() {\n\n        num_objects++;\n        objects[obj_addr].state = Device.State.Active;\n        //Subject Attributes:\n        objects[obj_addr].name = name;\n        objects[obj_addr].age = block.timestamp;\n        objects[obj_addr].trust = trust;\n        objects[obj_addr].category = category;\n        objects[obj_addr].zone = zone;\n\n        add_bitmap(obj_addr);\n\n        emit NewObjectAdded(obj_addr, objects[obj_addr].name);\n        \n        }\n\n    // Adds a subject to bloom filter\n    // By default hash_count is 5 in constructor\n    // hash_count is number of times the ob_addr gets hashed\n    function add_bitmap(  /**SUBJECT ID**/ address sub_addr)internal {\n         require(filter.hash_count > 0, \"Hash count cannot be zero!\");\n        for(uint i = 0; i < filter.hash_count; i++) {\n            uint256 index = uint256(keccak256(abi.encodePacked(sub_addr, i))) % 256;\n            require(index < 256, \"Overflow Error!\");\n            uint256 bit_place = 1 << index;\n            filter.bitmap = filter.bitmap | bit_place;\n        }    \n    }\n    function check_bitmap( /**OBJECT ID**/ address obj_addr )/**MODIFIERS**/external view returns(bool)\n    {\n        require(filter.hash_count > 0, \"Hash count cannot be zero\");\n        for(uint256 i = 0; i < filter.hash_count; i++){\n            uint256 index = uint256(keccak256(abi.encodePacked(obj_addr, i))) % 256;\n            require(index < 256, \"Overflow Error!\");\n            uint256 bit_place = 1 << index;\n            if((filter.bitmap & bit_place) == 0) return false;\n        }\n        return true;\n    }\n    // Change Object's state\n    function set_object_state(address obj_addr, Device.State  _state) public authorities_only(){\n        objects[obj_addr].state = _state;\n    }\n    // Changes the attributes of a subject\n    // If attribute are blank \"\" skip to next attribute (no change done)\n    // Note: Cannot set any attribute to empty string (blank)\n    // Emits SubjectChanged event\n    function change_attribs( \n        address obj_addr,         \n        string memory name, // type of the device\n        uint age, // Number of days since the device was first registered\n        uint trust, // 1 to 10\n        Device.Category category, \n        Device.Zone zone // Location\n         )  /**MODIFIERS**/ public authorities_only()  obj_active(obj_addr){\n        bytes memory empty_test = bytes(name);  \n        if (empty_test.length != 0) objects[obj_addr].name = name;\n        if (age != 0) objects[obj_addr].age = age;\n        if (trust != 0) objects[obj_addr].trust = trust;\n        if (category != Device.Category.Security) objects[obj_addr].category = category;\n        if (zone != Device.Zone.Zone1) objects[obj_addr].zone = zone; \n         \n        emit ObjectChanged(obj_addr,objects[obj_addr].name );\n\n    }\n}","sourcePath":"contracts/ObjectAttribute.sol","type":"contract","deployment":{"address":"0x03986844645D8Db19802dEddc69A690284FBA1dE","chainid":"11155111","blockHeight":6458802}}