{"abi":[{"inputs":[{"internalType":"uint256","name":"_startTime","type":"uint256"},{"internalType":"uint256","name":"_endTime","type":"uint256"}],"stateMutability":"nonpayable","type":"constructor","name":"constructor"},{"anonymous":false,"inputs":[{"indexed":false,"internalType":"string","name":"message","type":"string"}],"name":"AccessApproved","type":"event"},{"anonymous":false,"inputs":[{"indexed":false,"internalType":"string","name":"message","type":"string"},{"indexed":false,"internalType":"uint256","name":"presentTime","type":"uint256"},{"indexed":false,"internalType":"uint256","name":"startTime","type":"uint256"},{"indexed":false,"internalType":"uint256","name":"endTime","type":"uint256"}],"name":"AccessDenied","type":"event"},{"inputs":[{"internalType":"address","name":"","type":"address"}],"name":"authorities","outputs":[{"internalType":"bool","name":"","type":"bool"}],"stateMutability":"view","type":"function"},{"inputs":[],"name":"checkPolicy","outputs":[{"internalType":"bool","name":"","type":"bool"}],"stateMutability":"nonpayable","type":"function"},{"inputs":[{"internalType":"enum Policy1.PolicyState","name":"_policyState","type":"uint8"}],"name":"setPolicyState","outputs":[],"stateMutability":"nonpayable","type":"function"}],"bytecode":"6080604052348015600f57600080fd5b50604051610451380380610451833981016040819052602c91605e565b6001805460ff199081168255336000908152602081905260409020805490911690911790556002919091556003556081565b60008060408385031215607057600080fd5b505080516020909101519092909150565b6103c1806100906000396000f3fe608060405234801561001057600080fd5b50600436106100415760003560e01c80633bd31ccd1461004657806391223d691461005b578063fd0e4bc414610092575b600080fd5b6100596100543660046102c6565b61009a565b005b61007e6100693660046102e7565b60006020819052908152604090205460ff1681565b604051901515815260200160405180910390f35b61007e610128565b3360009081526020819052604090205460ff1615156001146101035760405162461bcd60e51b815260206004820152601b60248201527f53656e646572206973206e6f7420616e20617574686f726974792e000000000060448201526064015b60405180910390fd5b6001805482919060ff191681838181111561012057610120610310565b021790555050565b6000806001805460ff169081111561014257610142610310565b146101875760405162461bcd60e51b8152602060048201526015602482015274506f6c69637932206973206e6f742041637469766560581b60448201526064016100fa565b61018f610294565b6004819055600254118015906101a9575060035460045411155b1561021b577f50e8d46dcb719ffeae31cdb40141820a1744374032e7a478588d9300a568fbae60405161020d9060208082526018908201527f54696d65207265737472696374696f6e20706173736564210000000000000000604082015260600190565b60405180910390a150600190565b6004546002546003546040805160808082526012908201527154696d65207265737472696374696f6e212160701b60a0820152602081019490945283019190915260608201527faa26d827a4b629823d87dda3402587ccb07ee95093c4ad74b9cf54b834f2733c9060c00160405180910390a150600090565b6000806102a4620151804261033c565b905060006102b4610e1083610350565b6102bf906006610364565b9392505050565b6000602082840312156102d857600080fd5b8135600281106102bf57600080fd5b6000602082840312156102f957600080fd5b81356001600160a01b03811681146102bf57600080fd5b634e487b7160e01b600052602160045260246000fd5b634e487b7160e01b600052601260045260246000fd5b60008261034b5761034b610326565b500690565b60008261035f5761035f610326565b500490565b8082018082111561038557634e487b7160e01b600052601160045260246000fd5b9291505056fea2646970667358221220200f82f246bd63f2484abe848219034b79adc039f4fbff155a00344c4c741ed264736f6c634300081a0033","bytecodeSha1":"c7426cd5fc5bbebd77926c9dcaa5654abcabc1ef","compiler":{"evm_version":"istanbul","optimizer":{"enabled":true,"runs":200},"version":"0.8.26+commit.8a97fa7a"},"contractName":"Policy1","language":"Solidity","natspec":{"kind":"dev","methods":{},"version":1},"opcodes":"PUSH1 0x80 PUSH1 0x40 MSTORE CALLVALUE DUP1 ISZERO PUSH2 0x10 JUMPI PUSH1 0x0 DUP1 REVERT JUMPDEST POP PUSH1 0x4 CALLDATASIZE LT PUSH2 0x41 JUMPI PUSH1 0x0 CALLDATALOAD PUSH1 0xE0 SHR DUP1 PUSH4 0x3BD31CCD EQ PUSH2 0x46 JUMPI DUP1 PUSH4 0x91223D69 EQ PUSH2 0x5B JUMPI DUP1 PUSH4 0xFD0E4BC4 EQ PUSH2 0x92 JUMPI JUMPDEST PUSH1 0x0 DUP1 REVERT JUMPDEST PUSH2 0x59 PUSH2 0x54 CALLDATASIZE PUSH1 0x4 PUSH2 0x2C6 JUMP JUMPDEST PUSH2 0x9A JUMP JUMPDEST STOP JUMPDEST PUSH2 0x7E PUSH2 0x69 CALLDATASIZE PUSH1 0x4 PUSH2 0x2E7 JUMP JUMPDEST PUSH1 0x0 PUSH1 0x20 DUP2 SWAP1 MSTORE SWAP1 DUP2 MSTORE PUSH1 0x40 SWAP1 KECCAK256 SLOAD PUSH1 0xFF AND DUP2 JUMP JUMPDEST PUSH1 0x40 MLOAD SWAP1 ISZERO ISZERO DUP2 MSTORE PUSH1 0x20 ADD PUSH1 0x40 MLOAD DUP1 SWAP2 SUB SWAP1 RETURN JUMPDEST PUSH2 0x7E PUSH2 0x128 JUMP JUMPDEST CALLER PUSH1 0x0 SWAP1 DUP2 MSTORE PUSH1 0x20 DUP2 SWAP1 MSTORE PUSH1 0x40 SWAP1 KECCAK256 SLOAD PUSH1 0xFF AND ISZERO ISZERO PUSH1 0x1 EQ PUSH2 0x103 JUMPI PUSH1 0x40 MLOAD PUSH3 0x461BCD PUSH1 0xE5 SHL DUP2 MSTORE PUSH1 0x20 PUSH1 0x4 DUP3 ADD MSTORE PUSH1 0x1B PUSH1 0x24 DUP3 ADD MSTORE PUSH32 0x53656E646572206973206E6F7420616E20617574686F726974792E0000000000 PUSH1 0x44 DUP3 ADD MSTORE PUSH1 0x64 ADD JUMPDEST PUSH1 0x40 MLOAD DUP1 SWAP2 SUB SWAP1 REVERT JUMPDEST PUSH1 0x1 DUP1 SLOAD DUP3 SWAP2 SWAP1 PUSH1 0xFF NOT AND DUP2 DUP4 DUP2 DUP2 GT ISZERO PUSH2 0x120 JUMPI PUSH2 0x120 PUSH2 0x310 JUMP JUMPDEST MUL OR SWAP1 SSTORE POP POP JUMP JUMPDEST PUSH1 0x0 DUP1 PUSH1 0x1 DUP1 SLOAD PUSH1 0xFF AND SWAP1 DUP2 GT ISZERO PUSH2 0x142 JUMPI PUSH2 0x142 PUSH2 0x310 JUMP JUMPDEST EQ PUSH2 0x187 JUMPI PUSH1 0x40 MLOAD PUSH3 0x461BCD PUSH1 0xE5 SHL DUP2 MSTORE PUSH1 0x20 PUSH1 0x4 DUP3 ADD MSTORE PUSH1 0x15 PUSH1 0x24 DUP3 ADD MSTORE PUSH21 0x506F6C69637932206973206E6F7420416374697665 PUSH1 0x58 SHL PUSH1 0x44 DUP3 ADD MSTORE PUSH1 0x64 ADD PUSH2 0xFA JUMP JUMPDEST PUSH2 0x18F PUSH2 0x294 JUMP JUMPDEST PUSH1 0x4 DUP2 SWAP1 SSTORE PUSH1 0x2 SLOAD GT DUP1 ISZERO SWAP1 PUSH2 0x1A9 JUMPI POP PUSH1 0x3 SLOAD PUSH1 0x4 SLOAD GT ISZERO JUMPDEST ISZERO PUSH2 0x21B JUMPI PUSH32 0x50E8D46DCB719FFEAE31CDB40141820A1744374032E7A478588D9300A568FBAE PUSH1 0x40 MLOAD PUSH2 0x20D SWAP1 PUSH1 0x20 DUP1 DUP3 MSTORE PUSH1 0x18 SWAP1 DUP3 ADD MSTORE PUSH32 0x54696D65207265737472696374696F6E20706173736564210000000000000000 PUSH1 0x40 DUP3 ADD MSTORE PUSH1 0x60 ADD SWAP1 JUMP JUMPDEST PUSH1 0x40 MLOAD DUP1 SWAP2 SUB SWAP1 LOG1 POP PUSH1 0x1 SWAP1 JUMP JUMPDEST PUSH1 0x4 SLOAD PUSH1 0x2 SLOAD PUSH1 0x3 SLOAD PUSH1 0x40 DUP1 MLOAD PUSH1 0x80 DUP1 DUP3 MSTORE PUSH1 0x12 SWAP1 DUP3 ADD MSTORE PUSH18 0x54696D65207265737472696374696F6E2121 PUSH1 0x70 SHL PUSH1 0xA0 DUP3 ADD MSTORE PUSH1 0x20 DUP2 ADD SWAP5 SWAP1 SWAP5 MSTORE DUP4 ADD SWAP2 SWAP1 SWAP2 MSTORE PUSH1 0x60 DUP3 ADD MSTORE PUSH32 0xAA26D827A4B629823D87DDA3402587CCB07EE95093C4AD74B9CF54B834F2733C SWAP1 PUSH1 0xC0 ADD PUSH1 0x40 MLOAD DUP1 SWAP2 SUB SWAP1 LOG1 POP PUSH1 0x0 SWAP1 JUMP JUMPDEST PUSH1 0x0 DUP1 PUSH2 0x2A4 PUSH3 0x15180 TIMESTAMP PUSH2 0x33C JUMP JUMPDEST SWAP1 POP PUSH1 0x0 PUSH2 0x2B4 PUSH2 0xE10 DUP4 PUSH2 0x350 JUMP JUMPDEST PUSH2 0x2BF SWAP1 PUSH1 0x6 PUSH2 0x364 JUMP JUMPDEST SWAP4 SWAP3 POP POP POP JUMP JUMPDEST PUSH1 0x0 PUSH1 0x20 DUP3 DUP5 SUB SLT ISZERO PUSH2 0x2D8 JUMPI PUSH1 0x0 DUP1 REVERT JUMPDEST DUP2 CALLDATALOAD PUSH1 0x2 DUP2 LT PUSH2 0x2BF JUMPI PUSH1 0x0 DUP1 REVERT JUMPDEST PUSH1 0x0 PUSH1 0x20 DUP3 DUP5 SUB SLT ISZERO PUSH2 0x2F9 JUMPI PUSH1 0x0 DUP1 REVERT JUMPDEST DUP2 CALLDATALOAD PUSH1 0x1 PUSH1 0x1 PUSH1 0xA0 SHL SUB DUP2 AND DUP2 EQ PUSH2 0x2BF JUMPI PUSH1 0x0 DUP1 REVERT JUMPDEST PUSH4 0x4E487B71 PUSH1 0xE0 SHL PUSH1 0x0 MSTORE PUSH1 0x21 PUSH1 0x4 MSTORE PUSH1 0x24 PUSH1 0x0 REVERT JUMPDEST PUSH4 0x4E487B71 PUSH1 0xE0 SHL PUSH1 0x0 MSTORE PUSH1 0x12 PUSH1 0x4 MSTORE PUSH1 0x24 PUSH1 0x0 REVERT JUMPDEST PUSH1 0x0 DUP3 PUSH2 0x34B JUMPI PUSH2 0x34B PUSH2 0x326 JUMP JUMPDEST POP MOD SWAP1 JUMP JUMPDEST PUSH1 0x0 DUP3 PUSH2 0x35F JUMPI PUSH2 0x35F PUSH2 0x326 JUMP JUMPDEST POP DIV SWAP1 JUMP JUMPDEST DUP1 DUP3 ADD DUP1 DUP3 GT ISZERO PUSH2 0x385 JUMPI PUSH4 0x4E487B71 PUSH1 0xE0 SHL PUSH1 0x0 MSTORE PUSH1 0x11 PUSH1 0x4 MSTORE PUSH1 0x24 PUSH1 0x0 REVERT JUMPDEST SWAP3 SWAP2 POP POP JUMP INVALID LOG2 PUSH5 0x6970667358 0x22 SLT KECCAK256 KECCAK256 0xF DUP3 CALLCODE CHAINID 0xBD PUSH4 0xF2484ABE DUP5 DUP3 NOT SUB 0x4B PUSH26 0xADC039F4FBFF155A00344C4C741ED264736F6C634300081A0033 ","sha1":"1d6e68b6763cde79d3cfb41a6f6cca798dcc880a","source":"// SPDX-License-Identifier: UNLICENSED\npragma solidity ^0.8.17;\ncontract Policy1  {\n    enum PolicyState {Active, Deactivated}\n\n    mapping(address => bool) public authorities;\n\n    // VARIABLES\n    PolicyState policyState;\n    uint startTime;\n    uint endTime;\n    uint presentTime;\n    // EVENTS\n    event AccessDenied( string message, uint presentTime, uint startTime, uint endTime);\n    event AccessApproved( string message);\n    // MODIFIERS\n    modifier authorities_only(){\n        require(authorities[msg.sender] == true, \"Sender is not an authority.\");\n        _;\n    }    \n    modifier onlyWhenActive(){\n        require(policyState == PolicyState.Active, \"Policy2 is not Active\");\n        _;\n    }\n    constructor(uint _startTime, uint _endTime){\n        policyState = PolicyState.Active;\n        authorities[msg.sender] = true;\n        startTime = _startTime;\n        endTime = _endTime;\n\n    }    \n    function setPolicyState(PolicyState _policyState) public authorities_only(){\n        policyState = _policyState;\n    }\n    function getCurrentTime() internal view returns (uint256 ) {\n        uint256 totalSeconds = block.timestamp % 86400; // Seconds in a day\n        uint presentHours = totalSeconds / 3600 +6; \n        return presentHours ;\n    }\n    function checkPolicy()public onlyWhenActive returns (bool){\n        presentTime = getCurrentTime();\n        if(startTime <= presentTime && presentTime <= endTime){\n            emit AccessApproved( \"Time restriction passed!\" );\n\n            return true;\n        }\n        else{\n            emit AccessDenied( \"Time restriction!!\", presentTime, startTime, endTime);\n            return false;\n        }\n    }\n}","sourcePath":"contracts/Policies/Policy1.sol","type":"contract","deployment":{"address":"0x23b6DA8b86CaE904DB8085A61F140DAe95D4CaD0","chainid":"11155111","blockHeight":6458865}}