{"abi":[{"inputs":[],"stateMutability":"nonpayable","type":"constructor","name":"constructor"},{"anonymous":false,"inputs":[{"indexed":false,"internalType":"address","name":"sub_addr","type":"address"},{"indexed":false,"internalType":"string","name":"sub","type":"string"}],"name":"NewSubjectAdded","type":"event"},{"anonymous":false,"inputs":[{"indexed":false,"internalType":"address","name":"sub_addr","type":"address"}],"name":"SubjectChanged","type":"event"},{"inputs":[{"internalType":"address","name":"authority","type":"address"}],"name":"addAuthority","outputs":[],"stateMutability":"nonpayable","type":"function"},{"inputs":[{"internalType":"address","name":"sub_addr","type":"address"},{"internalType":"string","name":"name","type":"string"},{"internalType":"uint256","name":"trust","type":"uint256"},{"internalType":"enum Device.Category","name":"category","type":"uint8"},{"internalType":"enum Device.Zone","name":"zone","type":"uint8"}],"name":"add_subject","outputs":[],"stateMutability":"nonpayable","type":"function"},{"inputs":[{"internalType":"address","name":"","type":"address"}],"name":"authorities","outputs":[{"internalType":"bool","name":"","type":"bool"}],"stateMutability":"view","type":"function"},{"inputs":[{"internalType":"address","name":"sub_addr","type":"address"},{"internalType":"string","name":"name","type":"string"},{"internalType":"uint256","name":"age","type":"uint256"},{"internalType":"uint256","name":"trust","type":"uint256"},{"internalType":"enum Device.Category","name":"category","type":"uint8"},{"internalType":"enum Device.Zone","name":"zone","type":"uint8"},{"internalType":"uint256[]","name":"history","type":"uint256[]"},{"internalType":"uint256","name":"lastUpdated","type":"uint256"}],"name":"change_attribs","outputs":[],"stateMutability":"nonpayable","type":"function"},{"inputs":[{"internalType":"address","name":"sub_addr","type":"address"}],"name":"check_bitmap","outputs":[{"internalType":"bool","name":"","type":"bool"}],"stateMutability":"view","type":"function"},{"inputs":[{"internalType":"address","name":"sub_addr","type":"address"}],"name":"get_history","outputs":[{"internalType":"uint256[]","name":"","type":"uint256[]"}],"stateMutability":"view","type":"function"},{"inputs":[{"internalType":"address","name":"sub_addr","type":"address"}],"name":"get_trust","outputs":[{"internalType":"uint256","name":"","type":"uint256"}],"stateMutability":"view","type":"function"},{"inputs":[{"internalType":"address","name":"sub_addr","type":"address"},{"internalType":"uint256","name":"current_time","type":"uint256"}],"name":"push_history","outputs":[],"stateMutability":"nonpayable","type":"function"},{"inputs":[{"internalType":"address","name":"sub_addr","type":"address"},{"internalType":"enum Device.State","name":"_state","type":"uint8"}],"name":"set_subject_state","outputs":[],"stateMutability":"nonpayable","type":"function"},{"inputs":[{"internalType":"address","name":"","type":"address"}],"name":"subjects","outputs":[{"internalType":"enum Device.State","name":"state","type":"uint8"},{"internalType":"string","name":"name","type":"string"},{"internalType":"uint256","name":"age","type":"uint256"},{"internalType":"uint256","name":"trust","type":"uint256"},{"internalType":"enum Device.Category","name":"category","type":"uint8"},{"internalType":"enum Device.Zone","name":"zone","type":"uint8"},{"internalType":"uint256","name":"lastUpdated","type":"uint256"}],"stateMutability":"view","type":"function"}],"bytecode":"6080604052348015600f57600080fd5b50336000908152602081905260408120805460ff19908116600190811790925590829055600291909155600380549091166005179055611204806100546000396000f3fe608060405234801561001057600080fd5b506004361061009e5760003560e01c8063841571ed11610066578063841571ed1461014d578063896e2096146101605780638a173b70146101865780638e8d60081461019957806391223d69146101ac57600080fd5b806304b418e2146100a357806326defa73146100cb578063530b36c5146100e0578063535e6d35146101005780635e4dc81c1461013a575b600080fd5b6100b66100b1366004610b4a565b6101cf565b60405190151581526020015b60405180910390f35b6100de6100d9366004610b4a565b6102fd565b005b6100f36100ee366004610b4a565b610355565b6040516100c29190610b6c565b61012c61010e366004610b4a565b6001600160a01b031660009081526004602052604090206003015490565b6040519081526020016100c2565b6100de610148366004610bbf565b6103c4565b6100de61015b366004610cbc565b610436565b61017361016e366004610b4a565b6106b8565b6040516100c29796959493929190610e2f565b6100de610194366004610ec1565b610787565b6100de6101a7366004610eeb565b6107fe565b6100b66101ba366004610b4a565b60006020819052908152604090205460ff1681565b60035460009060ff166102295760405162461bcd60e51b815260206004820152601960248201527f4861736820636f756e742063616e6e6f74206265207a65726f0000000000000060448201526064015b60405180910390fd5b60005b60035460ff168110156102f4576040516bffffffffffffffffffffffff19606085901b16602082015260348101829052600090610100906054016040516020818303038152906040528051906020012060001c6102899190610f68565b905061010081106102ce5760405162461bcd60e51b815260206004820152600f60248201526e4f766572666c6f77204572726f722160881b6044820152606401610220565b6002546001821b9081166000036102ea57506000949350505050565b505060010161022c565b50600192915050565b3360009081526020819052604090205460ff1615156001146103315760405162461bcd60e51b815260040161022090610f8a565b6001600160a01b03166000908152602081905260409020805460ff19166001179055565b6001600160a01b0381166000908152600460209081526040918290206005018054835181840281018401909452808452606093928301828280156103b857602002820191906000526020600020905b8154815260200190600101908083116103a4575b50505050509050919050565b3360009081526020819052604090205460ff1615156001146103f85760405162461bcd60e51b815260040161022090610f8a565b6001600160a01b0382166000908152600460205260409020805482919060ff1916600183600281111561042d5761042d610dec565b02179055505050565b3360009081526020819052604090205460ff16151560011461046a5760405162461bcd60e51b815260040161022090610f8a565b8760006001600160a01b03821660009081526004602052604090205460ff16600281111561049a5761049a610dec565b146104e75760405162461bcd60e51b815260206004820152601b60248201527f4f626a656374207374617465206973206e6f74206163746976652100000000006044820152606401610220565b8751889015610517576001600160a01b038a1660009081526004602052604090206001016105158a8261104a565b505b871561053c576001600160a01b038a1660009081526004602052604090206002018890555b8615610561576001600160a01b038a1660009081526004602052604090206003018790555b600086600381111561057557610575610dec565b146105b9576001600160a01b038a16600090815260046020819052604090912001805487919060ff191660018360038111156105b3576105b3610dec565b02179055505b60008560028111156105cd576105cd610dec565b14610613576001600160a01b038a16600090815260046020819052604090912001805486919061ff00191661010083600281111561060d5761060d610dec565b02179055505b83511561064b576001600160a01b038a166000908152600460209081526040909120855161064992600590920191870190610ace565b505b8215610670576001600160a01b038a1660009081526004602052604090206006018390555b6040516001600160a01b038b1681527f644798de72c3890447d568c96ae8781e30dee9fc66f7e538aa73604943fd05c59060200160405180910390a150505050505050505050565b6004602052600090815260409020805460018201805460ff90921692916106de90610fc1565b80601f016020809104026020016040519081016040528092919081815260200182805461070a90610fc1565b80156107575780601f1061072c57610100808354040283529160200191610757565b820191906000526020600020905b81548152906001019060200180831161073a57829003601f168201915b505050506002830154600384015460048501546006909501549394919390925060ff808316926101009004169087565b3360009081526020819052604090205460ff1615156001146107bb5760405162461bcd60e51b815260040161022090610f8a565b60006107ca6201518083610f68565b6001600160a01b03909316600090815260046020908152604082206005018054600181018255908352912001929092555050565b3360009081526020819052604090205460ff1615156001146108325760405162461bcd60e51b815260040161022090610f8a565b6001805490600061084283611109565b90915550506001600160a01b0385166000908152600460205260409020805460ff19168155600101610874858261104a565b506001600160a01b0385166000908152600460208190526040909120426002820155600380820186905591018054849260ff199091169060019084908111156108bf576108bf610dec565b02179055506001600160a01b038516600090815260046020819052604090912001805482919061ff0019166101008360028111156108ff576108ff610dec565b021790555060408051600080825260208083018085526001600160a01b038a1683526004909152929020905161093b9260059092019190610ace565b506001600160a01b038516600090815260046020526040902042600690910155610964856109c0565b6001600160a01b0385166000908152600460205260409081902090517f1683cc50ac1a71a8f4dad75963c1d06c991028ac82a87fc59580114a45a7930a916109b191889160010190611130565b60405180910390a15050505050565b60035460ff16610a125760405162461bcd60e51b815260206004820152601a60248201527f4861736820636f756e742063616e6e6f74206265207a65726f210000000000006044820152606401610220565b60005b60035460ff16811015610aca576040516bffffffffffffffffffffffff19606084901b16602082015260348101829052600090610100906054016040516020818303038152906040528051906020012060001c610a729190610f68565b90506101008110610ab75760405162461bcd60e51b815260206004820152600f60248201526e4f766572666c6f77204572726f722160881b6044820152606401610220565b6002805460019283901b17905501610a15565b5050565b828054828255906000526020600020908101928215610b09579160200282015b82811115610b09578251825591602001919060010190610aee565b50610b15929150610b19565b5090565b5b80821115610b155760008155600101610b1a565b80356001600160a01b0381168114610b4557600080fd5b919050565b600060208284031215610b5c57600080fd5b610b6582610b2e565b9392505050565b602080825282518282018190526000918401906040840190835b81811015610ba4578351835260209384019390920191600101610b86565b509095945050505050565b60038110610bbc57600080fd5b50565b60008060408385031215610bd257600080fd5b610bdb83610b2e565b91506020830135610beb81610baf565b809150509250929050565b634e487b7160e01b600052604160045260246000fd5b604051601f8201601f1916810167ffffffffffffffff81118282101715610c3557610c35610bf6565b604052919050565b600082601f830112610c4e57600080fd5b813567ffffffffffffffff811115610c6857610c68610bf6565b610c7b601f8201601f1916602001610c0c565b818152846020838601011115610c9057600080fd5b816020850160208301376000918101602001919091529392505050565b803560048110610b4557600080fd5b600080600080600080600080610100898b031215610cd957600080fd5b610ce289610b2e565b9750602089013567ffffffffffffffff811115610cfe57600080fd5b610d0a8b828c01610c3d565b9750506040890135955060608901359450610d2760808a01610cad565b935060a0890135610d3781610baf565b925060c089013567ffffffffffffffff811115610d5357600080fd5b8901601f81018b13610d6457600080fd5b803567ffffffffffffffff811115610d7e57610d7e610bf6565b8060051b610d8e60208201610c0c565b9182526020818401810192908101908e841115610daa57600080fd5b6020850194505b83851015610dd057843580835260209586019590935090910190610db1565b9b9e9a9d50989b979a9699959850959660e00135955050505050565b634e487b7160e01b600052602160045260246000fd5b60038110610bbc57610bbc610dec565b60048110610e2257610e22610dec565b9052565b610e2281610e02565b610e3888610e02565b87815260e06020820152600087518060e084015260005b81811015610e6d576020818b01810151610100868401015201610e4f565b5060006101008285010152610100601f19601f830116840101915050866040830152856060830152610ea26080830186610e12565b610eaf60a0830185610e26565b8260c083015298975050505050505050565b60008060408385031215610ed457600080fd5b610edd83610b2e565b946020939093013593505050565b600080600080600060a08688031215610f0357600080fd5b610f0c86610b2e565b9450602086013567ffffffffffffffff811115610f2857600080fd5b610f3488828901610c3d565b94505060408601359250610f4a60608701610cad565b91506080860135610f5a81610baf565b809150509295509295909350565b600082610f8557634e487b7160e01b600052601260045260246000fd5b500690565b6020808252601b908201527f53656e646572206973206e6f7420616e20617574686f726974792e0000000000604082015260600190565b600181811c90821680610fd557607f821691505b602082108103610ff557634e487b7160e01b600052602260045260246000fd5b50919050565b601f82111561104557806000526020600020601f840160051c810160208510156110225750805b601f840160051c820191505b81811015611042576000815560010161102e565b50505b505050565b815167ffffffffffffffff81111561106457611064610bf6565b611078816110728454610fc1565b84610ffb565b6020601f8211600181146110ac57600083156110945750848201515b600019600385901b1c1916600184901b178455611042565b600084815260208120601f198516915b828110156110dc57878501518255602094850194600190920191016110bc565b50848210156110fa5786840151600019600387901b60f8161c191681555b50505050600190811b01905550565b60006001820161112957634e487b7160e01b600052601160045260246000fd5b5060010190565b6001600160a01b0383168152604060208201528154600090819061115381610fc1565b8060408601526001821660008114611172576001811461118e576111c2565b60ff1983166060870152606082151560051b87010193506111c2565b86600052602060002060005b838110156111b95781548882016060015260019091019060200161119a565b87016060019450505b5091969550505050505056fea2646970667358221220dcd9b62febc0f6436aed0da8055350ebf3d589789e95a3b25680a5dc5556ad9f64736f6c634300081a0033","bytecodeSha1":"9ad330e644996460a46c13895d9c4ed27c962dc7","compiler":{"evm_version":"istanbul","optimizer":{"enabled":true,"runs":200},"version":"0.8.26+commit.8a97fa7a"},"contractName":"SubjectAttribute","language":"Solidity","natspec":{"kind":"dev","methods":{},"version":1},"opcodes":"PUSH1 0x80 PUSH1 0x40 MSTORE CALLVALUE DUP1 ISZERO PUSH2 0x10 JUMPI PUSH1 0x0 DUP1 REVERT JUMPDEST POP PUSH1 0x4 CALLDATASIZE LT PUSH2 0x9E JUMPI PUSH1 0x0 CALLDATALOAD PUSH1 0xE0 SHR DUP1 PUSH4 0x841571ED GT PUSH2 0x66 JUMPI DUP1 PUSH4 0x841571ED EQ PUSH2 0x14D JUMPI DUP1 PUSH4 0x896E2096 EQ PUSH2 0x160 JUMPI DUP1 PUSH4 0x8A173B70 EQ PUSH2 0x186 JUMPI DUP1 PUSH4 0x8E8D6008 EQ PUSH2 0x199 JUMPI DUP1 PUSH4 0x91223D69 EQ PUSH2 0x1AC JUMPI PUSH1 0x0 DUP1 REVERT JUMPDEST DUP1 PUSH4 0x4B418E2 EQ PUSH2 0xA3 JUMPI DUP1 PUSH4 0x26DEFA73 EQ PUSH2 0xCB JUMPI DUP1 PUSH4 0x530B36C5 EQ PUSH2 0xE0 JUMPI DUP1 PUSH4 0x535E6D35 EQ PUSH2 0x100 JUMPI DUP1 PUSH4 0x5E4DC81C EQ PUSH2 0x13A JUMPI JUMPDEST PUSH1 0x0 DUP1 REVERT JUMPDEST PUSH2 0xB6 PUSH2 0xB1 CALLDATASIZE PUSH1 0x4 PUSH2 0xB4A JUMP JUMPDEST PUSH2 0x1CF JUMP JUMPDEST PUSH1 0x40 MLOAD SWAP1 ISZERO ISZERO DUP2 MSTORE PUSH1 0x20 ADD JUMPDEST PUSH1 0x40 MLOAD DUP1 SWAP2 SUB SWAP1 RETURN JUMPDEST PUSH2 0xDE PUSH2 0xD9 CALLDATASIZE PUSH1 0x4 PUSH2 0xB4A JUMP JUMPDEST PUSH2 0x2FD JUMP JUMPDEST STOP JUMPDEST PUSH2 0xF3 PUSH2 0xEE CALLDATASIZE PUSH1 0x4 PUSH2 0xB4A JUMP JUMPDEST PUSH2 0x355 JUMP JUMPDEST PUSH1 0x40 MLOAD PUSH2 0xC2 SWAP2 SWAP1 PUSH2 0xB6C JUMP JUMPDEST PUSH2 0x12C PUSH2 0x10E CALLDATASIZE PUSH1 0x4 PUSH2 0xB4A JUMP JUMPDEST PUSH1 0x1 PUSH1 0x1 PUSH1 0xA0 SHL SUB AND PUSH1 0x0 SWAP1 DUP2 MSTORE PUSH1 0x4 PUSH1 0x20 MSTORE PUSH1 0x40 SWAP1 KECCAK256 PUSH1 0x3 ADD SLOAD SWAP1 JUMP JUMPDEST PUSH1 0x40 MLOAD SWAP1 DUP2 MSTORE PUSH1 0x20 ADD PUSH2 0xC2 JUMP JUMPDEST PUSH2 0xDE PUSH2 0x148 CALLDATASIZE PUSH1 0x4 PUSH2 0xBBF JUMP JUMPDEST PUSH2 0x3C4 JUMP JUMPDEST PUSH2 0xDE PUSH2 0x15B CALLDATASIZE PUSH1 0x4 PUSH2 0xCBC JUMP JUMPDEST PUSH2 0x436 JUMP JUMPDEST PUSH2 0x173 PUSH2 0x16E CALLDATASIZE PUSH1 0x4 PUSH2 0xB4A JUMP JUMPDEST PUSH2 0x6B8 JUMP JUMPDEST PUSH1 0x40 MLOAD PUSH2 0xC2 SWAP8 SWAP7 SWAP6 SWAP5 SWAP4 SWAP3 SWAP2 SWAP1 PUSH2 0xE2F JUMP JUMPDEST PUSH2 0xDE PUSH2 0x194 CALLDATASIZE PUSH1 0x4 PUSH2 0xEC1 JUMP JUMPDEST PUSH2 0x787 JUMP JUMPDEST PUSH2 0xDE PUSH2 0x1A7 CALLDATASIZE PUSH1 0x4 PUSH2 0xEEB JUMP JUMPDEST PUSH2 0x7FE JUMP JUMPDEST PUSH2 0xB6 PUSH2 0x1BA CALLDATASIZE PUSH1 0x4 PUSH2 0xB4A JUMP JUMPDEST PUSH1 0x0 PUSH1 0x20 DUP2 SWAP1 MSTORE SWAP1 DUP2 MSTORE PUSH1 0x40 SWAP1 KECCAK256 SLOAD PUSH1 0xFF AND DUP2 JUMP JUMPDEST PUSH1 0x3 SLOAD PUSH1 0x0 SWAP1 PUSH1 0xFF AND PUSH2 0x229 JUMPI PUSH1 0x40 MLOAD PUSH3 0x461BCD PUSH1 0xE5 SHL DUP2 MSTORE PUSH1 0x20 PUSH1 0x4 DUP3 ADD MSTORE PUSH1 0x19 PUSH1 0x24 DUP3 ADD MSTORE PUSH32 0x4861736820636F756E742063616E6E6F74206265207A65726F00000000000000 PUSH1 0x44 DUP3 ADD MSTORE PUSH1 0x64 ADD JUMPDEST PUSH1 0x40 MLOAD DUP1 SWAP2 SUB SWAP1 REVERT JUMPDEST PUSH1 0x0 JUMPDEST PUSH1 0x3 SLOAD PUSH1 0xFF AND DUP2 LT ISZERO PUSH2 0x2F4 JUMPI PUSH1 0x40 MLOAD PUSH12 0xFFFFFFFFFFFFFFFFFFFFFFFF NOT PUSH1 0x60 DUP6 SWAP1 SHL AND PUSH1 0x20 DUP3 ADD MSTORE PUSH1 0x34 DUP2 ADD DUP3 SWAP1 MSTORE PUSH1 0x0 SWAP1 PUSH2 0x100 SWAP1 PUSH1 0x54 ADD PUSH1 0x40 MLOAD PUSH1 0x20 DUP2 DUP4 SUB SUB DUP2 MSTORE SWAP1 PUSH1 0x40 MSTORE DUP1 MLOAD SWAP1 PUSH1 0x20 ADD KECCAK256 PUSH1 0x0 SHR PUSH2 0x289 SWAP2 SWAP1 PUSH2 0xF68 JUMP JUMPDEST SWAP1 POP PUSH2 0x100 DUP2 LT PUSH2 0x2CE JUMPI PUSH1 0x40 MLOAD PUSH3 0x461BCD PUSH1 0xE5 SHL DUP2 MSTORE PUSH1 0x20 PUSH1 0x4 DUP3 ADD MSTORE PUSH1 0xF PUSH1 0x24 DUP3 ADD MSTORE PUSH15 0x4F766572666C6F77204572726F7221 PUSH1 0x88 SHL PUSH1 0x44 DUP3 ADD MSTORE PUSH1 0x64 ADD PUSH2 0x220 JUMP JUMPDEST PUSH1 0x2 SLOAD PUSH1 0x1 DUP3 SHL SWAP1 DUP2 AND PUSH1 0x0 SUB PUSH2 0x2EA JUMPI POP PUSH1 0x0 SWAP5 SWAP4 POP POP POP POP JUMP JUMPDEST POP POP PUSH1 0x1 ADD PUSH2 0x22C JUMP JUMPDEST POP PUSH1 0x1 SWAP3 SWAP2 POP POP JUMP JUMPDEST CALLER PUSH1 0x0 SWAP1 DUP2 MSTORE PUSH1 0x20 DUP2 SWAP1 MSTORE PUSH1 0x40 SWAP1 KECCAK256 SLOAD PUSH1 0xFF AND ISZERO ISZERO PUSH1 0x1 EQ PUSH2 0x331 JUMPI PUSH1 0x40 MLOAD PUSH3 0x461BCD PUSH1 0xE5 SHL DUP2 MSTORE PUSH1 0x4 ADD PUSH2 0x220 SWAP1 PUSH2 0xF8A JUMP JUMPDEST PUSH1 0x1 PUSH1 0x1 PUSH1 0xA0 SHL SUB AND PUSH1 0x0 SWAP1 DUP2 MSTORE PUSH1 0x20 DUP2 SWAP1 MSTORE PUSH1 0x40 SWAP1 KECCAK256 DUP1 SLOAD PUSH1 0xFF NOT AND PUSH1 0x1 OR SWAP1 SSTORE JUMP JUMPDEST PUSH1 0x1 PUSH1 0x1 PUSH1 0xA0 SHL SUB DUP2 AND PUSH1 0x0 SWAP1 DUP2 MSTORE PUSH1 0x4 PUSH1 0x20 SWAP1 DUP2 MSTORE PUSH1 0x40 SWAP2 DUP3 SWAP1 KECCAK256 PUSH1 0x5 ADD DUP1 SLOAD DUP4 MLOAD DUP2 DUP5 MUL DUP2 ADD DUP5 ADD SWAP1 SWAP5 MSTORE DUP1 DUP5 MSTORE PUSH1 0x60 SWAP4 SWAP3 DUP4 ADD DUP3 DUP3 DUP1 ISZERO PUSH2 0x3B8 JUMPI PUSH1 0x20 MUL DUP3 ADD SWAP2 SWAP1 PUSH1 0x0 MSTORE PUSH1 0x20 PUSH1 0x0 KECCAK256 SWAP1 JUMPDEST DUP2 SLOAD DUP2 MSTORE PUSH1 0x20 ADD SWAP1 PUSH1 0x1 ADD SWAP1 DUP1 DUP4 GT PUSH2 0x3A4 JUMPI JUMPDEST POP POP POP POP POP SWAP1 POP SWAP2 SWAP1 POP JUMP JUMPDEST CALLER PUSH1 0x0 SWAP1 DUP2 MSTORE PUSH1 0x20 DUP2 SWAP1 MSTORE PUSH1 0x40 SWAP1 KECCAK256 SLOAD PUSH1 0xFF AND ISZERO ISZERO PUSH1 0x1 EQ PUSH2 0x3F8 JUMPI PUSH1 0x40 MLOAD PUSH3 0x461BCD PUSH1 0xE5 SHL DUP2 MSTORE PUSH1 0x4 ADD PUSH2 0x220 SWAP1 PUSH2 0xF8A JUMP JUMPDEST PUSH1 0x1 PUSH1 0x1 PUSH1 0xA0 SHL SUB DUP3 AND PUSH1 0x0 SWAP1 DUP2 MSTORE PUSH1 0x4 PUSH1 0x20 MSTORE PUSH1 0x40 SWAP1 KECCAK256 DUP1 SLOAD DUP3 SWAP2 SWAP1 PUSH1 0xFF NOT AND PUSH1 0x1 DUP4 PUSH1 0x2 DUP2 GT ISZERO PUSH2 0x42D JUMPI PUSH2 0x42D PUSH2 0xDEC JUMP JUMPDEST MUL OR SWAP1 SSTORE POP POP POP JUMP JUMPDEST CALLER PUSH1 0x0 SWAP1 DUP2 MSTORE PUSH1 0x20 DUP2 SWAP1 MSTORE PUSH1 0x40 SWAP1 KECCAK256 SLOAD PUSH1 0xFF AND ISZERO ISZERO PUSH1 0x1 EQ PUSH2 0x46A JUMPI PUSH1 0x40 MLOAD PUSH3 0x461BCD PUSH1 0xE5 SHL DUP2 MSTORE PUSH1 0x4 ADD PUSH2 0x220 SWAP1 PUSH2 0xF8A JUMP JUMPDEST DUP8 PUSH1 0x0 PUSH1 0x1 PUSH1 0x1 PUSH1 0xA0 SHL SUB DUP3 AND PUSH1 0x0 SWAP1 DUP2 MSTORE PUSH1 0x4 PUSH1 0x20 MSTORE PUSH1 0x40 SWAP1 KECCAK256 SLOAD PUSH1 0xFF AND PUSH1 0x2 DUP2 GT ISZERO PUSH2 0x49A JUMPI PUSH2 0x49A PUSH2 0xDEC JUMP JUMPDEST EQ PUSH2 0x4E7 JUMPI PUSH1 0x40 MLOAD PUSH3 0x461BCD PUSH1 0xE5 SHL DUP2 MSTORE PUSH1 0x20 PUSH1 0x4 DUP3 ADD MSTORE PUSH1 0x1B PUSH1 0x24 DUP3 ADD MSTORE PUSH32 0x4F626A656374207374617465206973206E6F7420616374697665210000000000 PUSH1 0x44 DUP3 ADD MSTORE PUSH1 0x64 ADD PUSH2 0x220 JUMP JUMPDEST DUP8 MLOAD DUP9 SWAP1 ISZERO PUSH2 0x517 JUMPI PUSH1 0x1 PUSH1 0x1 PUSH1 0xA0 SHL SUB DUP11 AND PUSH1 0x0 SWAP1 DUP2 MSTORE PUSH1 0x4 PUSH1 0x20 MSTORE PUSH1 0x40 SWAP1 KECCAK256 PUSH1 0x1 ADD PUSH2 0x515 DUP11 DUP3 PUSH2 0x104A JUMP JUMPDEST POP JUMPDEST DUP8 ISZERO PUSH2 0x53C JUMPI PUSH1 0x1 PUSH1 0x1 PUSH1 0xA0 SHL SUB DUP11 AND PUSH1 0x0 SWAP1 DUP2 MSTORE PUSH1 0x4 PUSH1 0x20 MSTORE PUSH1 0x40 SWAP1 KECCAK256 PUSH1 0x2 ADD DUP9 SWAP1 SSTORE JUMPDEST DUP7 ISZERO PUSH2 0x561 JUMPI PUSH1 0x1 PUSH1 0x1 PUSH1 0xA0 SHL SUB DUP11 AND PUSH1 0x0 SWAP1 DUP2 MSTORE PUSH1 0x4 PUSH1 0x20 MSTORE PUSH1 0x40 SWAP1 KECCAK256 PUSH1 0x3 ADD DUP8 SWAP1 SSTORE JUMPDEST PUSH1 0x0 DUP7 PUSH1 0x3 DUP2 GT ISZERO PUSH2 0x575 JUMPI PUSH2 0x575 PUSH2 0xDEC JUMP JUMPDEST EQ PUSH2 0x5B9 JUMPI PUSH1 0x1 PUSH1 0x1 PUSH1 0xA0 SHL SUB DUP11 AND PUSH1 0x0 SWAP1 DUP2 MSTORE PUSH1 0x4 PUSH1 0x20 DUP2 SWAP1 MSTORE PUSH1 0x40 SWAP1 SWAP2 KECCAK256 ADD DUP1 SLOAD DUP8 SWAP2 SWAP1 PUSH1 0xFF NOT AND PUSH1 0x1 DUP4 PUSH1 0x3 DUP2 GT ISZERO PUSH2 0x5B3 JUMPI PUSH2 0x5B3 PUSH2 0xDEC JUMP JUMPDEST MUL OR SWAP1 SSTORE POP JUMPDEST PUSH1 0x0 DUP6 PUSH1 0x2 DUP2 GT ISZERO PUSH2 0x5CD JUMPI PUSH2 0x5CD PUSH2 0xDEC JUMP JUMPDEST EQ PUSH2 0x613 JUMPI PUSH1 0x1 PUSH1 0x1 PUSH1 0xA0 SHL SUB DUP11 AND PUSH1 0x0 SWAP1 DUP2 MSTORE PUSH1 0x4 PUSH1 0x20 DUP2 SWAP1 MSTORE PUSH1 0x40 SWAP1 SWAP2 KECCAK256 ADD DUP1 SLOAD DUP7 SWAP2 SWAP1 PUSH2 0xFF00 NOT AND PUSH2 0x100 DUP4 PUSH1 0x2 DUP2 GT ISZERO PUSH2 0x60D JUMPI PUSH2 0x60D PUSH2 0xDEC JUMP JUMPDEST MUL OR SWAP1 SSTORE POP JUMPDEST DUP4 MLOAD ISZERO PUSH2 0x64B JUMPI PUSH1 0x1 PUSH1 0x1 PUSH1 0xA0 SHL SUB DUP11 AND PUSH1 0x0 SWAP1 DUP2 MSTORE PUSH1 0x4 PUSH1 0x20 SWAP1 DUP2 MSTORE PUSH1 0x40 SWAP1 SWAP2 KECCAK256 DUP6 MLOAD PUSH2 0x649 SWAP3 PUSH1 0x5 SWAP1 SWAP3 ADD SWAP2 DUP8 ADD SWAP1 PUSH2 0xACE JUMP JUMPDEST POP JUMPDEST DUP3 ISZERO PUSH2 0x670 JUMPI PUSH1 0x1 PUSH1 0x1 PUSH1 0xA0 SHL SUB DUP11 AND PUSH1 0x0 SWAP1 DUP2 MSTORE PUSH1 0x4 PUSH1 0x20 MSTORE PUSH1 0x40 SWAP1 KECCAK256 PUSH1 0x6 ADD DUP4 SWAP1 SSTORE JUMPDEST PUSH1 0x40 MLOAD PUSH1 0x1 PUSH1 0x1 PUSH1 0xA0 SHL SUB DUP12 AND DUP2 MSTORE PUSH32 0x644798DE72C3890447D568C96AE8781E30DEE9FC66F7E538AA73604943FD05C5 SWAP1 PUSH1 0x20 ADD PUSH1 0x40 MLOAD DUP1 SWAP2 SUB SWAP1 LOG1 POP POP POP POP POP POP POP POP POP POP JUMP JUMPDEST PUSH1 0x4 PUSH1 0x20 MSTORE PUSH1 0x0 SWAP1 DUP2 MSTORE PUSH1 0x40 SWAP1 KECCAK256 DUP1 SLOAD PUSH1 0x1 DUP3 ADD DUP1 SLOAD PUSH1 0xFF SWAP1 SWAP3 AND SWAP3 SWAP2 PUSH2 0x6DE SWAP1 PUSH2 0xFC1 JUMP JUMPDEST DUP1 PUSH1 0x1F ADD PUSH1 0x20 DUP1 SWAP2 DIV MUL PUSH1 0x20 ADD PUSH1 0x40 MLOAD SWAP1 DUP2 ADD PUSH1 0x40 MSTORE DUP1 SWAP3 SWAP2 SWAP1 DUP2 DUP2 MSTORE PUSH1 0x20 ADD DUP3 DUP1 SLOAD PUSH2 0x70A SWAP1 PUSH2 0xFC1 JUMP JUMPDEST DUP1 ISZERO PUSH2 0x757 JUMPI DUP1 PUSH1 0x1F LT PUSH2 0x72C JUMPI PUSH2 0x100 DUP1 DUP4 SLOAD DIV MUL DUP4 MSTORE SWAP2 PUSH1 0x20 ADD SWAP2 PUSH2 0x757 JUMP JUMPDEST DUP3 ADD SWAP2 SWAP1 PUSH1 0x0 MSTORE PUSH1 0x20 PUSH1 0x0 KECCAK256 SWAP1 JUMPDEST DUP2 SLOAD DUP2 MSTORE SWAP1 PUSH1 0x1 ADD SWAP1 PUSH1 0x20 ADD DUP1 DUP4 GT PUSH2 0x73A JUMPI DUP3 SWAP1 SUB PUSH1 0x1F AND DUP3 ADD SWAP2 JUMPDEST POP POP POP POP PUSH1 0x2 DUP4 ADD SLOAD PUSH1 0x3 DUP5 ADD SLOAD PUSH1 0x4 DUP6 ADD SLOAD PUSH1 0x6 SWAP1 SWAP6 ADD SLOAD SWAP4 SWAP5 SWAP2 SWAP4 SWAP1 SWAP3 POP PUSH1 0xFF DUP1 DUP4 AND SWAP3 PUSH2 0x100 SWAP1 DIV AND SWAP1 DUP8 JUMP JUMPDEST CALLER PUSH1 0x0 SWAP1 DUP2 MSTORE PUSH1 0x20 DUP2 SWAP1 MSTORE PUSH1 0x40 SWAP1 KECCAK256 SLOAD PUSH1 0xFF AND ISZERO ISZERO PUSH1 0x1 EQ PUSH2 0x7BB JUMPI PUSH1 0x40 MLOAD PUSH3 0x461BCD PUSH1 0xE5 SHL DUP2 MSTORE PUSH1 0x4 ADD PUSH2 0x220 SWAP1 PUSH2 0xF8A JUMP JUMPDEST PUSH1 0x0 PUSH2 0x7CA PUSH3 0x15180 DUP4 PUSH2 0xF68 JUMP JUMPDEST PUSH1 0x1 PUSH1 0x1 PUSH1 0xA0 SHL SUB SWAP1 SWAP4 AND PUSH1 0x0 SWAP1 DUP2 MSTORE PUSH1 0x4 PUSH1 0x20 SWAP1 DUP2 MSTORE PUSH1 0x40 DUP3 KECCAK256 PUSH1 0x5 ADD DUP1 SLOAD PUSH1 0x1 DUP2 ADD DUP3 SSTORE SWAP1 DUP4 MSTORE SWAP2 KECCAK256 ADD SWAP3 SWAP1 SWAP3 SSTORE POP POP JUMP JUMPDEST CALLER PUSH1 0x0 SWAP1 DUP2 MSTORE PUSH1 0x20 DUP2 SWAP1 MSTORE PUSH1 0x40 SWAP1 KECCAK256 SLOAD PUSH1 0xFF AND ISZERO ISZERO PUSH1 0x1 EQ PUSH2 0x832 JUMPI PUSH1 0x40 MLOAD PUSH3 0x461BCD PUSH1 0xE5 SHL DUP2 MSTORE PUSH1 0x4 ADD PUSH2 0x220 SWAP1 PUSH2 0xF8A JUMP JUMPDEST PUSH1 0x1 DUP1 SLOAD SWAP1 PUSH1 0x0 PUSH2 0x842 DUP4 PUSH2 0x1109 JUMP JUMPDEST SWAP1 SWAP2 SSTORE POP POP PUSH1 0x1 PUSH1 0x1 PUSH1 0xA0 SHL SUB DUP6 AND PUSH1 0x0 SWAP1 DUP2 MSTORE PUSH1 0x4 PUSH1 0x20 MSTORE PUSH1 0x40 SWAP1 KECCAK256 DUP1 SLOAD PUSH1 0xFF NOT AND DUP2 SSTORE PUSH1 0x1 ADD PUSH2 0x874 DUP6 DUP3 PUSH2 0x104A JUMP JUMPDEST POP PUSH1 0x1 PUSH1 0x1 PUSH1 0xA0 SHL SUB DUP6 AND PUSH1 0x0 SWAP1 DUP2 MSTORE PUSH1 0x4 PUSH1 0x20 DUP2 SWAP1 MSTORE PUSH1 0x40 SWAP1 SWAP2 KECCAK256 TIMESTAMP PUSH1 0x2 DUP3 ADD SSTORE PUSH1 0x3 DUP1 DUP3 ADD DUP7 SWAP1 SSTORE SWAP2 ADD DUP1 SLOAD DUP5 SWAP3 PUSH1 0xFF NOT SWAP1 SWAP2 AND SWAP1 PUSH1 0x1 SWAP1 DUP5 SWAP1 DUP2 GT ISZERO PUSH2 0x8BF JUMPI PUSH2 0x8BF PUSH2 0xDEC JUMP JUMPDEST MUL OR SWAP1 SSTORE POP PUSH1 0x1 PUSH1 0x1 PUSH1 0xA0 SHL SUB DUP6 AND PUSH1 0x0 SWAP1 DUP2 MSTORE PUSH1 0x4 PUSH1 0x20 DUP2 SWAP1 MSTORE PUSH1 0x40 SWAP1 SWAP2 KECCAK256 ADD DUP1 SLOAD DUP3 SWAP2 SWAP1 PUSH2 0xFF00 NOT AND PUSH2 0x100 DUP4 PUSH1 0x2 DUP2 GT ISZERO PUSH2 0x8FF JUMPI PUSH2 0x8FF PUSH2 0xDEC JUMP JUMPDEST MUL OR SWAP1 SSTORE POP PUSH1 0x40 DUP1 MLOAD PUSH1 0x0 DUP1 DUP3 MSTORE PUSH1 0x20 DUP1 DUP4 ADD DUP1 DUP6 MSTORE PUSH1 0x1 PUSH1 0x1 PUSH1 0xA0 SHL SUB DUP11 AND DUP4 MSTORE PUSH1 0x4 SWAP1 SWAP2 MSTORE SWAP3 SWAP1 KECCAK256 SWAP1 MLOAD PUSH2 0x93B SWAP3 PUSH1 0x5 SWAP1 SWAP3 ADD SWAP2 SWAP1 PUSH2 0xACE JUMP JUMPDEST POP PUSH1 0x1 PUSH1 0x1 PUSH1 0xA0 SHL SUB DUP6 AND PUSH1 0x0 SWAP1 DUP2 MSTORE PUSH1 0x4 PUSH1 0x20 MSTORE PUSH1 0x40 SWAP1 KECCAK256 TIMESTAMP PUSH1 0x6 SWAP1 SWAP2 ADD SSTORE PUSH2 0x964 DUP6 PUSH2 0x9C0 JUMP JUMPDEST PUSH1 0x1 PUSH1 0x1 PUSH1 0xA0 SHL SUB DUP6 AND PUSH1 0x0 SWAP1 DUP2 MSTORE PUSH1 0x4 PUSH1 0x20 MSTORE PUSH1 0x40 SWAP1 DUP2 SWAP1 KECCAK256 SWAP1 MLOAD PUSH32 0x1683CC50AC1A71A8F4DAD75963C1D06C991028AC82A87FC59580114A45A7930A SWAP2 PUSH2 0x9B1 SWAP2 DUP9 SWAP2 PUSH1 0x1 ADD SWAP1 PUSH2 0x1130 JUMP JUMPDEST PUSH1 0x40 MLOAD DUP1 SWAP2 SUB SWAP1 LOG1 POP POP POP POP POP JUMP JUMPDEST PUSH1 0x3 SLOAD PUSH1 0xFF AND PUSH2 0xA12 JUMPI PUSH1 0x40 MLOAD PUSH3 0x461BCD PUSH1 0xE5 SHL DUP2 MSTORE PUSH1 0x20 PUSH1 0x4 DUP3 ADD MSTORE PUSH1 0x1A PUSH1 0x24 DUP3 ADD MSTORE PUSH32 0x4861736820636F756E742063616E6E6F74206265207A65726F21000000000000 PUSH1 0x44 DUP3 ADD MSTORE PUSH1 0x64 ADD PUSH2 0x220 JUMP JUMPDEST PUSH1 0x0 JUMPDEST PUSH1 0x3 SLOAD PUSH1 0xFF AND DUP2 LT ISZERO PUSH2 0xACA JUMPI PUSH1 0x40 MLOAD PUSH12 0xFFFFFFFFFFFFFFFFFFFFFFFF NOT PUSH1 0x60 DUP5 SWAP1 SHL AND PUSH1 0x20 DUP3 ADD MSTORE PUSH1 0x34 DUP2 ADD DUP3 SWAP1 MSTORE PUSH1 0x0 SWAP1 PUSH2 0x100 SWAP1 PUSH1 0x54 ADD PUSH1 0x40 MLOAD PUSH1 0x20 DUP2 DUP4 SUB SUB DUP2 MSTORE SWAP1 PUSH1 0x40 MSTORE DUP1 MLOAD SWAP1 PUSH1 0x20 ADD KECCAK256 PUSH1 0x0 SHR PUSH2 0xA72 SWAP2 SWAP1 PUSH2 0xF68 JUMP JUMPDEST SWAP1 POP PUSH2 0x100 DUP2 LT PUSH2 0xAB7 JUMPI PUSH1 0x40 MLOAD PUSH3 0x461BCD PUSH1 0xE5 SHL DUP2 MSTORE PUSH1 0x20 PUSH1 0x4 DUP3 ADD MSTORE PUSH1 0xF PUSH1 0x24 DUP3 ADD MSTORE PUSH15 0x4F766572666C6F77204572726F7221 PUSH1 0x88 SHL PUSH1 0x44 DUP3 ADD MSTORE PUSH1 0x64 ADD PUSH2 0x220 JUMP JUMPDEST PUSH1 0x2 DUP1 SLOAD PUSH1 0x1 SWAP3 DUP4 SWAP1 SHL OR SWAP1 SSTORE ADD PUSH2 0xA15 JUMP JUMPDEST POP POP JUMP JUMPDEST DUP3 DUP1 SLOAD DUP3 DUP3 SSTORE SWAP1 PUSH1 0x0 MSTORE PUSH1 0x20 PUSH1 0x0 KECCAK256 SWAP1 DUP2 ADD SWAP3 DUP3 ISZERO PUSH2 0xB09 JUMPI SWAP2 PUSH1 0x20 MUL DUP3 ADD JUMPDEST DUP3 DUP2 GT ISZERO PUSH2 0xB09 JUMPI DUP3 MLOAD DUP3 SSTORE SWAP2 PUSH1 0x20 ADD SWAP2 SWAP1 PUSH1 0x1 ADD SWAP1 PUSH2 0xAEE JUMP JUMPDEST POP PUSH2 0xB15 SWAP3 SWAP2 POP PUSH2 0xB19 JUMP JUMPDEST POP SWAP1 JUMP JUMPDEST JUMPDEST DUP1 DUP3 GT ISZERO PUSH2 0xB15 JUMPI PUSH1 0x0 DUP2 SSTORE PUSH1 0x1 ADD PUSH2 0xB1A JUMP JUMPDEST DUP1 CALLDATALOAD PUSH1 0x1 PUSH1 0x1 PUSH1 0xA0 SHL SUB DUP2 AND DUP2 EQ PUSH2 0xB45 JUMPI PUSH1 0x0 DUP1 REVERT JUMPDEST SWAP2 SWAP1 POP JUMP JUMPDEST PUSH1 0x0 PUSH1 0x20 DUP3 DUP5 SUB SLT ISZERO PUSH2 0xB5C JUMPI PUSH1 0x0 DUP1 REVERT JUMPDEST PUSH2 0xB65 DUP3 PUSH2 0xB2E JUMP JUMPDEST SWAP4 SWAP3 POP POP POP JUMP JUMPDEST PUSH1 0x20 DUP1 DUP3 MSTORE DUP3 MLOAD DUP3 DUP3 ADD DUP2 SWAP1 MSTORE PUSH1 0x0 SWAP2 DUP5 ADD SWAP1 PUSH1 0x40 DUP5 ADD SWAP1 DUP4 JUMPDEST DUP2 DUP2 LT ISZERO PUSH2 0xBA4 JUMPI DUP4 MLOAD DUP4 MSTORE PUSH1 0x20 SWAP4 DUP5 ADD SWAP4 SWAP1 SWAP3 ADD SWAP2 PUSH1 0x1 ADD PUSH2 0xB86 JUMP JUMPDEST POP SWAP1 SWAP6 SWAP5 POP POP POP POP POP JUMP JUMPDEST PUSH1 0x3 DUP2 LT PUSH2 0xBBC JUMPI PUSH1 0x0 DUP1 REVERT JUMPDEST POP JUMP JUMPDEST PUSH1 0x0 DUP1 PUSH1 0x40 DUP4 DUP6 SUB SLT ISZERO PUSH2 0xBD2 JUMPI PUSH1 0x0 DUP1 REVERT JUMPDEST PUSH2 0xBDB DUP4 PUSH2 0xB2E JUMP JUMPDEST SWAP2 POP PUSH1 0x20 DUP4 ADD CALLDATALOAD PUSH2 0xBEB DUP2 PUSH2 0xBAF JUMP JUMPDEST DUP1 SWAP2 POP POP SWAP3 POP SWAP3 SWAP1 POP JUMP JUMPDEST PUSH4 0x4E487B71 PUSH1 0xE0 SHL PUSH1 0x0 MSTORE PUSH1 0x41 PUSH1 0x4 MSTORE PUSH1 0x24 PUSH1 0x0 REVERT JUMPDEST PUSH1 0x40 MLOAD PUSH1 0x1F DUP3 ADD PUSH1 0x1F NOT AND DUP2 ADD PUSH8 0xFFFFFFFFFFFFFFFF DUP2 GT DUP3 DUP3 LT OR ISZERO PUSH2 0xC35 JUMPI PUSH2 0xC35 PUSH2 0xBF6 JUMP JUMPDEST PUSH1 0x40 MSTORE SWAP2 SWAP1 POP JUMP JUMPDEST PUSH1 0x0 DUP3 PUSH1 0x1F DUP4 ADD SLT PUSH2 0xC4E JUMPI PUSH1 0x0 DUP1 REVERT JUMPDEST DUP2 CALLDATALOAD PUSH8 0xFFFFFFFFFFFFFFFF DUP2 GT ISZERO PUSH2 0xC68 JUMPI PUSH2 0xC68 PUSH2 0xBF6 JUMP JUMPDEST PUSH2 0xC7B PUSH1 0x1F DUP3 ADD PUSH1 0x1F NOT AND PUSH1 0x20 ADD PUSH2 0xC0C JUMP JUMPDEST DUP2 DUP2 MSTORE DUP5 PUSH1 0x20 DUP4 DUP7 ADD ADD GT ISZERO PUSH2 0xC90 JUMPI PUSH1 0x0 DUP1 REVERT JUMPDEST DUP2 PUSH1 0x20 DUP6 ADD PUSH1 0x20 DUP4 ADD CALLDATACOPY PUSH1 0x0 SWAP2 DUP2 ADD PUSH1 0x20 ADD SWAP2 SWAP1 SWAP2 MSTORE SWAP4 SWAP3 POP POP POP JUMP JUMPDEST DUP1 CALLDATALOAD PUSH1 0x4 DUP2 LT PUSH2 0xB45 JUMPI PUSH1 0x0 DUP1 REVERT JUMPDEST PUSH1 0x0 DUP1 PUSH1 0x0 DUP1 PUSH1 0x0 DUP1 PUSH1 0x0 DUP1 PUSH2 0x100 DUP10 DUP12 SUB SLT ISZERO PUSH2 0xCD9 JUMPI PUSH1 0x0 DUP1 REVERT JUMPDEST PUSH2 0xCE2 DUP10 PUSH2 0xB2E JUMP JUMPDEST SWAP8 POP PUSH1 0x20 DUP10 ADD CALLDATALOAD PUSH8 0xFFFFFFFFFFFFFFFF DUP2 GT ISZERO PUSH2 0xCFE JUMPI PUSH1 0x0 DUP1 REVERT JUMPDEST PUSH2 0xD0A DUP12 DUP3 DUP13 ADD PUSH2 0xC3D JUMP JUMPDEST SWAP8 POP POP PUSH1 0x40 DUP10 ADD CALLDATALOAD SWAP6 POP PUSH1 0x60 DUP10 ADD CALLDATALOAD SWAP5 POP PUSH2 0xD27 PUSH1 0x80 DUP11 ADD PUSH2 0xCAD JUMP JUMPDEST SWAP4 POP PUSH1 0xA0 DUP10 ADD CALLDATALOAD PUSH2 0xD37 DUP2 PUSH2 0xBAF JUMP JUMPDEST SWAP3 POP PUSH1 0xC0 DUP10 ADD CALLDATALOAD PUSH8 0xFFFFFFFFFFFFFFFF DUP2 GT ISZERO PUSH2 0xD53 JUMPI PUSH1 0x0 DUP1 REVERT JUMPDEST DUP10 ADD PUSH1 0x1F DUP2 ADD DUP12 SGT PUSH2 0xD64 JUMPI PUSH1 0x0 DUP1 REVERT JUMPDEST DUP1 CALLDATALOAD PUSH8 0xFFFFFFFFFFFFFFFF DUP2 GT ISZERO PUSH2 0xD7E JUMPI PUSH2 0xD7E PUSH2 0xBF6 JUMP JUMPDEST DUP1 PUSH1 0x5 SHL PUSH2 0xD8E PUSH1 0x20 DUP3 ADD PUSH2 0xC0C JUMP JUMPDEST SWAP2 DUP3 MSTORE PUSH1 0x20 DUP2 DUP5 ADD DUP2 ADD SWAP3 SWAP1 DUP2 ADD SWAP1 DUP15 DUP5 GT ISZERO PUSH2 0xDAA JUMPI PUSH1 0x0 DUP1 REVERT JUMPDEST PUSH1 0x20 DUP6 ADD SWAP5 POP JUMPDEST DUP4 DUP6 LT ISZERO PUSH2 0xDD0 JUMPI DUP5 CALLDATALOAD DUP1 DUP4 MSTORE PUSH1 0x20 SWAP6 DUP7 ADD SWAP6 SWAP1 SWAP4 POP SWAP1 SWAP2 ADD SWAP1 PUSH2 0xDB1 JUMP JUMPDEST SWAP12 SWAP15 SWAP11 SWAP14 POP SWAP9 SWAP12 SWAP8 SWAP11 SWAP7 SWAP10 SWAP6 SWAP9 POP SWAP6 SWAP7 PUSH1 0xE0 ADD CALLDATALOAD SWAP6 POP POP POP POP POP JUMP JUMPDEST PUSH4 0x4E487B71 PUSH1 0xE0 SHL PUSH1 0x0 MSTORE PUSH1 0x21 PUSH1 0x4 MSTORE PUSH1 0x24 PUSH1 0x0 REVERT JUMPDEST PUSH1 0x3 DUP2 LT PUSH2 0xBBC JUMPI PUSH2 0xBBC PUSH2 0xDEC JUMP JUMPDEST PUSH1 0x4 DUP2 LT PUSH2 0xE22 JUMPI PUSH2 0xE22 PUSH2 0xDEC JUMP JUMPDEST SWAP1 MSTORE JUMP JUMPDEST PUSH2 0xE22 DUP2 PUSH2 0xE02 JUMP JUMPDEST PUSH2 0xE38 DUP9 PUSH2 0xE02 JUMP JUMPDEST DUP8 DUP2 MSTORE PUSH1 0xE0 PUSH1 0x20 DUP3 ADD MSTORE PUSH1 0x0 DUP8 MLOAD DUP1 PUSH1 0xE0 DUP5 ADD MSTORE PUSH1 0x0 JUMPDEST DUP2 DUP2 LT ISZERO PUSH2 0xE6D JUMPI PUSH1 0x20 DUP2 DUP12 ADD DUP2 ADD MLOAD PUSH2 0x100 DUP7 DUP5 ADD ADD MSTORE ADD PUSH2 0xE4F JUMP JUMPDEST POP PUSH1 0x0 PUSH2 0x100 DUP3 DUP6 ADD ADD MSTORE PUSH2 0x100 PUSH1 0x1F NOT PUSH1 0x1F DUP4 ADD AND DUP5 ADD ADD SWAP2 POP POP DUP7 PUSH1 0x40 DUP4 ADD MSTORE DUP6 PUSH1 0x60 DUP4 ADD MSTORE PUSH2 0xEA2 PUSH1 0x80 DUP4 ADD DUP7 PUSH2 0xE12 JUMP JUMPDEST PUSH2 0xEAF PUSH1 0xA0 DUP4 ADD DUP6 PUSH2 0xE26 JUMP JUMPDEST DUP3 PUSH1 0xC0 DUP4 ADD MSTORE SWAP9 SWAP8 POP POP POP POP POP POP POP POP JUMP JUMPDEST PUSH1 0x0 DUP1 PUSH1 0x40 DUP4 DUP6 SUB SLT ISZERO PUSH2 0xED4 JUMPI PUSH1 0x0 DUP1 REVERT JUMPDEST PUSH2 0xEDD DUP4 PUSH2 0xB2E JUMP JUMPDEST SWAP5 PUSH1 0x20 SWAP4 SWAP1 SWAP4 ADD CALLDATALOAD SWAP4 POP POP POP JUMP JUMPDEST PUSH1 0x0 DUP1 PUSH1 0x0 DUP1 PUSH1 0x0 PUSH1 0xA0 DUP7 DUP9 SUB SLT ISZERO PUSH2 0xF03 JUMPI PUSH1 0x0 DUP1 REVERT JUMPDEST PUSH2 0xF0C DUP7 PUSH2 0xB2E JUMP JUMPDEST SWAP5 POP PUSH1 0x20 DUP7 ADD CALLDATALOAD PUSH8 0xFFFFFFFFFFFFFFFF DUP2 GT ISZERO PUSH2 0xF28 JUMPI PUSH1 0x0 DUP1 REVERT JUMPDEST PUSH2 0xF34 DUP9 DUP3 DUP10 ADD PUSH2 0xC3D JUMP JUMPDEST SWAP5 POP POP PUSH1 0x40 DUP7 ADD CALLDATALOAD SWAP3 POP PUSH2 0xF4A PUSH1 0x60 DUP8 ADD PUSH2 0xCAD JUMP JUMPDEST SWAP2 POP PUSH1 0x80 DUP7 ADD CALLDATALOAD PUSH2 0xF5A DUP2 PUSH2 0xBAF JUMP JUMPDEST DUP1 SWAP2 POP POP SWAP3 SWAP6 POP SWAP3 SWAP6 SWAP1 SWAP4 POP JUMP JUMPDEST PUSH1 0x0 DUP3 PUSH2 0xF85 JUMPI PUSH4 0x4E487B71 PUSH1 0xE0 SHL PUSH1 0x0 MSTORE PUSH1 0x12 PUSH1 0x4 MSTORE PUSH1 0x24 PUSH1 0x0 REVERT JUMPDEST POP MOD SWAP1 JUMP JUMPDEST PUSH1 0x20 DUP1 DUP3 MSTORE PUSH1 0x1B SWAP1 DUP3 ADD MSTORE PUSH32 0x53656E646572206973206E6F7420616E20617574686F726974792E0000000000 PUSH1 0x40 DUP3 ADD MSTORE PUSH1 0x60 ADD SWAP1 JUMP JUMPDEST PUSH1 0x1 DUP2 DUP2 SHR SWAP1 DUP3 AND DUP1 PUSH2 0xFD5 JUMPI PUSH1 0x7F DUP3 AND SWAP2 POP JUMPDEST PUSH1 0x20 DUP3 LT DUP2 SUB PUSH2 0xFF5 JUMPI PUSH4 0x4E487B71 PUSH1 0xE0 SHL PUSH1 0x0 MSTORE PUSH1 0x22 PUSH1 0x4 MSTORE PUSH1 0x24 PUSH1 0x0 REVERT JUMPDEST POP SWAP2 SWAP1 POP JUMP JUMPDEST PUSH1 0x1F DUP3 GT ISZERO PUSH2 0x1045 JUMPI DUP1 PUSH1 0x0 MSTORE PUSH1 0x20 PUSH1 0x0 KECCAK256 PUSH1 0x1F DUP5 ADD PUSH1 0x5 SHR DUP2 ADD PUSH1 0x20 DUP6 LT ISZERO PUSH2 0x1022 JUMPI POP DUP1 JUMPDEST PUSH1 0x1F DUP5 ADD PUSH1 0x5 SHR DUP3 ADD SWAP2 POP JUMPDEST DUP2 DUP2 LT ISZERO PUSH2 0x1042 JUMPI PUSH1 0x0 DUP2 SSTORE PUSH1 0x1 ADD PUSH2 0x102E JUMP JUMPDEST POP POP JUMPDEST POP POP POP JUMP JUMPDEST DUP2 MLOAD PUSH8 0xFFFFFFFFFFFFFFFF DUP2 GT ISZERO PUSH2 0x1064 JUMPI PUSH2 0x1064 PUSH2 0xBF6 JUMP JUMPDEST PUSH2 0x1078 DUP2 PUSH2 0x1072 DUP5 SLOAD PUSH2 0xFC1 JUMP JUMPDEST DUP5 PUSH2 0xFFB JUMP JUMPDEST PUSH1 0x20 PUSH1 0x1F DUP3 GT PUSH1 0x1 DUP2 EQ PUSH2 0x10AC JUMPI PUSH1 0x0 DUP4 ISZERO PUSH2 0x1094 JUMPI POP DUP5 DUP3 ADD MLOAD JUMPDEST PUSH1 0x0 NOT PUSH1 0x3 DUP6 SWAP1 SHL SHR NOT AND PUSH1 0x1 DUP5 SWAP1 SHL OR DUP5 SSTORE PUSH2 0x1042 JUMP JUMPDEST PUSH1 0x0 DUP5 DUP2 MSTORE PUSH1 0x20 DUP2 KECCAK256 PUSH1 0x1F NOT DUP6 AND SWAP2 JUMPDEST DUP3 DUP2 LT ISZERO PUSH2 0x10DC JUMPI DUP8 DUP6 ADD MLOAD DUP3 SSTORE PUSH1 0x20 SWAP5 DUP6 ADD SWAP5 PUSH1 0x1 SWAP1 SWAP3 ADD SWAP2 ADD PUSH2 0x10BC JUMP JUMPDEST POP DUP5 DUP3 LT ISZERO PUSH2 0x10FA JUMPI DUP7 DUP5 ADD MLOAD PUSH1 0x0 NOT PUSH1 0x3 DUP8 SWAP1 SHL PUSH1 0xF8 AND SHR NOT AND DUP2 SSTORE JUMPDEST POP POP POP POP PUSH1 0x1 SWAP1 DUP2 SHL ADD SWAP1 SSTORE POP JUMP JUMPDEST PUSH1 0x0 PUSH1 0x1 DUP3 ADD PUSH2 0x1129 JUMPI PUSH4 0x4E487B71 PUSH1 0xE0 SHL PUSH1 0x0 MSTORE PUSH1 0x11 PUSH1 0x4 MSTORE PUSH1 0x24 PUSH1 0x0 REVERT JUMPDEST POP PUSH1 0x1 ADD SWAP1 JUMP JUMPDEST PUSH1 0x1 PUSH1 0x1 PUSH1 0xA0 SHL SUB DUP4 AND DUP2 MSTORE PUSH1 0x40 PUSH1 0x20 DUP3 ADD MSTORE DUP2 SLOAD PUSH1 0x0 SWAP1 DUP2 SWAP1 PUSH2 0x1153 DUP2 PUSH2 0xFC1 JUMP JUMPDEST DUP1 PUSH1 0x40 DUP7 ADD MSTORE PUSH1 0x1 DUP3 AND PUSH1 0x0 DUP2 EQ PUSH2 0x1172 JUMPI PUSH1 0x1 DUP2 EQ PUSH2 0x118E JUMPI PUSH2 0x11C2 JUMP JUMPDEST PUSH1 0xFF NOT DUP4 AND PUSH1 0x60 DUP8 ADD MSTORE PUSH1 0x60 DUP3 ISZERO ISZERO PUSH1 0x5 SHL DUP8 ADD ADD SWAP4 POP PUSH2 0x11C2 JUMP JUMPDEST DUP7 PUSH1 0x0 MSTORE PUSH1 0x20 PUSH1 0x0 KECCAK256 PUSH1 0x0 JUMPDEST DUP4 DUP2 LT ISZERO PUSH2 0x11B9 JUMPI DUP2 SLOAD DUP9 DUP3 ADD PUSH1 0x60 ADD MSTORE PUSH1 0x1 SWAP1 SWAP2 ADD SWAP1 PUSH1 0x20 ADD PUSH2 0x119A JUMP JUMPDEST DUP8 ADD PUSH1 0x60 ADD SWAP5 POP POP JUMPDEST POP SWAP2 SWAP7 SWAP6 POP POP POP POP POP POP JUMP INVALID LOG2 PUSH5 0x6970667358 0x22 SLT KECCAK256 0xDC 0xD9 0xB6 0x2F 0xEB 0xC0 0xF6 NUMBER PUSH11 0xED0DA8055350EBF3D58978 SWAP15 SWAP6 LOG3 0xB2 JUMP DUP1 0xA5 0xDC SSTORE JUMP 0xAD SWAP16 PUSH5 0x736F6C6343 STOP ADDMOD BYTE STOP CALLER ","sha1":"eab0e79d954b189d9f35ee2f56c5b0f9ebfd1532","source":"// SPDX-License-Identifier: UNLICENSED\npragma solidity ^0.8.17;\nimport \"contracts/Device.sol\";\ncontract SubjectAttribute {\n\n    struct Subject {\n        Device.State state;\n        string name; // type of the device\n        uint age; // Number of days since the device was first registered\n        uint trust; // 1 to 10\n        Device.Category category; \n        Device.Zone zone; // Location\n        uint[] history;\n        uint256 lastUpdated; //lastime send request\n    }\n    struct BloomFilter{\n        uint256 bitmap;\n        uint8 hash_count;\n    }\n    \n    // VARIABLES\n    mapping(address => bool) public authorities;\n    uint256 num_subjects;\n    BloomFilter filter;\n    mapping (address => Subject) public subjects;\n    constructor() {\n        authorities[msg.sender] = true;\n        num_subjects = 0;\n        filter.bitmap = 0;\n        filter.hash_count = 5;\n    }\n\n    event NewSubjectAdded(address sub_addr, string sub);\n    event SubjectChanged(address sub_addr);\n        // Modifier\n    //Authorities Only\n    modifier authorities_only(){\n        require(authorities[msg.sender] == true, \"Sender is not an authority.\");\n        _;\n    }\n\n    modifier sub_active(address sub_addr){\n        require(subjects[sub_addr].state == Device.State.Active, \"Object state is not active!\");\n        _;\n    }\n\n    function addAuthority(address authority) public authorities_only() {\n        authorities[authority] = true;\n    }\n    function add_subject (\n        address sub_addr,         \n        string memory name, // type of the device\n        uint trust, // 1 to 10\n        Device.Category category, \n        Device.Zone zone // Location\n        ) public authorities_only() {\n\n        num_subjects++;\n        subjects[sub_addr].state = Device.State.Active;\n        //Subject Attributes:\n        subjects[sub_addr].name = name;\n        subjects[sub_addr].age = block.timestamp;\n        subjects[sub_addr].trust = trust;\n        subjects[sub_addr].category = category;\n        subjects[sub_addr].zone = zone;\n        subjects[sub_addr].history = new uint[](0);\n        subjects[sub_addr].lastUpdated = block.timestamp;\n\n        add_bitmap(sub_addr);\n\n        emit NewSubjectAdded(sub_addr, subjects[sub_addr].name);\n    }\n    //Push present time to history\n    function push_history( address sub_addr,  uint256 current_time) public authorities_only{\n        uint256 present_time = current_time % 86400;\n        subjects[sub_addr].history.push(present_time);\n    }\n    // return the history\n    function get_history(address sub_addr) public view returns(uint[] memory)  {\n        return subjects[sub_addr].history;\n    }\n    // return subject's trust level\n    function get_trust(address sub_addr) public view returns(uint)   {\n        return subjects[sub_addr].trust;\n     }\n    // Adds a subject to bloom filter\n    // By default hash_count is 5 in constructor\n    // hash_count is number of times the sub_addr gets hashed\n    function add_bitmap( /**SUBJECT ID**/address sub_addr )\n    /**MODIFIERS**/\n        internal\n    {\n        require(filter.hash_count > 0, \"Hash count cannot be zero!\");\n        for(uint i = 0; i < filter.hash_count; i++) {\n            uint256 index = uint256(keccak256(abi.encodePacked(sub_addr, i))) % 256;\n            require(index < 256, \"Overflow Error!\");\n            uint256 bit_place = 1 << index;\n            filter.bitmap = filter.bitmap | bit_place;\n        }\n    }\n    function set_subject_state(address sub_addr, Device.State  _state) public authorities_only(){\n        subjects[sub_addr].state = _state;\n    }\n     // Check the sub_addr with the existing bloom filter\n    // to see if sub_addr exists.\n    // Returns true if sub_addr may exist\n    // Returns false if sub_addr definitely doesn't exist\n    function check_bitmap( /**SUBJECT ID**/ address sub_addr )/**MODIFIERS**/external view returns(bool)\n    {\n        require(filter.hash_count > 0, \"Hash count cannot be zero\");\n        for(uint256 i = 0; i < filter.hash_count; i++){\n            uint256 index = uint256(keccak256(abi.encodePacked(sub_addr, i))) % 256;\n            require(index < 256, \"Overflow Error!\");\n            uint256 bit_place = 1 << index;\n            if((filter.bitmap & bit_place) == 0) return false;\n        }\n        return true;\n    }\n\n    // Changes the attributes of a subject\n    // If attribute are blank \"\" skip to next attribute (no change done)\n    // Note: Cannot set any attribute to empty string (blank)\n    // Emits SubjectChanged event\n    function change_attribs( \n        address sub_addr,         \n        string memory name, // type of the device\n        uint age, // Number of days since the device was first registered\n        uint trust, // 1 to 10\n        Device.Category category, \n        Device.Zone zone, // Location\n        uint[] memory history, // history\n        uint lastUpdated //lastime send request\n         )  /**MODIFIERS**/ public authorities_only()  sub_active(sub_addr){\n        bytes memory empty_name = bytes(name);  \n        if (empty_name.length != 0) subjects[sub_addr].name = name;\n        if (age != 0) subjects[sub_addr].age = age;\n        if (trust != 0) subjects[sub_addr].trust = trust;\n        if (category != Device.Category.Security) subjects[sub_addr].category = category;\n        if (zone != Device.Zone.Zone1) subjects[sub_addr].zone = zone; \n        if (history.length != 0) subjects[sub_addr].history = history;\n        if (lastUpdated != 0) subjects[sub_addr].lastUpdated = lastUpdated;\n        \n        emit SubjectChanged(sub_addr);\n\n    }\n}\n\n\n\n\n    \n\n        \n    \n","sourcePath":"contracts/SubjectAttribute.sol","type":"contract","deployment":{"address":"0x6a5E1F9480E7BE55CaD7a41a412866C22ff3FE90","chainid":"11155111","blockHeight":6458800}}