{
  "abi": [
    {
      "inputs": [
        {
          "internalType": "address",
          "name": "sub_con",
          "type": "address"
        },
        {
          "internalType": "address",
          "name": "obj_con",
          "type": "address"
        },
        {
          "internalType": "address",
          "name": "pol1_con",
          "type": "address"
        },
        {
          "internalType": "address",
          "name": "pol2_con",
          "type": "address"
        },
        {
          "internalType": "address",
          "name": "pol3_con",
          "type": "address"
        },
        {
          "internalType": "address",
          "name": "pol4_con",
          "type": "address"
        },
        {
          "internalType": "address",
          "name": "pol5_con",
          "type": "address"
        },
        {
          "internalType": "address",
          "name": "pol6_con",
          "type": "address"
        }
      ],
      "stateMutability": "nonpayable",
      "type": "constructor"
    },
    {
      "anonymous": false,
      "inputs": [
        {
          "indexed": true,
          "internalType": "address",
          "name": "sub_addr",
          "type": "address"
        },
        {
          "indexed": true,
          "internalType": "address",
          "name": "obj_addr",
          "type": "address"
        },
        {
          "indexed": false,
          "internalType": "string",
          "name": "message",
          "type": "string"
        }
      ],
      "name": "AccessDenied",
      "type": "event"
    },
    {
      "anonymous": false,
      "inputs": [
        {
          "indexed": true,
          "internalType": "address",
          "name": "sub_addr",
          "type": "address"
        },
        {
          "indexed": true,
          "internalType": "address",
          "name": "obj_addr",
          "type": "address"
        }
      ],
      "name": "AccessGranted",
      "type": "event"
    },
    {
      "anonymous": false,
      "inputs": [
        {
          "indexed": true,
          "internalType": "address",
          "name": "sub_addr",
          "type": "address"
        }
      ],
      "name": "AuthenticationFailure",
      "type": "event"
    },
    {
      "anonymous": false,
      "inputs": [
        {
          "indexed": true,
          "internalType": "address",
          "name": "sub_addr",
          "type": "address"
        }
      ],
      "name": "AuthenticationSuccess",
      "type": "event"
    },
    {
      "inputs": [
        {
          "internalType": "address",
          "name": "sub_addr",
          "type": "address"
        },
        {
          "internalType": "address",
          "name": "obj_addr",
          "type": "address"
        }
      ],
      "name": "access_control",
      "outputs": [
        {
          "internalType": "bool",
          "name": "",
          "type": "bool"
        }
      ],
      "stateMutability": "nonpayable",
      "type": "function"
    },
    {
      "inputs": [
        {
          "internalType": "address",
          "name": "authority",
          "type": "address"
        }
      ],
      "name": "addAuthority",
      "outputs": [],
      "stateMutability": "nonpayable",
      "type": "function"
    },
    {
      "inputs": [
        {
          "internalType": "address",
          "name": "",
          "type": "address"
        }
      ],
      "name": "authorities",
      "outputs": [
        {
          "internalType": "bool",
          "name": "",
          "type": "bool"
        }
      ],
      "stateMutability": "view",
      "type": "function"
    },
    {
      "inputs": [],
      "name": "object_contract_address",
      "outputs": [
        {
          "internalType": "address",
          "name": "",
          "type": "address"
        }
      ],
      "stateMutability": "view",
      "type": "function"
    },
    {
      "inputs": [],
      "name": "policy1_address",
      "outputs": [
        {
          "internalType": "address",
          "name": "",
          "type": "address"
        }
      ],
      "stateMutability": "view",
      "type": "function"
    },
    {
      "inputs": [],
      "name": "policy2_address",
      "outputs": [
        {
          "internalType": "address",
          "name": "",
          "type": "address"
        }
      ],
      "stateMutability": "view",
      "type": "function"
    },
    {
      "inputs": [],
      "name": "policy3_address",
      "outputs": [
        {
          "internalType": "address",
          "name": "",
          "type": "address"
        }
      ],
      "stateMutability": "view",
      "type": "function"
    },
    {
      "inputs": [],
      "name": "policy4_address",
      "outputs": [
        {
          "internalType": "address",
          "name": "",
          "type": "address"
        }
      ],
      "stateMutability": "view",
      "type": "function"
    },
    {
      "inputs": [],
      "name": "policy5_address",
      "outputs": [
        {
          "internalType": "address",
          "name": "",
          "type": "address"
        }
      ],
      "stateMutability": "view",
      "type": "function"
    },
    {
      "inputs": [],
      "name": "policy6_address",
      "outputs": [
        {
          "internalType": "address",
          "name": "",
          "type": "address"
        }
      ],
      "stateMutability": "view",
      "type": "function"
    },
    {
      "inputs": [
        {
          "internalType": "address",
          "name": "authority",
          "type": "address"
        }
      ],
      "name": "removeAuthority",
      "outputs": [],
      "stateMutability": "nonpayable",
      "type": "function"
    },
    {
      "inputs": [],
      "name": "subject_contract_address",
      "outputs": [
        {
          "internalType": "address",
          "name": "",
          "type": "address"
        }
      ],
      "stateMutability": "view",
      "type": "function"
    }
  ],
  "bytecode": "608060405234801561001057600080fd5b5060405161142c38038061142c83398101604081905261002f916100f6565b3360009081526008602052604081208054600160ff19909116811790915581546001600160a01b03199081166001600160a01b039b8c161790925580548216988a169890981790975560028054881696891696909617909555600380548716948816949094179093556004805486169287169290921790915560058054851691861691909117905560068054841691851691909117905560078054909216921691909117905561018d565b80516001600160a01b03811681146100f157600080fd5b919050565b600080600080600080600080610100898b03121561011357600080fd5b61011c896100da565b975061012a60208a016100da565b965061013860408a016100da565b955061014660608a016100da565b945061015460808a016100da565b935061016260a08a016100da565b925061017060c08a016100da565b915061017e60e08a016100da565b90509295985092959890939650565b6112908061019c6000396000f3fe608060405234801561001057600080fd5b50600436106100b45760003560e01c8063c993582811610071578063c99358281461016a578063cac98c731461017d578063d544e01014610190578063d9e25d27146101a3578063ec9606b3146101b6578063f3f29e7f146101c957600080fd5b806326defa73146100b95780634e6733d1146100ce5780636a2527cc146100fe57806377994a6914610111578063904633821461012457806391223d6914610137575b600080fd5b6100cc6100c7366004610e7d565b6101dc565b005b6004546100e1906001600160a01b031681565b6040516001600160a01b0390911681526020015b60405180910390f35b6005546100e1906001600160a01b031681565b6002546100e1906001600160a01b031681565b6007546100e1906001600160a01b031681565b61015a610145366004610e7d565b60086020526000908152604090205460ff1681565b60405190151581526020016100f5565b61015a610178366004610e9f565b610269565b6006546100e1906001600160a01b031681565b6100cc61019e366004610e7d565b610d46565b6000546100e1906001600160a01b031681565b6003546100e1906001600160a01b031681565b6001546100e1906001600160a01b031681565b3360009081526008602052604090205460ff1615156001146102455760405162461bcd60e51b815260206004820152601b60248201527f53656e646572206973206e6f7420616e20617574686f726974792e000000000060448201526064015b60405180910390fd5b6001600160a01b03166000908152600860205260409020805460ff19166001179055565b6000805460015460405163025a0c7160e11b81526001600160a01b038681166004830152928316929091169082906304b418e290602401602060405180830381865afa1580156102bd573d6000803e3d6000fd5b505050506040513d601f19601f820116820180604052508101906102e19190610ed2565b61037057836001600160a01b0316856001600160a01b031660008051602061121b83398151915260405161033b9060208082526012908201527129bab13532b1ba103737ba103337bab7321760711b604082015260600190565b60405180910390a36040516001600160a01b0386169060008051602061123b83398151915290600090a2600092505050610d40565b6040516001600160a01b038616907f595bb0203eb92b3e42a7053ab62ed609136d3a3ae2860521ba60a3e9607cf2b290600090a260405163025a0c7160e11b81526001600160a01b0385811660048301528216906304b418e290602401602060405180830381865afa1580156103ea573d6000803e3d6000fd5b505050506040513d601f19601f8201168201806040525081019061040e9190610ed2565b61049c57836001600160a01b0316856001600160a01b031660008051602061121b8339815191526040516104679060208082526011908201527027b13532b1ba103737ba103337bab7321760791b604082015260600190565b60405180910390a36040516001600160a01b0385169060008051602061123b83398151915290600090a2600092505050610d40565b6040516001600160a01b038516907f595bb0203eb92b3e42a7053ab62ed609136d3a3ae2860521ba60a3e9607cf2b290600090a26104d8610dcb565b6040516344b7104b60e11b81526001600160a01b03878116600483015284169063896e209690602401600060405180830381865afa15801561051e573d6000803e3d6000fd5b505050506040513d6000823e601f3d908101601f191682016040526105469190810190610fce565b60c08801819052876020810160408201606083016080840160a0850187600281111561057457610574611067565b600281111561058557610585611067565b905287600381111561059957610599611067565b60038111156105aa576105aa611067565b90528790528790528790528760028111156105c7576105c7611067565b60028111156105d8576105d8611067565b815250505050505050506105ea610e1a565b604051633b8142d760e11b81526001600160a01b03878116600483015284169063770285ae90602401600060405180830381865afa158015610630573d6000803e3d6000fd5b505050506040513d6000823e601f3d908101601f19168201604052610658919081019061107d565b866020810160408201606083016080840160a0850186600281111561067f5761067f611067565b600281111561069057610690611067565b90528660038111156106a4576106a4611067565b60038111156106b5576106b5611067565b90528690528690528690528660028111156106d2576106d2611067565b60028111156106e3576106e3611067565b905250600094506106f49350505050565b8251600281111561070757610707611067565b1461079d57856001600160a01b0316876001600160a01b031660008051602061121b8339815191526040516107669060208082526016908201527529bab13532b1ba1034b9903737ba1030b1ba34bb329760511b604082015260600190565b60405180910390a36040516001600160a01b0388169060008051602061123b83398151915290600090a26000945050505050610d40565b6000815160028111156107b2576107b2611067565b1461084757856001600160a01b0316876001600160a01b031660008051602061121b8339815191526040516108109060208082526015908201527427b13532b1ba1034b9903737ba1030b1ba34bb329760591b604082015260600190565b60405180910390a36040516001600160a01b0387169060008051602061123b83398151915290600090a26000945050505050610d40565b6002546003546004805460055460065460075460408051633f4392f160e21b815290516001600160a01b0398891698978816979586169694861695938416949390921692889263fd0e4bc492808301926020929182900301816000875af11580156108b6573d6000803e3d6000fd5b505050506040513d601f19601f820116820180604052508101906108da9190610ed2565b15156000036108f65760009a5050505050505050505050610d40565b60c088015160405163aca6bef760e01b815260048101919091526001600160a01b0386169063aca6bef7906024016020604051808303816000875af1158015610943573d6000803e3d6000fd5b505050506040513d601f19601f820116820180604052508101906109679190610ed2565b15156000036109835760009a5050505050505050505050610d40565b426001600160a01b038b1663841571ed8f6000808080806040519080825280602002602001820160405280156109c3578160200160208202803683370190505b50886040518863ffffffff1660e01b81526004016109e7979695949392919061112b565b600060405180830381600087803b158015610a0157600080fd5b505af1158015610a15573d6000803e3d6000fd5b505050508a6001600160a01b0316638a173b708f836040518363ffffffff1660e01b8152600401610a5b9291906001600160a01b03929092168252602082015260400190565b600060405180830381600087803b158015610a7557600080fd5b505af1158015610a89573d6000803e3d6000fd5b50505050608089810151908901516040516302269e2160e41b81526001600160a01b03881692632269e21092610ac1926004016111c5565b6020604051808303816000875af1158015610ae0573d6000803e3d6000fd5b505050506040513d601f19601f82011682018060405250810190610b049190610ed2565b1515600003610b215760009b505050505050505050505050610d40565b836001600160a01b031663f27d81b08a608001518b606001518b606001516040518463ffffffff1660e01b8152600401610b5d939291906111e0565b6020604051808303816000875af1158015610b7c573d6000803e3d6000fd5b505050506040513d601f19601f82011682018060405250810190610ba09190610ed2565b1515600003610bbd5760009b505050505050505050505050610d40565b60a0808a0151908901516040516302269e2160e41b81526001600160a01b03861692632269e21092610bf1926004016111ff565b6020604051808303816000875af1158015610c10573d6000803e3d6000fd5b505050506040513d601f19601f82011682018060405250810190610c349190610ed2565b1515600003610c515760009b505050505050505050505050610d40565b816001600160a01b031663f79a4fc68a604001518a604001516040518363ffffffff1660e01b8152600401610c90929190918252602082015260400190565b6020604051808303816000875af1158015610caf573d6000803e3d6000fd5b505050506040513d601f19601f82011682018060405250810190610cd39190610ed2565b1515600003610cf05760009b505050505050505050505050610d40565b8c6001600160a01b03168e6001600160a01b03167f9f520b3bfc56d06f7065d10b4683b3f57ac8895d5026cd176dee95ce1454cb8d60405160405180910390a360019b5050505050505050505050505b92915050565b3360009081526008602052604090205460ff161515600114610daa5760405162461bcd60e51b815260206004820152601b60248201527f53656e646572206973206e6f7420616e20617574686f726974792e0000000000604482015260640161023c565b6001600160a01b03166000908152600860205260409020805460ff19169055565b6040805160e08101909152806000815260200160608152602001600081526020016000815260200160006003811115610e0657610e06611067565b815260200160008152602001600081525090565b6040805160c08101909152806000815260200160608152602001600081526020016000815260200160006003811115610e5557610e55611067565b81526020016000905290565b80356001600160a01b0381168114610e7857600080fd5b919050565b600060208284031215610e8f57600080fd5b610e9882610e61565b9392505050565b60008060408385031215610eb257600080fd5b610ebb83610e61565b9150610ec960208401610e61565b90509250929050565b600060208284031215610ee457600080fd5b81518015158114610e9857600080fd5b60038110610f0157600080fd5b50565b634e487b7160e01b600052604160045260246000fd5b600082601f830112610f2b57600080fd5b815167ffffffffffffffff811115610f4557610f45610f04565b604051601f8201601f19908116603f0116810167ffffffffffffffff81118282101715610f7457610f74610f04565b604052818152838201602001851015610f8c57600080fd5b60005b82811015610fab57602081860181015183830182015201610f8f565b506000918101602001919091529392505050565b805160048110610e7857600080fd5b600080600080600080600060e0888a031215610fe957600080fd5b8751610ff481610ef4565b602089015190975067ffffffffffffffff81111561101157600080fd5b61101d8a828b01610f1a565b60408a015160608b01519198509650945061103c905060808901610fbf565b925060a088015161104c81610ef4565b60c09890980151969995985093969295919492935090919050565b634e487b7160e01b600052602160045260246000fd5b60008060008060008060c0878903121561109657600080fd5b86516110a181610ef4565b602088015190965067ffffffffffffffff8111156110be57600080fd5b6110ca89828a01610f1a565b604089015160608a0151919750955093506110e9905060808801610fbf565b915060a08701516110f981610ef4565b809150509295509295509295565b6004811061111757611117611067565b9052565b6003811061111757611117611067565b60018060a01b038816815261010060208201526000610100820152600061012082018860408401528760608401526111666080840188611107565b61117360a084018761111b565b61012060c0840152845190819052602085019061014084019060005b818110156111ad57835183526020938401939092019160010161118f565b505060e0939093019390935250979650505050505050565b604081016111d38285611107565b610e986020830184611107565b606081016111ee8286611107565b602082019390935260400152919050565b6040810161120d828561111b565b610e98602083018461111b56feb9698efb07b9cc58cbbd5d8cd256f2cf3eeeba0f314c12fbc31928fab34dc980268bbef50f8b98dca257690f22cea791ecfb3b1d90dd5c6a893de6a60fccb044a2646970667358221220198dea0a81ca7002a364744af3f22c04eceee3f616cf89b9ad7f11692dfe6bb764736f6c634300081a0033",
  "bytecodeSha1": "388b50c4ee74bf82d6f3d3d222afe78891c0bf53",
  "compiler": {
    "evm_version": "istanbul",
    "optimizer": {
      "enabled": true,
      "runs": 200
    },
    "version": "0.8.26+commit.8a97fa7a"
  },
  "contractName": "BasePolicy",
  "language": "Solidity",
  "natspec": {
    "kind": "dev",
    "methods": {},
    "version": 1
  },
  "opcodes": "PUSH1 0x80 PUSH1 0x40 MSTORE CALLVALUE DUP1 ISZERO PUSH2 0x10 JUMPI PUSH1 0x0 DUP1 REVERT JUMPDEST POP PUSH1 0x4 CALLDATASIZE LT PUSH2 0xB4 JUMPI PUSH1 0x0 CALLDATALOAD PUSH1 0xE0 SHR DUP1 PUSH4 0xC9935828 GT PUSH2 0x71 JUMPI DUP1 PUSH4 0xC9935828 EQ PUSH2 0x16A JUMPI DUP1 PUSH4 0xCAC98C73 EQ PUSH2 0x17D JUMPI DUP1 PUSH4 0xD544E010 EQ PUSH2 0x190 JUMPI DUP1 PUSH4 0xD9E25D27 EQ PUSH2 0x1A3 JUMPI DUP1 PUSH4 0xEC9606B3 EQ PUSH2 0x1B6 JUMPI DUP1 PUSH4 0xF3F29E7F EQ PUSH2 0x1C9 JUMPI PUSH1 0x0 DUP1 REVERT JUMPDEST DUP1 PUSH4 0x26DEFA73 EQ PUSH2 0xB9 JUMPI DUP1 PUSH4 0x4E6733D1 EQ PUSH2 0xCE JUMPI DUP1 PUSH4 0x6A2527CC EQ PUSH2 0xFE JUMPI DUP1 PUSH4 0x77994A69 EQ PUSH2 0x111 JUMPI DUP1 PUSH4 0x90463382 EQ PUSH2 0x124 JUMPI DUP1 PUSH4 0x91223D69 EQ PUSH2 0x137 JUMPI JUMPDEST PUSH1 0x0 DUP1 REVERT JUMPDEST PUSH2 0xCC PUSH2 0xC7 CALLDATASIZE PUSH1 0x4 PUSH2 0xE7D JUMP JUMPDEST PUSH2 0x1DC JUMP JUMPDEST STOP JUMPDEST PUSH1 0x4 SLOAD PUSH2 0xE1 SWAP1 PUSH1 0x1 PUSH1 0x1 PUSH1 0xA0 SHL SUB AND DUP2 JUMP JUMPDEST PUSH1 0x40 MLOAD PUSH1 0x1 PUSH1 0x1 PUSH1 0xA0 SHL SUB SWAP1 SWAP2 AND DUP2 MSTORE PUSH1 0x20 ADD JUMPDEST PUSH1 0x40 MLOAD DUP1 SWAP2 SUB SWAP1 RETURN JUMPDEST PUSH1 0x5 SLOAD PUSH2 0xE1 SWAP1 PUSH1 0x1 PUSH1 0x1 PUSH1 0xA0 SHL SUB AND DUP2 JUMP JUMPDEST PUSH1 0x2 SLOAD PUSH2 0xE1 SWAP1 PUSH1 0x1 PUSH1 0x1 PUSH1 0xA0 SHL SUB AND DUP2 JUMP JUMPDEST PUSH1 0x7 SLOAD PUSH2 0xE1 SWAP1 PUSH1 0x1 PUSH1 0x1 PUSH1 0xA0 SHL SUB AND DUP2 JUMP JUMPDEST PUSH2 0x15A PUSH2 0x145 CALLDATASIZE PUSH1 0x4 PUSH2 0xE7D JUMP JUMPDEST PUSH1 0x8 PUSH1 0x20 MSTORE PUSH1 0x0 SWAP1 DUP2 MSTORE PUSH1 0x40 SWAP1 KECCAK256 SLOAD PUSH1 0xFF AND DUP2 JUMP JUMPDEST PUSH1 0x40 MLOAD SWAP1 ISZERO ISZERO DUP2 MSTORE PUSH1 0x20 ADD PUSH2 0xF5 JUMP JUMPDEST PUSH2 0x15A PUSH2 0x178 CALLDATASIZE PUSH1 0x4 PUSH2 0xE9F JUMP JUMPDEST PUSH2 0x269 JUMP JUMPDEST PUSH1 0x6 SLOAD PUSH2 0xE1 SWAP1 PUSH1 0x1 PUSH1 0x1 PUSH1 0xA0 SHL SUB AND DUP2 JUMP JUMPDEST PUSH2 0xCC PUSH2 0x19E CALLDATASIZE PUSH1 0x4 PUSH2 0xE7D JUMP JUMPDEST PUSH2 0xD46 JUMP JUMPDEST PUSH1 0x0 SLOAD PUSH2 0xE1 SWAP1 PUSH1 0x1 PUSH1 0x1 PUSH1 0xA0 SHL SUB AND DUP2 JUMP JUMPDEST PUSH1 0x3 SLOAD PUSH2 0xE1 SWAP1 PUSH1 0x1 PUSH1 0x1 PUSH1 0xA0 SHL SUB AND DUP2 JUMP JUMPDEST PUSH1 0x1 SLOAD PUSH2 0xE1 SWAP1 PUSH1 0x1 PUSH1 0x1 PUSH1 0xA0 SHL SUB AND DUP2 JUMP JUMPDEST CALLER PUSH1 0x0 SWAP1 DUP2 MSTORE PUSH1 0x8 PUSH1 0x20 MSTORE PUSH1 0x40 SWAP1 KECCAK256 SLOAD PUSH1 0xFF AND ISZERO ISZERO PUSH1 0x1 EQ PUSH2 0x245 JUMPI PUSH1 0x40 MLOAD PUSH3 0x461BCD PUSH1 0xE5 SHL DUP2 MSTORE PUSH1 0x20 PUSH1 0x4 DUP3 ADD MSTORE PUSH1 0x1B PUSH1 0x24 DUP3 ADD MSTORE PUSH32 0x53656E646572206973206E6F7420616E20617574686F726974792E0000000000 PUSH1 0x44 DUP3 ADD MSTORE PUSH1 0x64 ADD JUMPDEST PUSH1 0x40 MLOAD DUP1 SWAP2 SUB SWAP1 REVERT JUMPDEST PUSH1 0x1 PUSH1 0x1 PUSH1 0xA0 SHL SUB AND PUSH1 0x0 SWAP1 DUP2 MSTORE PUSH1 0x8 PUSH1 0x20 MSTORE PUSH1 0x40 SWAP1 KECCAK256 DUP1 SLOAD PUSH1 0xFF NOT AND PUSH1 0x1 OR SWAP1 SSTORE JUMP JUMPDEST PUSH1 0x0 DUP1 SLOAD PUSH1 0x1 SLOAD PUSH1 0x40 MLOAD PUSH4 0x25A0C71 PUSH1 0xE1 SHL DUP2 MSTORE PUSH1 0x1 PUSH1 0x1 PUSH1 0xA0 SHL SUB DUP7 DUP2 AND PUSH1 0x4 DUP4 ADD MSTORE SWAP3 DUP4 AND SWAP3 SWAP1 SWAP2 AND SWAP1 DUP3 SWAP1 PUSH4 0x4B418E2 SWAP1 PUSH1 0x24 ADD PUSH1 0x20 PUSH1 0x40 MLOAD DUP1 DUP4 SUB DUP2 DUP7 GAS STATICCALL ISZERO DUP1 ISZERO PUSH2 0x2BD JUMPI RETURNDATASIZE PUSH1 0x0 DUP1 RETURNDATACOPY RETURNDATASIZE PUSH1 0x0 REVERT JUMPDEST POP POP POP POP PUSH1 0x40 MLOAD RETURNDATASIZE PUSH1 0x1F NOT PUSH1 0x1F DUP3 ADD AND DUP3 ADD DUP1 PUSH1 0x40 MSTORE POP DUP2 ADD SWAP1 PUSH2 0x2E1 SWAP2 SWAP1 PUSH2 0xED2 JUMP JUMPDEST PUSH2 0x370 JUMPI DUP4 PUSH1 0x1 PUSH1 0x1 PUSH1 0xA0 SHL SUB AND DUP6 PUSH1 0x1 PUSH1 0x1 PUSH1 0xA0 SHL SUB AND PUSH1 0x0 DUP1 MLOAD PUSH1 0x20 PUSH2 0x121B DUP4 CODECOPY DUP2 MLOAD SWAP2 MSTORE PUSH1 0x40 MLOAD PUSH2 0x33B SWAP1 PUSH1 0x20 DUP1 DUP3 MSTORE PUSH1 0x12 SWAP1 DUP3 ADD MSTORE PUSH18 0x29BAB13532B1BA103737BA103337BAB73217 PUSH1 0x71 SHL PUSH1 0x40 DUP3 ADD MSTORE PUSH1 0x60 ADD SWAP1 JUMP JUMPDEST PUSH1 0x40 MLOAD DUP1 SWAP2 SUB SWAP1 LOG3 PUSH1 0x40 MLOAD PUSH1 0x1 PUSH1 0x1 PUSH1 0xA0 SHL SUB DUP7 AND SWAP1 PUSH1 0x0 DUP1 MLOAD PUSH1 0x20 PUSH2 0x123B DUP4 CODECOPY DUP2 MLOAD SWAP2 MSTORE SWAP1 PUSH1 0x0 SWAP1 LOG2 PUSH1 0x0 SWAP3 POP POP POP PUSH2 0xD40 JUMP JUMPDEST PUSH1 0x40 MLOAD PUSH1 0x1 PUSH1 0x1 PUSH1 0xA0 SHL SUB DUP7 AND SWAP1 PUSH32 0x595BB0203EB92B3E42A7053AB62ED609136D3A3AE2860521BA60A3E9607CF2B2 SWAP1 PUSH1 0x0 SWAP1 LOG2 PUSH1 0x40 MLOAD PUSH4 0x25A0C71 PUSH1 0xE1 SHL DUP2 MSTORE PUSH1 0x1 PUSH1 0x1 PUSH1 0xA0 SHL SUB DUP6 DUP2 AND PUSH1 0x4 DUP4 ADD MSTORE DUP3 AND SWAP1 PUSH4 0x4B418E2 SWAP1 PUSH1 0x24 ADD PUSH1 0x20 PUSH1 0x40 MLOAD DUP1 DUP4 SUB DUP2 DUP7 GAS STATICCALL ISZERO DUP1 ISZERO PUSH2 0x3EA JUMPI RETURNDATASIZE PUSH1 0x0 DUP1 RETURNDATACOPY RETURNDATASIZE PUSH1 0x0 REVERT JUMPDEST POP POP POP POP PUSH1 0x40 MLOAD RETURNDATASIZE PUSH1 0x1F NOT PUSH1 0x1F DUP3 ADD AND DUP3 ADD DUP1 PUSH1 0x40 MSTORE POP DUP2 ADD SWAP1 PUSH2 0x40E SWAP2 SWAP1 PUSH2 0xED2 JUMP JUMPDEST PUSH2 0x49C JUMPI DUP4 PUSH1 0x1 PUSH1 0x1 PUSH1 0xA0 SHL SUB AND DUP6 PUSH1 0x1 PUSH1 0x1 PUSH1 0xA0 SHL SUB AND PUSH1 0x0 DUP1 MLOAD PUSH1 0x20 PUSH2 0x121B DUP4 CODECOPY DUP2 MLOAD SWAP2 MSTORE PUSH1 0x40 MLOAD PUSH2 0x467 SWAP1 PUSH1 0x20 DUP1 DUP3 MSTORE PUSH1 0x11 SWAP1 DUP3 ADD MSTORE PUSH17 0x27B13532B1BA103737BA103337BAB73217 PUSH1 0x79 SHL PUSH1 0x40 DUP3 ADD MSTORE PUSH1 0x60 ADD SWAP1 JUMP JUMPDEST PUSH1 0x40 MLOAD DUP1 SWAP2 SUB SWAP1 LOG3 PUSH1 0x40 MLOAD PUSH1 0x1 PUSH1 0x1 PUSH1 0xA0 SHL SUB DUP6 AND SWAP1 PUSH1 0x0 DUP1 MLOAD PUSH1 0x20 PUSH2 0x123B DUP4 CODECOPY DUP2 MLOAD SWAP2 MSTORE SWAP1 PUSH1 0x0 SWAP1 LOG2 PUSH1 0x0 SWAP3 POP POP POP PUSH2 0xD40 JUMP JUMPDEST PUSH1 0x40 MLOAD PUSH1 0x1 PUSH1 0x1 PUSH1 0xA0 SHL SUB DUP6 AND SWAP1 PUSH32 0x595BB0203EB92B3E42A7053AB62ED609136D3A3AE2860521BA60A3E9607CF2B2 SWAP1 PUSH1 0x0 SWAP1 LOG2 PUSH2 0x4D8 PUSH2 0xDCB JUMP JUMPDEST PUSH1 0x40 MLOAD PUSH4 0x44B7104B PUSH1 0xE1 SHL DUP2 MSTORE PUSH1 0x1 PUSH1 0x1 PUSH1 0xA0 SHL SUB DUP8 DUP2 AND PUSH1 0x4 DUP4 ADD MSTORE DUP5 AND SWAP1 PUSH4 0x896E2096 SWAP1 PUSH1 0x24 ADD PUSH1 0x0 PUSH1 0x40 MLOAD DUP1 DUP4 SUB DUP2 DUP7 GAS STATICCALL ISZERO DUP1 ISZERO PUSH2 0x51E JUMPI RETURNDATASIZE PUSH1 0x0 DUP1 RETURNDATACOPY RETURNDATASIZE PUSH1 0x0 REVERT JUMPDEST POP POP POP POP PUSH1 0x40 MLOAD RETURNDATASIZE PUSH1 0x0 DUP3 RETURNDATACOPY PUSH1 0x1F RETURNDATASIZE SWAP1 DUP2 ADD PUSH1 0x1F NOT AND DUP3 ADD PUSH1 0x40 MSTORE PUSH2 0x546 SWAP2 SWAP1 DUP2 ADD SWAP1 PUSH2 0xFCE JUMP JUMPDEST PUSH1 0xC0 DUP9 ADD DUP2 SWAP1 MSTORE DUP8 PUSH1 0x20 DUP2 ADD PUSH1 0x40 DUP3 ADD PUSH1 0x60 DUP4 ADD PUSH1 0x80 DUP5 ADD PUSH1 0xA0 DUP6 ADD DUP8 PUSH1 0x2 DUP2 GT ISZERO PUSH2 0x574 JUMPI PUSH2 0x574 PUSH2 0x1067 JUMP JUMPDEST PUSH1 0x2 DUP2 GT ISZERO PUSH2 0x585 JUMPI PUSH2 0x585 PUSH2 0x1067 JUMP JUMPDEST SWAP1 MSTORE DUP8 PUSH1 0x3 DUP2 GT ISZERO PUSH2 0x599 JUMPI PUSH2 0x599 PUSH2 0x1067 JUMP JUMPDEST PUSH1 0x3 DUP2 GT ISZERO PUSH2 0x5AA JUMPI PUSH2 0x5AA PUSH2 0x1067 JUMP JUMPDEST SWAP1 MSTORE DUP8 SWAP1 MSTORE DUP8 SWAP1 MSTORE DUP8 SWAP1 MSTORE DUP8 PUSH1 0x2 DUP2 GT ISZERO PUSH2 0x5C7 JUMPI PUSH2 0x5C7 PUSH2 0x1067 JUMP JUMPDEST PUSH1 0x2 DUP2 GT ISZERO PUSH2 0x5D8 JUMPI PUSH2 0x5D8 PUSH2 0x1067 JUMP JUMPDEST DUP2 MSTORE POP POP POP POP POP POP POP POP PUSH2 0x5EA PUSH2 0xE1A JUMP JUMPDEST PUSH1 0x40 MLOAD PUSH4 0x3B8142D7 PUSH1 0xE1 SHL DUP2 MSTORE PUSH1 0x1 PUSH1 0x1 PUSH1 0xA0 SHL SUB DUP8 DUP2 AND PUSH1 0x4 DUP4 ADD MSTORE DUP5 AND SWAP1 PUSH4 0x770285AE SWAP1 PUSH1 0x24 ADD PUSH1 0x0 PUSH1 0x40 MLOAD DUP1 DUP4 SUB DUP2 DUP7 GAS STATICCALL ISZERO DUP1 ISZERO PUSH2 0x630 JUMPI RETURNDATASIZE PUSH1 0x0 DUP1 RETURNDATACOPY RETURNDATASIZE PUSH1 0x0 REVERT JUMPDEST POP POP POP POP PUSH1 0x40 MLOAD RETURNDATASIZE PUSH1 0x0 DUP3 RETURNDATACOPY PUSH1 0x1F RETURNDATASIZE SWAP1 DUP2 ADD PUSH1 0x1F NOT AND DUP3 ADD PUSH1 0x40 MSTORE PUSH2 0x658 SWAP2 SWAP1 DUP2 ADD SWAP1 PUSH2 0x107D JUMP JUMPDEST DUP7 PUSH1 0x20 DUP2 ADD PUSH1 0x40 DUP3 ADD PUSH1 0x60 DUP4 ADD PUSH1 0x80 DUP5 ADD PUSH1 0xA0 DUP6 ADD DUP7 PUSH1 0x2 DUP2 GT ISZERO PUSH2 0x67F JUMPI PUSH2 0x67F PUSH2 0x1067 JUMP JUMPDEST PUSH1 0x2 DUP2 GT ISZERO PUSH2 0x690 JUMPI PUSH2 0x690 PUSH2 0x1067 JUMP JUMPDEST SWAP1 MSTORE DUP7 PUSH1 0x3 DUP2 GT ISZERO PUSH2 0x6A4 JUMPI PUSH2 0x6A4 PUSH2 0x1067 JUMP JUMPDEST PUSH1 0x3 DUP2 GT ISZERO PUSH2 0x6B5 JUMPI PUSH2 0x6B5 PUSH2 0x1067 JUMP JUMPDEST SWAP1 MSTORE DUP7 SWAP1 MSTORE DUP7 SWAP1 MSTORE DUP7 SWAP1 MSTORE DUP7 PUSH1 0x2 DUP2 GT ISZERO PUSH2 0x6D2 JUMPI PUSH2 0x6D2 PUSH2 0x1067 JUMP JUMPDEST PUSH1 0x2 DUP2 GT ISZERO PUSH2 0x6E3 JUMPI PUSH2 0x6E3 PUSH2 0x1067 JUMP JUMPDEST SWAP1 MSTORE POP PUSH1 0x0 SWAP5 POP PUSH2 0x6F4 SWAP4 POP POP POP POP JUMP JUMPDEST DUP3 MLOAD PUSH1 0x2 DUP2 GT ISZERO PUSH2 0x707 JUMPI PUSH2 0x707 PUSH2 0x1067 JUMP JUMPDEST EQ PUSH2 0x79D JUMPI DUP6 PUSH1 0x1 PUSH1 0x1 PUSH1 0xA0 SHL SUB AND DUP8 PUSH1 0x1 PUSH1 0x1 PUSH1 0xA0 SHL SUB AND PUSH1 0x0 DUP1 MLOAD PUSH1 0x20 PUSH2 0x121B DUP4 CODECOPY DUP2 MLOAD SWAP2 MSTORE PUSH1 0x40 MLOAD PUSH2 0x766 SWAP1 PUSH1 0x20 DUP1 DUP3 MSTORE PUSH1 0x16 SWAP1 DUP3 ADD MSTORE PUSH22 0x29BAB13532B1BA1034B9903737BA1030B1BA34BB3297 PUSH1 0x51 SHL PUSH1 0x40 DUP3 ADD MSTORE PUSH1 0x60 ADD SWAP1 JUMP JUMPDEST PUSH1 0x40 MLOAD DUP1 SWAP2 SUB SWAP1 LOG3 PUSH1 0x40 MLOAD PUSH1 0x1 PUSH1 0x1 PUSH1 0xA0 SHL SUB DUP9 AND SWAP1 PUSH1 0x0 DUP1 MLOAD PUSH1 0x20 PUSH2 0x123B DUP4 CODECOPY DUP2 MLOAD SWAP2 MSTORE SWAP1 PUSH1 0x0 SWAP1 LOG2 PUSH1 0x0 SWAP5 POP POP POP POP POP PUSH2 0xD40 JUMP JUMPDEST PUSH1 0x0 DUP2 MLOAD PUSH1 0x2 DUP2 GT ISZERO PUSH2 0x7B2 JUMPI PUSH2 0x7B2 PUSH2 0x1067 JUMP JUMPDEST EQ PUSH2 0x847 JUMPI DUP6 PUSH1 0x1 PUSH1 0x1 PUSH1 0xA0 SHL SUB AND DUP8 PUSH1 0x1 PUSH1 0x1 PUSH1 0xA0 SHL SUB AND PUSH1 0x0 DUP1 MLOAD PUSH1 0x20 PUSH2 0x121B DUP4 CODECOPY DUP2 MLOAD SWAP2 MSTORE PUSH1 0x40 MLOAD PUSH2 0x810 SWAP1 PUSH1 0x20 DUP1 DUP3 MSTORE PUSH1 0x15 SWAP1 DUP3 ADD MSTORE PUSH21 0x27B13532B1BA1034B9903737BA1030B1BA34BB3297 PUSH1 0x59 SHL PUSH1 0x40 DUP3 ADD MSTORE PUSH1 0x60 ADD SWAP1 JUMP JUMPDEST PUSH1 0x40 MLOAD DUP1 SWAP2 SUB SWAP1 LOG3 PUSH1 0x40 MLOAD PUSH1 0x1 PUSH1 0x1 PUSH1 0xA0 SHL SUB DUP8 AND SWAP1 PUSH1 0x0 DUP1 MLOAD PUSH1 0x20 PUSH2 0x123B DUP4 CODECOPY DUP2 MLOAD SWAP2 MSTORE SWAP1 PUSH1 0x0 SWAP1 LOG2 PUSH1 0x0 SWAP5 POP POP POP POP POP PUSH2 0xD40 JUMP JUMPDEST PUSH1 0x2 SLOAD PUSH1 0x3 SLOAD PUSH1 0x4 DUP1 SLOAD PUSH1 0x5 SLOAD PUSH1 0x6 SLOAD PUSH1 0x7 SLOAD PUSH1 0x40 DUP1 MLOAD PUSH4 0x3F4392F1 PUSH1 0xE2 SHL DUP2 MSTORE SWAP1 MLOAD PUSH1 0x1 PUSH1 0x1 PUSH1 0xA0 SHL SUB SWAP9 DUP10 AND SWAP9 SWAP8 DUP9 AND SWAP8 SWAP6 DUP7 AND SWAP7 SWAP5 DUP7 AND SWAP6 SWAP4 DUP5 AND SWAP5 SWAP4 SWAP1 SWAP3 AND SWAP3 DUP9 SWAP3 PUSH4 0xFD0E4BC4 SWAP3 DUP1 DUP4 ADD SWAP3 PUSH1 0x20 SWAP3 SWAP2 DUP3 SWAP1 SUB ADD DUP2 PUSH1 0x0 DUP8 GAS CALL ISZERO DUP1 ISZERO PUSH2 0x8B6 JUMPI RETURNDATASIZE PUSH1 0x0 DUP1 RETURNDATACOPY RETURNDATASIZE PUSH1 0x0 REVERT JUMPDEST POP POP POP POP PUSH1 0x40 MLOAD RETURNDATASIZE PUSH1 0x1F NOT PUSH1 0x1F DUP3 ADD AND DUP3 ADD DUP1 PUSH1 0x40 MSTORE POP DUP2 ADD SWAP1 PUSH2 0x8DA SWAP2 SWAP1 PUSH2 0xED2 JUMP JUMPDEST ISZERO ISZERO PUSH1 0x0 SUB PUSH2 0x8F6 JUMPI PUSH1 0x0 SWAP11 POP POP POP POP POP POP POP POP POP POP POP PUSH2 0xD40 JUMP JUMPDEST PUSH1 0xC0 DUP9 ADD MLOAD PUSH1 0x40 MLOAD PUSH4 0xACA6BEF7 PUSH1 0xE0 SHL DUP2 MSTORE PUSH1 0x4 DUP2 ADD SWAP2 SWAP1 SWAP2 MSTORE PUSH1 0x1 PUSH1 0x1 PUSH1 0xA0 SHL SUB DUP7 AND SWAP1 PUSH4 0xACA6BEF7 SWAP1 PUSH1 0x24 ADD PUSH1 0x20 PUSH1 0x40 MLOAD DUP1 DUP4 SUB DUP2 PUSH1 0x0 DUP8 GAS CALL ISZERO DUP1 ISZERO PUSH2 0x943 JUMPI RETURNDATASIZE PUSH1 0x0 DUP1 RETURNDATACOPY RETURNDATASIZE PUSH1 0x0 REVERT JUMPDEST POP POP POP POP PUSH1 0x40 MLOAD RETURNDATASIZE PUSH1 0x1F NOT PUSH1 0x1F DUP3 ADD AND DUP3 ADD DUP1 PUSH1 0x40 MSTORE POP DUP2 ADD SWAP1 PUSH2 0x967 SWAP2 SWAP1 PUSH2 0xED2 JUMP JUMPDEST ISZERO ISZERO PUSH1 0x0 SUB PUSH2 0x983 JUMPI PUSH1 0x0 SWAP11 POP POP POP POP POP POP POP POP POP POP POP PUSH2 0xD40 JUMP JUMPDEST TIMESTAMP PUSH1 0x1 PUSH1 0x1 PUSH1 0xA0 SHL SUB DUP12 AND PUSH4 0x841571ED DUP16 PUSH1 0x0 DUP1 DUP1 DUP1 DUP1 PUSH1 0x40 MLOAD SWAP1 DUP1 DUP3 MSTORE DUP1 PUSH1 0x20 MUL PUSH1 0x20 ADD DUP3 ADD PUSH1 0x40 MSTORE DUP1 ISZERO PUSH2 0x9C3 JUMPI DUP2 PUSH1 0x20 ADD PUSH1 0x20 DUP3 MUL DUP1 CALLDATASIZE DUP4 CALLDATACOPY ADD SWAP1 POP JUMPDEST POP DUP9 PUSH1 0x40 MLOAD DUP9 PUSH4 0xFFFFFFFF AND PUSH1 0xE0 SHL DUP2 MSTORE PUSH1 0x4 ADD PUSH2 0x9E7 SWAP8 SWAP7 SWAP6 SWAP5 SWAP4 SWAP3 SWAP2 SWAP1 PUSH2 0x112B JUMP JUMPDEST PUSH1 0x0 PUSH1 0x40 MLOAD DUP1 DUP4 SUB DUP2 PUSH1 0x0 DUP8 DUP1 EXTCODESIZE ISZERO DUP1 ISZERO PUSH2 0xA01 JUMPI PUSH1 0x0 DUP1 REVERT JUMPDEST POP GAS CALL ISZERO DUP1 ISZERO PUSH2 0xA15 JUMPI RETURNDATASIZE PUSH1 0x0 DUP1 RETURNDATACOPY RETURNDATASIZE PUSH1 0x0 REVERT JUMPDEST POP POP POP POP DUP11 PUSH1 0x1 PUSH1 0x1 PUSH1 0xA0 SHL SUB AND PUSH4 0x8A173B70 DUP16 DUP4 PUSH1 0x40 MLOAD DUP4 PUSH4 0xFFFFFFFF AND PUSH1 0xE0 SHL DUP2 MSTORE PUSH1 0x4 ADD PUSH2 0xA5B SWAP3 SWAP2 SWAP1 PUSH1 0x1 PUSH1 0x1 PUSH1 0xA0 SHL SUB SWAP3 SWAP1 SWAP3 AND DUP3 MSTORE PUSH1 0x20 DUP3 ADD MSTORE PUSH1 0x40 ADD SWAP1 JUMP JUMPDEST PUSH1 0x0 PUSH1 0x40 MLOAD DUP1 DUP4 SUB DUP2 PUSH1 0x0 DUP8 DUP1 EXTCODESIZE ISZERO DUP1 ISZERO PUSH2 0xA75 JUMPI PUSH1 0x0 DUP1 REVERT JUMPDEST POP GAS CALL ISZERO DUP1 ISZERO PUSH2 0xA89 JUMPI RETURNDATASIZE PUSH1 0x0 DUP1 RETURNDATACOPY RETURNDATASIZE PUSH1 0x0 REVERT JUMPDEST POP POP POP POP PUSH1 0x80 DUP10 DUP2 ADD MLOAD SWAP1 DUP10 ADD MLOAD PUSH1 0x40 MLOAD PUSH4 0x2269E21 PUSH1 0xE4 SHL DUP2 MSTORE PUSH1 0x1 PUSH1 0x1 PUSH1 0xA0 SHL SUB DUP9 AND SWAP3 PUSH4 0x2269E210 SWAP3 PUSH2 0xAC1 SWAP3 PUSH1 0x4 ADD PUSH2 0x11C5 JUMP JUMPDEST PUSH1 0x20 PUSH1 0x40 MLOAD DUP1 DUP4 SUB DUP2 PUSH1 0x0 DUP8 GAS CALL ISZERO DUP1 ISZERO PUSH2 0xAE0 JUMPI RETURNDATASIZE PUSH1 0x0 DUP1 RETURNDATACOPY RETURNDATASIZE PUSH1 0x0 REVERT JUMPDEST POP POP POP POP PUSH1 0x40 MLOAD RETURNDATASIZE PUSH1 0x1F NOT PUSH1 0x1F DUP3 ADD AND DUP3 ADD DUP1 PUSH1 0x40 MSTORE POP DUP2 ADD SWAP1 PUSH2 0xB04 SWAP2 SWAP1 PUSH2 0xED2 JUMP JUMPDEST ISZERO ISZERO PUSH1 0x0 SUB PUSH2 0xB21 JUMPI PUSH1 0x0 SWAP12 POP POP POP POP POP POP POP POP POP POP POP POP PUSH2 0xD40 JUMP JUMPDEST DUP4 PUSH1 0x1 PUSH1 0x1 PUSH1 0xA0 SHL SUB AND PUSH4 0xF27D81B0 DUP11 PUSH1 0x80 ADD MLOAD DUP12 PUSH1 0x60 ADD MLOAD DUP12 PUSH1 0x60 ADD MLOAD PUSH1 0x40 MLOAD DUP5 PUSH4 0xFFFFFFFF AND PUSH1 0xE0 SHL DUP2 MSTORE PUSH1 0x4 ADD PUSH2 0xB5D SWAP4 SWAP3 SWAP2 SWAP1 PUSH2 0x11E0 JUMP JUMPDEST PUSH1 0x20 PUSH1 0x40 MLOAD DUP1 DUP4 SUB DUP2 PUSH1 0x0 DUP8 GAS CALL ISZERO DUP1 ISZERO PUSH2 0xB7C JUMPI RETURNDATASIZE PUSH1 0x0 DUP1 RETURNDATACOPY RETURNDATASIZE PUSH1 0x0 REVERT JUMPDEST POP POP POP POP PUSH1 0x40 MLOAD RETURNDATASIZE PUSH1 0x1F NOT PUSH1 0x1F DUP3 ADD AND DUP3 ADD DUP1 PUSH1 0x40 MSTORE POP DUP2 ADD SWAP1 PUSH2 0xBA0 SWAP2 SWAP1 PUSH2 0xED2 JUMP JUMPDEST ISZERO ISZERO PUSH1 0x0 SUB PUSH2 0xBBD JUMPI PUSH1 0x0 SWAP12 POP POP POP POP POP POP POP POP POP POP POP POP PUSH2 0xD40 JUMP JUMPDEST PUSH1 0xA0 DUP1 DUP11 ADD MLOAD SWAP1 DUP10 ADD MLOAD PUSH1 0x40 MLOAD PUSH4 0x2269E21 PUSH1 0xE4 SHL DUP2 MSTORE PUSH1 0x1 PUSH1 0x1 PUSH1 0xA0 SHL SUB DUP7 AND SWAP3 PUSH4 0x2269E210 SWAP3 PUSH2 0xBF1 SWAP3 PUSH1 0x4 ADD PUSH2 0x11FF JUMP JUMPDEST PUSH1 0x20 PUSH1 0x40 MLOAD DUP1 DUP4 SUB DUP2 PUSH1 0x0 DUP8 GAS CALL ISZERO DUP1 ISZERO PUSH2 0xC10 JUMPI RETURNDATASIZE PUSH1 0x0 DUP1 RETURNDATACOPY RETURNDATASIZE PUSH1 0x0 REVERT JUMPDEST POP POP POP POP PUSH1 0x40 MLOAD RETURNDATASIZE PUSH1 0x1F NOT PUSH1 0x1F DUP3 ADD AND DUP3 ADD DUP1 PUSH1 0x40 MSTORE POP DUP2 ADD SWAP1 PUSH2 0xC34 SWAP2 SWAP1 PUSH2 0xED2 JUMP JUMPDEST ISZERO ISZERO PUSH1 0x0 SUB PUSH2 0xC51 JUMPI PUSH1 0x0 SWAP12 POP POP POP POP POP POP POP POP POP POP POP POP PUSH2 0xD40 JUMP JUMPDEST DUP2 PUSH1 0x1 PUSH1 0x1 PUSH1 0xA0 SHL SUB AND PUSH4 0xF79A4FC6 DUP11 PUSH1 0x40 ADD MLOAD DUP11 PUSH1 0x40 ADD MLOAD PUSH1 0x40 MLOAD DUP4 PUSH4 0xFFFFFFFF AND PUSH1 0xE0 SHL DUP2 MSTORE PUSH1 0x4 ADD PUSH2 0xC90 SWAP3 SWAP2 SWAP1 SWAP2 DUP3 MSTORE PUSH1 0x20 DUP3 ADD MSTORE PUSH1 0x40 ADD SWAP1 JUMP JUMPDEST PUSH1 0x20 PUSH1 0x40 MLOAD DUP1 DUP4 SUB DUP2 PUSH1 0x0 DUP8 GAS CALL ISZERO DUP1 ISZERO PUSH2 0xCAF JUMPI RETURNDATASIZE PUSH1 0x0 DUP1 RETURNDATACOPY RETURNDATASIZE PUSH1 0x0 REVERT JUMPDEST POP POP POP POP PUSH1 0x40 MLOAD RETURNDATASIZE PUSH1 0x1F NOT PUSH1 0x1F DUP3 ADD AND DUP3 ADD DUP1 PUSH1 0x40 MSTORE POP DUP2 ADD SWAP1 PUSH2 0xCD3 SWAP2 SWAP1 PUSH2 0xED2 JUMP JUMPDEST ISZERO ISZERO PUSH1 0x0 SUB PUSH2 0xCF0 JUMPI PUSH1 0x0 SWAP12 POP POP POP POP POP POP POP POP POP POP POP POP PUSH2 0xD40 JUMP JUMPDEST DUP13 PUSH1 0x1 PUSH1 0x1 PUSH1 0xA0 SHL SUB AND DUP15 PUSH1 0x1 PUSH1 0x1 PUSH1 0xA0 SHL SUB AND PUSH32 0x9F520B3BFC56D06F7065D10B4683B3F57AC8895D5026CD176DEE95CE1454CB8D PUSH1 0x40 MLOAD PUSH1 0x40 MLOAD DUP1 SWAP2 SUB SWAP1 LOG3 PUSH1 0x1 SWAP12 POP POP POP POP POP POP POP POP POP POP POP POP JUMPDEST SWAP3 SWAP2 POP POP JUMP JUMPDEST CALLER PUSH1 0x0 SWAP1 DUP2 MSTORE PUSH1 0x8 PUSH1 0x20 MSTORE PUSH1 0x40 SWAP1 KECCAK256 SLOAD PUSH1 0xFF AND ISZERO ISZERO PUSH1 0x1 EQ PUSH2 0xDAA JUMPI PUSH1 0x40 MLOAD PUSH3 0x461BCD PUSH1 0xE5 SHL DUP2 MSTORE PUSH1 0x20 PUSH1 0x4 DUP3 ADD MSTORE PUSH1 0x1B PUSH1 0x24 DUP3 ADD MSTORE PUSH32 0x53656E646572206973206E6F7420616E20617574686F726974792E0000000000 PUSH1 0x44 DUP3 ADD MSTORE PUSH1 0x64 ADD PUSH2 0x23C JUMP JUMPDEST PUSH1 0x1 PUSH1 0x1 PUSH1 0xA0 SHL SUB AND PUSH1 0x0 SWAP1 DUP2 MSTORE PUSH1 0x8 PUSH1 0x20 MSTORE PUSH1 0x40 SWAP1 KECCAK256 DUP1 SLOAD PUSH1 0xFF NOT AND SWAP1 SSTORE JUMP JUMPDEST PUSH1 0x40 DUP1 MLOAD PUSH1 0xE0 DUP2 ADD SWAP1 SWAP2 MSTORE DUP1 PUSH1 0x0 DUP2 MSTORE PUSH1 0x20 ADD PUSH1 0x60 DUP2 MSTORE PUSH1 0x20 ADD PUSH1 0x0 DUP2 MSTORE PUSH1 0x20 ADD PUSH1 0x0 DUP2 MSTORE PUSH1 0x20 ADD PUSH1 0x0 PUSH1 0x3 DUP2 GT ISZERO PUSH2 0xE06 JUMPI PUSH2 0xE06 PUSH2 0x1067 JUMP JUMPDEST DUP2 MSTORE PUSH1 0x20 ADD PUSH1 0x0 DUP2 MSTORE PUSH1 0x20 ADD PUSH1 0x0 DUP2 MSTORE POP SWAP1 JUMP JUMPDEST PUSH1 0x40 DUP1 MLOAD PUSH1 0xC0 DUP2 ADD SWAP1 SWAP2 MSTORE DUP1 PUSH1 0x0 DUP2 MSTORE PUSH1 0x20 ADD PUSH1 0x60 DUP2 MSTORE PUSH1 0x20 ADD PUSH1 0x0 DUP2 MSTORE PUSH1 0x20 ADD PUSH1 0x0 DUP2 MSTORE PUSH1 0x20 ADD PUSH1 0x0 PUSH1 0x3 DUP2 GT ISZERO PUSH2 0xE55 JUMPI PUSH2 0xE55 PUSH2 0x1067 JUMP JUMPDEST DUP2 MSTORE PUSH1 0x20 ADD PUSH1 0x0 SWAP1 MSTORE SWAP1 JUMP JUMPDEST DUP1 CALLDATALOAD PUSH1 0x1 PUSH1 0x1 PUSH1 0xA0 SHL SUB DUP2 AND DUP2 EQ PUSH2 0xE78 JUMPI PUSH1 0x0 DUP1 REVERT JUMPDEST SWAP2 SWAP1 POP JUMP JUMPDEST PUSH1 0x0 PUSH1 0x20 DUP3 DUP5 SUB SLT ISZERO PUSH2 0xE8F JUMPI PUSH1 0x0 DUP1 REVERT JUMPDEST PUSH2 0xE98 DUP3 PUSH2 0xE61 JUMP JUMPDEST SWAP4 SWAP3 POP POP POP JUMP JUMPDEST PUSH1 0x0 DUP1 PUSH1 0x40 DUP4 DUP6 SUB SLT ISZERO PUSH2 0xEB2 JUMPI PUSH1 0x0 DUP1 REVERT JUMPDEST PUSH2 0xEBB DUP4 PUSH2 0xE61 JUMP JUMPDEST SWAP2 POP PUSH2 0xEC9 PUSH1 0x20 DUP5 ADD PUSH2 0xE61 JUMP JUMPDEST SWAP1 POP SWAP3 POP SWAP3 SWAP1 POP JUMP JUMPDEST PUSH1 0x0 PUSH1 0x20 DUP3 DUP5 SUB SLT ISZERO PUSH2 0xEE4 JUMPI PUSH1 0x0 DUP1 REVERT JUMPDEST DUP2 MLOAD DUP1 ISZERO ISZERO DUP2 EQ PUSH2 0xE98 JUMPI PUSH1 0x0 DUP1 REVERT JUMPDEST PUSH1 0x3 DUP2 LT PUSH2 0xF01 JUMPI PUSH1 0x0 DUP1 REVERT JUMPDEST POP JUMP JUMPDEST PUSH4 0x4E487B71 PUSH1 0xE0 SHL PUSH1 0x0 MSTORE PUSH1 0x41 PUSH1 0x4 MSTORE PUSH1 0x24 PUSH1 0x0 REVERT JUMPDEST PUSH1 0x0 DUP3 PUSH1 0x1F DUP4 ADD SLT PUSH2 0xF2B JUMPI PUSH1 0x0 DUP1 REVERT JUMPDEST DUP2 MLOAD PUSH8 0xFFFFFFFFFFFFFFFF DUP2 GT ISZERO PUSH2 0xF45 JUMPI PUSH2 0xF45 PUSH2 0xF04 JUMP JUMPDEST PUSH1 0x40 MLOAD PUSH1 0x1F DUP3 ADD PUSH1 0x1F NOT SWAP1 DUP2 AND PUSH1 0x3F ADD AND DUP2 ADD PUSH8 0xFFFFFFFFFFFFFFFF DUP2 GT DUP3 DUP3 LT OR ISZERO PUSH2 0xF74 JUMPI PUSH2 0xF74 PUSH2 0xF04 JUMP JUMPDEST PUSH1 0x40 MSTORE DUP2 DUP2 MSTORE DUP4 DUP3 ADD PUSH1 0x20 ADD DUP6 LT ISZERO PUSH2 0xF8C JUMPI PUSH1 0x0 DUP1 REVERT JUMPDEST PUSH1 0x0 JUMPDEST DUP3 DUP2 LT ISZERO PUSH2 0xFAB JUMPI PUSH1 0x20 DUP2 DUP7 ADD DUP2 ADD MLOAD DUP4 DUP4 ADD DUP3 ADD MSTORE ADD PUSH2 0xF8F JUMP JUMPDEST POP PUSH1 0x0 SWAP2 DUP2 ADD PUSH1 0x20 ADD SWAP2 SWAP1 SWAP2 MSTORE SWAP4 SWAP3 POP POP POP JUMP JUMPDEST DUP1 MLOAD PUSH1 0x4 DUP2 LT PUSH2 0xE78 JUMPI PUSH1 0x0 DUP1 REVERT JUMPDEST PUSH1 0x0 DUP1 PUSH1 0x0 DUP1 PUSH1 0x0 DUP1 PUSH1 0x0 PUSH1 0xE0 DUP9 DUP11 SUB SLT ISZERO PUSH2 0xFE9 JUMPI PUSH1 0x0 DUP1 REVERT JUMPDEST DUP8 MLOAD PUSH2 0xFF4 DUP2 PUSH2 0xEF4 JUMP JUMPDEST PUSH1 0x20 DUP10 ADD MLOAD SWAP1 SWAP8 POP PUSH8 0xFFFFFFFFFFFFFFFF DUP2 GT ISZERO PUSH2 0x1011 JUMPI PUSH1 0x0 DUP1 REVERT JUMPDEST PUSH2 0x101D DUP11 DUP3 DUP12 ADD PUSH2 0xF1A JUMP JUMPDEST PUSH1 0x40 DUP11 ADD MLOAD PUSH1 0x60 DUP12 ADD MLOAD SWAP2 SWAP9 POP SWAP7 POP SWAP5 POP PUSH2 0x103C SWAP1 POP PUSH1 0x80 DUP10 ADD PUSH2 0xFBF JUMP JUMPDEST SWAP3 POP PUSH1 0xA0 DUP9 ADD MLOAD PUSH2 0x104C DUP2 PUSH2 0xEF4 JUMP JUMPDEST PUSH1 0xC0 SWAP9 SWAP1 SWAP9 ADD MLOAD SWAP7 SWAP10 SWAP6 SWAP9 POP SWAP4 SWAP7 SWAP3 SWAP6 SWAP2 SWAP5 SWAP3 SWAP4 POP SWAP1 SWAP2 SWAP1 POP JUMP JUMPDEST PUSH4 0x4E487B71 PUSH1 0xE0 SHL PUSH1 0x0 MSTORE PUSH1 0x21 PUSH1 0x4 MSTORE PUSH1 0x24 PUSH1 0x0 REVERT JUMPDEST PUSH1 0x0 DUP1 PUSH1 0x0 DUP1 PUSH1 0x0 DUP1 PUSH1 0xC0 DUP8 DUP10 SUB SLT ISZERO PUSH2 0x1096 JUMPI PUSH1 0x0 DUP1 REVERT JUMPDEST DUP7 MLOAD PUSH2 0x10A1 DUP2 PUSH2 0xEF4 JUMP JUMPDEST PUSH1 0x20 DUP9 ADD MLOAD SWAP1 SWAP7 POP PUSH8 0xFFFFFFFFFFFFFFFF DUP2 GT ISZERO PUSH2 0x10BE JUMPI PUSH1 0x0 DUP1 REVERT JUMPDEST PUSH2 0x10CA DUP10 DUP3 DUP11 ADD PUSH2 0xF1A JUMP JUMPDEST PUSH1 0x40 DUP10 ADD MLOAD PUSH1 0x60 DUP11 ADD MLOAD SWAP2 SWAP8 POP SWAP6 POP SWAP4 POP PUSH2 0x10E9 SWAP1 POP PUSH1 0x80 DUP9 ADD PUSH2 0xFBF JUMP JUMPDEST SWAP2 POP PUSH1 0xA0 DUP8 ADD MLOAD PUSH2 0x10F9 DUP2 PUSH2 0xEF4 JUMP JUMPDEST DUP1 SWAP2 POP POP SWAP3 SWAP6 POP SWAP3 SWAP6 POP SWAP3 SWAP6 JUMP JUMPDEST PUSH1 0x4 DUP2 LT PUSH2 0x1117 JUMPI PUSH2 0x1117 PUSH2 0x1067 JUMP JUMPDEST SWAP1 MSTORE JUMP JUMPDEST PUSH1 0x3 DUP2 LT PUSH2 0x1117 JUMPI PUSH2 0x1117 PUSH2 0x1067 JUMP JUMPDEST PUSH1 0x1 DUP1 PUSH1 0xA0 SHL SUB DUP9 AND DUP2 MSTORE PUSH2 0x100 PUSH1 0x20 DUP3 ADD MSTORE PUSH1 0x0 PUSH2 0x100 DUP3 ADD MSTORE PUSH1 0x0 PUSH2 0x120 DUP3 ADD DUP9 PUSH1 0x40 DUP5 ADD MSTORE DUP8 PUSH1 0x60 DUP5 ADD MSTORE PUSH2 0x1166 PUSH1 0x80 DUP5 ADD DUP9 PUSH2 0x1107 JUMP JUMPDEST PUSH2 0x1173 PUSH1 0xA0 DUP5 ADD DUP8 PUSH2 0x111B JUMP JUMPDEST PUSH2 0x120 PUSH1 0xC0 DUP5 ADD MSTORE DUP5 MLOAD SWAP1 DUP2 SWAP1 MSTORE PUSH1 0x20 DUP6 ADD SWAP1 PUSH2 0x140 DUP5 ADD SWAP1 PUSH1 0x0 JUMPDEST DUP2 DUP2 LT ISZERO PUSH2 0x11AD JUMPI DUP4 MLOAD DUP4 MSTORE PUSH1 0x20 SWAP4 DUP5 ADD SWAP4 SWAP1 SWAP3 ADD SWAP2 PUSH1 0x1 ADD PUSH2 0x118F JUMP JUMPDEST POP POP PUSH1 0xE0 SWAP4 SWAP1 SWAP4 ADD SWAP4 SWAP1 SWAP4 MSTORE POP SWAP8 SWAP7 POP POP POP POP POP POP POP JUMP JUMPDEST PUSH1 0x40 DUP2 ADD PUSH2 0x11D3 DUP3 DUP6 PUSH2 0x1107 JUMP JUMPDEST PUSH2 0xE98 PUSH1 0x20 DUP4 ADD DUP5 PUSH2 0x1107 JUMP JUMPDEST PUSH1 0x60 DUP2 ADD PUSH2 0x11EE DUP3 DUP7 PUSH2 0x1107 JUMP JUMPDEST PUSH1 0x20 DUP3 ADD SWAP4 SWAP1 SWAP4 MSTORE PUSH1 0x40 ADD MSTORE SWAP2 SWAP1 POP JUMP JUMPDEST PUSH1 0x40 DUP2 ADD PUSH2 0x120D DUP3 DUP6 PUSH2 0x111B JUMP JUMPDEST PUSH2 0xE98 PUSH1 0x20 DUP4 ADD DUP5 PUSH2 0x111B JUMP INVALID 0xB9 PUSH10 0x8EFB07B9CC58CBBD5D8C 0xD2 JUMP CALLCODE 0xCF RETURNDATACOPY 0xEE 0xBA 0xF BALANCE 0x4C SLT 0xFB 0xC3 NOT 0x28 STATICCALL 0xB3 0x4D 0xC9 DUP1 0x26 DUP12 0xBE CREATE2 0xF DUP12 SWAP9 0xDC LOG2 JUMPI PUSH10 0xF22CEA791ECFB3B1D90 0xDD TLOAD PUSH11 0x893DE6A60FCCB044A26469 PUSH17 0x667358221220198DEA0A81CA7002A36474 BLOBBASEFEE RETURN CALLCODE 0x2C DIV 0xEC 0xEE 0xE3 0xF6 AND 0xCF DUP10 0xB9 0xAD PUSH32 0x11692DFE6BB764736F6C634300081A0033000000000000000000000000000000 ",
  "sha1": "980fd9318f029d8dff9911202af12f932bc2c0cb",
  "source": "// SPDX-License-Identifier: UNLICENSED\npragma solidity ^0.8.17;\nimport \"contracts/SubjectAttribute.sol\";\nimport \"contracts/ObjectAttribute.sol\";\nimport \"contracts/Policies/Policy1.sol\";\nimport \"contracts/Policies/Policy2.sol\";\nimport \"contracts/Policies/Policy3.sol\";\nimport \"contracts/Policies/Policy4.sol\";\nimport \"contracts/Policies/Policy5.sol\";\nimport \"contracts/Policies/Policy6.sol\";\ncontract BasePolicy{\n    \n    struct Subject {\n        Device.State state;\n        string name; // type od the device\n        uint age; // Number of days since the device was first registered\n        uint trust; // 1 to 10\n        Device.Category category; \n        Device.Zone zone; // Location\n        uint256 lastUpdated; //lastime send request\n    }\n    struct Object {\n        Device.State state;\n        string name; // type od the device\n        uint age; // Number of days since the device was first registered\n        uint trust; // 1 to 10\n        Device.Category category; \n        Device.Zone zone; // Location\n    }    \n    // VARIABLES\n    // These are contract addresses:\n    address public subject_contract_address;\n    address public object_contract_address;\n    address public policy1_address;\n    address public policy2_address;\n    address public policy3_address;\n    address public policy4_address;\n    address public policy5_address;\n    address public policy6_address;\n    mapping(address => bool) public authorities;\n    // EVENTS\n    event AccessGranted(address indexed sub_addr, address indexed obj_addr);\n    event AccessDenied(address indexed sub_addr, address indexed obj_addr, string message);\n    event AuthenticationSuccess(address indexed sub_addr);\n    event AuthenticationFailure(address indexed sub_addr);\n    // MODIFIER\n    modifier authorities_only(){\n        require(authorities[msg.sender] == true, \"Sender is not an authority.\");\n        _;\n    }    \n    constructor(address sub_con, address obj_con, address pol1_con, address pol2_con, \n    address pol3_con,address pol4_con, address pol5_con, address pol6_con) {\n        authorities[msg.sender] = true;\n        subject_contract_address = sub_con;\n        object_contract_address = obj_con;\n        policy1_address = pol1_con;\n        policy2_address = pol2_con;\n        policy3_address = pol3_con;\n        policy4_address = pol4_con;\n        policy5_address = pol5_con;\n        policy6_address = pol6_con;\n    }  \n\n    //Add Authority\n    function addAuthority(address authority) public authorities_only() {\n        authorities[authority] = true;\n    }\n\n    //Remove Authority\n    function removeAuthority(address authority) public authorities_only() {\n        authorities[authority] = false;\n    }\n\n    function access_control(address sub_addr, address obj_addr) public returns (bool)  {\n        SubjectAttribute subject_contract = SubjectAttribute(subject_contract_address);\n        ObjectAttribute object_contract = ObjectAttribute(object_contract_address);\n        // check if the subject (lock) is registered\n        if(!subject_contract.check_bitmap(sub_addr)) {\n            emit AccessDenied(sub_addr, obj_addr, \"Subject not found.\");\n            emit AuthenticationFailure(sub_addr);\n            return false;\n        } else {\n            emit AuthenticationSuccess(sub_addr);\n        }\n        // check if the object (camera) is registered\n        if(!object_contract.check_bitmap(obj_addr)) {\n            emit AccessDenied(sub_addr, obj_addr, \"Object not found.\");\n            emit AuthenticationFailure(obj_addr);\n            return false;\n        } else {\n            emit AuthenticationSuccess(obj_addr);\n        }\n\n        // Get subject info\n        Subject memory sub_info;\n        (sub_info.state, sub_info.name, sub_info.age, sub_info.trust,sub_info.category, sub_info.zone, sub_info.lastUpdated) \n        = subject_contract.subjects(sub_addr);\n        // Get subject info\n        Object memory obj_info;\n        (obj_info.state, obj_info.name, obj_info.age, obj_info.trust,obj_info.category, obj_info.zone) \n        = object_contract.objects(obj_addr);\n        // Check subject & object active status\n        if(sub_info.state != Device.State.Active) {\n            emit AccessDenied(sub_addr, obj_addr, \"Subject is not active.\");\n            emit AuthenticationFailure(sub_addr);\n            return false;\n        \n        } else if(obj_info.state != Device.State.Active) {\n            emit AccessDenied(sub_addr, obj_addr, \"Object is not active.\");\n            emit AuthenticationFailure(obj_addr);\n            return false;\n        }\n        // Get contract info\n        Policy1 policy1_contract = Policy1(policy1_address);\n        Policy2 policy2_contract = Policy2(policy2_address);\n        Policy3 policy3_contract = Policy3(policy3_address);\n        Policy4 policy4_contract = Policy4(policy4_address);\n        Policy5 policy5_contract = Policy5(policy5_address);\n        Policy6 policy6_contract = Policy6(policy6_address);\n        // Change the lastUpdate in Subject\n        if (policy1_contract.checkPolicy()== false){\n            return false;\n        }\n        if( policy2_contract.checkPolicy(sub_info.lastUpdated) == false){\n            return false;\n        }\n        // Change the \"last updated\" Attribute in Subject \n        uint256 current_time = block.timestamp;\n        subject_contract.change_attribs(sub_addr,\"\" , 0, 0, Device.Category.Security, Device.Zone.Zone1, new uint256[](0) , current_time);\n        // Push new request time to history\n        subject_contract.push_history(sub_addr, current_time);\n        // Check policies\n        if( policy3_contract.checkPolicy(sub_info.category, obj_info.category)== false){\n            return false;\n        }\n        if( policy4_contract.checkPolicy(sub_info.category, sub_info.trust, obj_info.trust )== false){\n            return false;\n        }    \n        if( policy5_contract.checkPolicy(sub_info.zone, obj_info.zone)== false) {\n            return false;\n        }     \n        if( policy6_contract.checkPolicy(sub_info.age, obj_info.age)== false) {\n            return false;\n        }  \n        emit AccessGranted(sub_addr, obj_addr);\n        return true;\n    }\n\n}",
  "sourcePath": "contracts/Policies/BasePolicy.sol",
  "type": "contract"
}