{
  "abi": [
    {
      "inputs": [],
      "stateMutability": "nonpayable",
      "type": "constructor"
    },
    {
      "anonymous": false,
      "inputs": [
        {
          "indexed": false,
          "internalType": "string",
          "name": "message",
          "type": "string"
        }
      ],
      "name": "AccessApproved",
      "type": "event"
    },
    {
      "anonymous": false,
      "inputs": [
        {
          "indexed": false,
          "internalType": "string",
          "name": "message",
          "type": "string"
        }
      ],
      "name": "AccessDenied",
      "type": "event"
    },
    {
      "inputs": [
        {
          "internalType": "address",
          "name": "",
          "type": "address"
        }
      ],
      "name": "authorities",
      "outputs": [
        {
          "internalType": "bool",
          "name": "",
          "type": "bool"
        }
      ],
      "stateMutability": "view",
      "type": "function"
    },
    {
      "inputs": [
        {
          "internalType": "enum Device.Category",
          "name": "sub_category",
          "type": "uint8"
        },
        {
          "internalType": "enum Device.Category",
          "name": "obj_category",
          "type": "uint8"
        }
      ],
      "name": "checkPolicy",
      "outputs": [
        {
          "internalType": "bool",
          "name": "",
          "type": "bool"
        }
      ],
      "stateMutability": "nonpayable",
      "type": "function"
    },
    {
      "inputs": [
        {
          "internalType": "enum Policy3.PolicyState",
          "name": "_policyState",
          "type": "uint8"
        }
      ],
      "name": "setPolicyState",
      "outputs": [],
      "stateMutability": "nonpayable",
      "type": "function"
    }
  ],
  "bytecode": "6080604052348015600f57600080fd5b506001805460ff19908116825533600090815260208190526040902080549091169091179055610409806100446000396000f3fe608060405234801561001057600080fd5b50600436106100415760003560e01c80632269e210146100465780633bd31ccd1461006d57806391223d6914610082575b600080fd5b610059610054366004610339565b6100a5565b604051901515815260200160405180910390f35b61008061007b36600461036c565b61029c565b005b610059610090366004610394565b60006020819052908152604090205460ff1681565b6000806001805460ff16908111156100bf576100bf6103bd565b146101095760405162461bcd60e51b8152602060048201526015602482015274506f6c69637933206973206e6f742041637469766560581b60448201526064015b60405180910390fd5b600383600381111561011d5761011d6103bd565b0361018a577f50e8d46dcb719ffeae31cdb40141820a1744374032e7a478588d9300a568fbae60405161017a906020808252601690820152755375626a6563742069732061204d6f6e69746f72202160501b604082015260600190565b60405180910390a1506001610296565b81600381111561019c5761019c6103bd565b8360038111156101ae576101ae6103bd565b0361021d577f50e8d46dcb719ffeae31cdb40141820a1744374032e7a478588d9300a568fbae60405161017a9060208082526022908201527f5375626a65637420616e64204f626a6563742043617465676f7279206d617463604082015261682160f01b606082015260800190565b7ffa521b2cccdb4e77c7c910f706a01f10d54ad95a00ae5eca7241972e5b3d24f360405161028a9060208082526025908201527f5375626a65637420616e64204f626a6563742043617465676f7279206d69736d604082015264617463682160d81b606082015260800190565b60405180910390a15060005b92915050565b3360009081526020819052604090205460ff1615156001146103005760405162461bcd60e51b815260206004820152601b60248201527f53656e646572206973206e6f7420616e20617574686f726974792e00000000006044820152606401610100565b6001805482919060ff191681838181111561031d5761031d6103bd565b021790555050565b80356004811061033457600080fd5b919050565b6000806040838503121561034c57600080fd5b61035583610325565b915061036360208401610325565b90509250929050565b60006020828403121561037e57600080fd5b81356002811061038d57600080fd5b9392505050565b6000602082840312156103a657600080fd5b81356001600160a01b038116811461038d57600080fd5b634e487b7160e01b600052602160045260246000fdfea26469706673582212200858e815e04e797d5ebb8fa3471b15e240f13791ce8a84605adfce379aa222b764736f6c634300081a0033",
  "bytecodeSha1": "4d896c5f12abe4afc36ff90a9bfe7ed5142d1179",
  "compiler": {
    "evm_version": "istanbul",
    "optimizer": {
      "enabled": true,
      "runs": 200
    },
    "version": "0.8.26+commit.8a97fa7a"
  },
  "contractName": "Policy3",
  "language": "Solidity",
  "natspec": {
    "kind": "dev",
    "methods": {},
    "version": 1
  },
  "opcodes": "PUSH1 0x80 PUSH1 0x40 MSTORE CALLVALUE DUP1 ISZERO PUSH2 0x10 JUMPI PUSH1 0x0 DUP1 REVERT JUMPDEST POP PUSH1 0x4 CALLDATASIZE LT PUSH2 0x41 JUMPI PUSH1 0x0 CALLDATALOAD PUSH1 0xE0 SHR DUP1 PUSH4 0x2269E210 EQ PUSH2 0x46 JUMPI DUP1 PUSH4 0x3BD31CCD EQ PUSH2 0x6D JUMPI DUP1 PUSH4 0x91223D69 EQ PUSH2 0x82 JUMPI JUMPDEST PUSH1 0x0 DUP1 REVERT JUMPDEST PUSH2 0x59 PUSH2 0x54 CALLDATASIZE PUSH1 0x4 PUSH2 0x339 JUMP JUMPDEST PUSH2 0xA5 JUMP JUMPDEST PUSH1 0x40 MLOAD SWAP1 ISZERO ISZERO DUP2 MSTORE PUSH1 0x20 ADD PUSH1 0x40 MLOAD DUP1 SWAP2 SUB SWAP1 RETURN JUMPDEST PUSH2 0x80 PUSH2 0x7B CALLDATASIZE PUSH1 0x4 PUSH2 0x36C JUMP JUMPDEST PUSH2 0x29C JUMP JUMPDEST STOP JUMPDEST PUSH2 0x59 PUSH2 0x90 CALLDATASIZE PUSH1 0x4 PUSH2 0x394 JUMP JUMPDEST PUSH1 0x0 PUSH1 0x20 DUP2 SWAP1 MSTORE SWAP1 DUP2 MSTORE PUSH1 0x40 SWAP1 KECCAK256 SLOAD PUSH1 0xFF AND DUP2 JUMP JUMPDEST PUSH1 0x0 DUP1 PUSH1 0x1 DUP1 SLOAD PUSH1 0xFF AND SWAP1 DUP2 GT ISZERO PUSH2 0xBF JUMPI PUSH2 0xBF PUSH2 0x3BD JUMP JUMPDEST EQ PUSH2 0x109 JUMPI PUSH1 0x40 MLOAD PUSH3 0x461BCD PUSH1 0xE5 SHL DUP2 MSTORE PUSH1 0x20 PUSH1 0x4 DUP3 ADD MSTORE PUSH1 0x15 PUSH1 0x24 DUP3 ADD MSTORE PUSH21 0x506F6C69637933206973206E6F7420416374697665 PUSH1 0x58 SHL PUSH1 0x44 DUP3 ADD MSTORE PUSH1 0x64 ADD JUMPDEST PUSH1 0x40 MLOAD DUP1 SWAP2 SUB SWAP1 REVERT JUMPDEST PUSH1 0x3 DUP4 PUSH1 0x3 DUP2 GT ISZERO PUSH2 0x11D JUMPI PUSH2 0x11D PUSH2 0x3BD JUMP JUMPDEST SUB PUSH2 0x18A JUMPI PUSH32 0x50E8D46DCB719FFEAE31CDB40141820A1744374032E7A478588D9300A568FBAE PUSH1 0x40 MLOAD PUSH2 0x17A SWAP1 PUSH1 0x20 DUP1 DUP3 MSTORE PUSH1 0x16 SWAP1 DUP3 ADD MSTORE PUSH22 0x5375626A6563742069732061204D6F6E69746F722021 PUSH1 0x50 SHL PUSH1 0x40 DUP3 ADD MSTORE PUSH1 0x60 ADD SWAP1 JUMP JUMPDEST PUSH1 0x40 MLOAD DUP1 SWAP2 SUB SWAP1 LOG1 POP PUSH1 0x1 PUSH2 0x296 JUMP JUMPDEST DUP2 PUSH1 0x3 DUP2 GT ISZERO PUSH2 0x19C JUMPI PUSH2 0x19C PUSH2 0x3BD JUMP JUMPDEST DUP4 PUSH1 0x3 DUP2 GT ISZERO PUSH2 0x1AE JUMPI PUSH2 0x1AE PUSH2 0x3BD JUMP JUMPDEST SUB PUSH2 0x21D JUMPI PUSH32 0x50E8D46DCB719FFEAE31CDB40141820A1744374032E7A478588D9300A568FBAE PUSH1 0x40 MLOAD PUSH2 0x17A SWAP1 PUSH1 0x20 DUP1 DUP3 MSTORE PUSH1 0x22 SWAP1 DUP3 ADD MSTORE PUSH32 0x5375626A65637420616E64204F626A6563742043617465676F7279206D617463 PUSH1 0x40 DUP3 ADD MSTORE PUSH2 0x6821 PUSH1 0xF0 SHL PUSH1 0x60 DUP3 ADD MSTORE PUSH1 0x80 ADD SWAP1 JUMP JUMPDEST PUSH32 0xFA521B2CCCDB4E77C7C910F706A01F10D54AD95A00AE5ECA7241972E5B3D24F3 PUSH1 0x40 MLOAD PUSH2 0x28A SWAP1 PUSH1 0x20 DUP1 DUP3 MSTORE PUSH1 0x25 SWAP1 DUP3 ADD MSTORE PUSH32 0x5375626A65637420616E64204F626A6563742043617465676F7279206D69736D PUSH1 0x40 DUP3 ADD MSTORE PUSH5 0x6174636821 PUSH1 0xD8 SHL PUSH1 0x60 DUP3 ADD MSTORE PUSH1 0x80 ADD SWAP1 JUMP JUMPDEST PUSH1 0x40 MLOAD DUP1 SWAP2 SUB SWAP1 LOG1 POP PUSH1 0x0 JUMPDEST SWAP3 SWAP2 POP POP JUMP JUMPDEST CALLER PUSH1 0x0 SWAP1 DUP2 MSTORE PUSH1 0x20 DUP2 SWAP1 MSTORE PUSH1 0x40 SWAP1 KECCAK256 SLOAD PUSH1 0xFF AND ISZERO ISZERO PUSH1 0x1 EQ PUSH2 0x300 JUMPI PUSH1 0x40 MLOAD PUSH3 0x461BCD PUSH1 0xE5 SHL DUP2 MSTORE PUSH1 0x20 PUSH1 0x4 DUP3 ADD MSTORE PUSH1 0x1B PUSH1 0x24 DUP3 ADD MSTORE PUSH32 0x53656E646572206973206E6F7420616E20617574686F726974792E0000000000 PUSH1 0x44 DUP3 ADD MSTORE PUSH1 0x64 ADD PUSH2 0x100 JUMP JUMPDEST PUSH1 0x1 DUP1 SLOAD DUP3 SWAP2 SWAP1 PUSH1 0xFF NOT AND DUP2 DUP4 DUP2 DUP2 GT ISZERO PUSH2 0x31D JUMPI PUSH2 0x31D PUSH2 0x3BD JUMP JUMPDEST MUL OR SWAP1 SSTORE POP POP JUMP JUMPDEST DUP1 CALLDATALOAD PUSH1 0x4 DUP2 LT PUSH2 0x334 JUMPI PUSH1 0x0 DUP1 REVERT JUMPDEST SWAP2 SWAP1 POP JUMP JUMPDEST PUSH1 0x0 DUP1 PUSH1 0x40 DUP4 DUP6 SUB SLT ISZERO PUSH2 0x34C JUMPI PUSH1 0x0 DUP1 REVERT JUMPDEST PUSH2 0x355 DUP4 PUSH2 0x325 JUMP JUMPDEST SWAP2 POP PUSH2 0x363 PUSH1 0x20 DUP5 ADD PUSH2 0x325 JUMP JUMPDEST SWAP1 POP SWAP3 POP SWAP3 SWAP1 POP JUMP JUMPDEST PUSH1 0x0 PUSH1 0x20 DUP3 DUP5 SUB SLT ISZERO PUSH2 0x37E JUMPI PUSH1 0x0 DUP1 REVERT JUMPDEST DUP2 CALLDATALOAD PUSH1 0x2 DUP2 LT PUSH2 0x38D JUMPI PUSH1 0x0 DUP1 REVERT JUMPDEST SWAP4 SWAP3 POP POP POP JUMP JUMPDEST PUSH1 0x0 PUSH1 0x20 DUP3 DUP5 SUB SLT ISZERO PUSH2 0x3A6 JUMPI PUSH1 0x0 DUP1 REVERT JUMPDEST DUP2 CALLDATALOAD PUSH1 0x1 PUSH1 0x1 PUSH1 0xA0 SHL SUB DUP2 AND DUP2 EQ PUSH2 0x38D JUMPI PUSH1 0x0 DUP1 REVERT JUMPDEST PUSH4 0x4E487B71 PUSH1 0xE0 SHL PUSH1 0x0 MSTORE PUSH1 0x21 PUSH1 0x4 MSTORE PUSH1 0x24 PUSH1 0x0 REVERT INVALID LOG2 PUSH5 0x6970667358 0x22 SLT KECCAK256 ADDMOD PC 0xE8 ISZERO 0xE0 0x4E PUSH26 0x7D5EBB8FA3471B15E240F13791CE8A84605ADFCE379AA222B764 PUSH20 0x6F6C634300081A00330000000000000000000000 ",
  "sha1": "39b4476b1dde9d90da00abc85e575e1175503f31",
  "source": "// SPDX-License-Identifier: UNLICENSED\npragma solidity ^0.8.17;\nimport \"contracts/SubjectAttribute.sol\";\nimport \"contracts/ObjectAttribute.sol\";\ncontract Policy3{\n    enum PolicyState {Active, Deactivated}\n\n    mapping(address => bool) public authorities;\n    // VARIABLES\n    PolicyState policyState;\n     //EVENTS\n    event AccessDenied( string message);\n    event AccessApproved( string message);\n    // MODIFIERS\n    modifier authorities_only(){\n        require(authorities[msg.sender] == true, \"Sender is not an authority.\");\n        _;\n    }\n    modifier onlyWhenActive(){\n        require(policyState == PolicyState.Active, \"Policy3 is not Active\");\n        _;\n    }\n    // CONSTRUCTOR\n    constructor(){\n        policyState = PolicyState.Active;\n        authorities[msg.sender] = true;\n    }\n\n    function setPolicyState(PolicyState _policyState) public authorities_only(){\n        policyState = _policyState;\n    }\n\n    function checkPolicy(Device.Category sub_category , Device.Category obj_category ) public  onlyWhenActive() returns (bool){\n        if(sub_category == Device.Category.Monitoring){\n            emit AccessApproved(\"Subject is a Monitor !\"); \n            return true;\n        }\n        else if(sub_category == obj_category ){ \n            emit AccessApproved(\"Subject and Object Category match!\"); \n        return true;\n        }\n        else{\n            emit AccessDenied( \"Subject and Object Category mismatch!\");\n            return false; \n        }\n        }\n}",
  "sourcePath": "contracts/Policies/Policy3.sol",
  "type": "contract"
}