{
  "abi": [
    {
      "inputs": [],
      "stateMutability": "nonpayable",
      "type": "constructor"
    },
    {
      "anonymous": false,
      "inputs": [
        {
          "indexed": false,
          "internalType": "string",
          "name": "message",
          "type": "string"
        }
      ],
      "name": "AccessApproved",
      "type": "event"
    },
    {
      "anonymous": false,
      "inputs": [
        {
          "indexed": false,
          "internalType": "string",
          "name": "message",
          "type": "string"
        }
      ],
      "name": "AccessDenied",
      "type": "event"
    },
    {
      "inputs": [
        {
          "internalType": "address",
          "name": "",
          "type": "address"
        }
      ],
      "name": "authorities",
      "outputs": [
        {
          "internalType": "bool",
          "name": "",
          "type": "bool"
        }
      ],
      "stateMutability": "view",
      "type": "function"
    },
    {
      "inputs": [
        {
          "internalType": "enum Device.Category",
          "name": "sub_category",
          "type": "uint8"
        },
        {
          "internalType": "uint256",
          "name": "sub_trust",
          "type": "uint256"
        },
        {
          "internalType": "uint256",
          "name": "obj_trust",
          "type": "uint256"
        }
      ],
      "name": "checkPolicy",
      "outputs": [
        {
          "internalType": "bool",
          "name": "",
          "type": "bool"
        }
      ],
      "stateMutability": "nonpayable",
      "type": "function"
    },
    {
      "inputs": [
        {
          "internalType": "enum Policy4.PolicyState",
          "name": "_policyState",
          "type": "uint8"
        }
      ],
      "name": "setPolicyState",
      "outputs": [],
      "stateMutability": "nonpayable",
      "type": "function"
    }
  ],
  "bytecode": "6080604052348015600f57600080fd5b506001805460ff19908116825533600090815260208190526040902080549091169091179055610504806100446000396000f3fe608060405234801561001057600080fd5b50600436106100415760003560e01c80633bd31ccd1461004657806391223d691461005b578063f27d81b014610092575b600080fd5b6100596100543660046103d1565b6100a5565b005b61007e6100693660046103f2565b60006020819052908152604090205460ff1681565b604051901515815260200160405180910390f35b61007e6100a036600461041b565b610133565b3360009081526020819052604090205460ff16151560011461010e5760405162461bcd60e51b815260206004820152601b60248201527f53656e646572206973206e6f7420616e20617574686f726974792e000000000060448201526064015b60405180910390fd5b6001805482919060ff191681838181111561012b5761012b610454565b021790555050565b6000806001805460ff169081111561014d5761014d610454565b146101925760405162461bcd60e51b8152602060048201526015602482015274506f6c69637934206973206e6f742041637469766560581b6044820152606401610105565b60038460038111156101a6576101a6610454565b0361027f5760508310610210576000805160206104af8339815191526040516102009060208082526019908201527f5375626a656374277320747275737420617070726f7665642100000000000000604082015260600190565b60405180910390a15060016103ca565b7ffa521b2cccdb4e77c7c910f706a01f10d54ad95a00ae5eca7241972e5b3d24f360405161026f906020808252601d908201527f5375626a6563742773207472757374206e6f7420617070726f76656421000000604082015260600190565b60405180910390a15060006103ca565b600084600381111561029357610293610454565b0361033a57603283101580156102aa575060328210155b156102ca576000805160206104af8339815191526040516102009061046a565b7ffa521b2cccdb4e77c7c910f706a01f10d54ad95a00ae5eca7241972e5b3d24f360405161026f9060208082526028908201527f5375626a65637427732026204f626a6563742773207472757374206e6f7420616040820152677070726f7665642160c01b606082015260800190565b600284600381111561034e5761034e610454565b0361038257601e83101580156102aa5750601e82106102ca576000805160206104af8339815191526040516102009061046a565b600184600381111561039657610396610454565b036102ca57600a83101580156102aa5750600a82106102ca576000805160206104af8339815191526040516102009061046a565b9392505050565b6000602082840312156103e357600080fd5b8135600281106103ca57600080fd5b60006020828403121561040457600080fd5b81356001600160a01b03811681146103ca57600080fd5b60008060006060848603121561043057600080fd5b83356004811061043f57600080fd5b95602085013595506040909401359392505050565b634e487b7160e01b600052602160045260246000fd5b60208082526024908201527f5375626a65637427732026204f626a656374277320747275737420617070726f6040820152637665642160e01b60608201526080019056fe50e8d46dcb719ffeae31cdb40141820a1744374032e7a478588d9300a568fbaea2646970667358221220433a4a61221e98c129017d523a1a59c85819fd6bae987e53fcbe522088af225364736f6c634300081a0033",
  "bytecodeSha1": "74b53d86da00d926da342a8d771992f9407cd7e3",
  "compiler": {
    "evm_version": "istanbul",
    "optimizer": {
      "enabled": true,
      "runs": 200
    },
    "version": "0.8.26+commit.8a97fa7a"
  },
  "contractName": "Policy4",
  "language": "Solidity",
  "natspec": {
    "kind": "dev",
    "methods": {},
    "version": 1
  },
  "opcodes": "PUSH1 0x80 PUSH1 0x40 MSTORE CALLVALUE DUP1 ISZERO PUSH2 0x10 JUMPI PUSH1 0x0 DUP1 REVERT JUMPDEST POP PUSH1 0x4 CALLDATASIZE LT PUSH2 0x41 JUMPI PUSH1 0x0 CALLDATALOAD PUSH1 0xE0 SHR DUP1 PUSH4 0x3BD31CCD EQ PUSH2 0x46 JUMPI DUP1 PUSH4 0x91223D69 EQ PUSH2 0x5B JUMPI DUP1 PUSH4 0xF27D81B0 EQ PUSH2 0x92 JUMPI JUMPDEST PUSH1 0x0 DUP1 REVERT JUMPDEST PUSH2 0x59 PUSH2 0x54 CALLDATASIZE PUSH1 0x4 PUSH2 0x3D1 JUMP JUMPDEST PUSH2 0xA5 JUMP JUMPDEST STOP JUMPDEST PUSH2 0x7E PUSH2 0x69 CALLDATASIZE PUSH1 0x4 PUSH2 0x3F2 JUMP JUMPDEST PUSH1 0x0 PUSH1 0x20 DUP2 SWAP1 MSTORE SWAP1 DUP2 MSTORE PUSH1 0x40 SWAP1 KECCAK256 SLOAD PUSH1 0xFF AND DUP2 JUMP JUMPDEST PUSH1 0x40 MLOAD SWAP1 ISZERO ISZERO DUP2 MSTORE PUSH1 0x20 ADD PUSH1 0x40 MLOAD DUP1 SWAP2 SUB SWAP1 RETURN JUMPDEST PUSH2 0x7E PUSH2 0xA0 CALLDATASIZE PUSH1 0x4 PUSH2 0x41B JUMP JUMPDEST PUSH2 0x133 JUMP JUMPDEST CALLER PUSH1 0x0 SWAP1 DUP2 MSTORE PUSH1 0x20 DUP2 SWAP1 MSTORE PUSH1 0x40 SWAP1 KECCAK256 SLOAD PUSH1 0xFF AND ISZERO ISZERO PUSH1 0x1 EQ PUSH2 0x10E JUMPI PUSH1 0x40 MLOAD PUSH3 0x461BCD PUSH1 0xE5 SHL DUP2 MSTORE PUSH1 0x20 PUSH1 0x4 DUP3 ADD MSTORE PUSH1 0x1B PUSH1 0x24 DUP3 ADD MSTORE PUSH32 0x53656E646572206973206E6F7420616E20617574686F726974792E0000000000 PUSH1 0x44 DUP3 ADD MSTORE PUSH1 0x64 ADD JUMPDEST PUSH1 0x40 MLOAD DUP1 SWAP2 SUB SWAP1 REVERT JUMPDEST PUSH1 0x1 DUP1 SLOAD DUP3 SWAP2 SWAP1 PUSH1 0xFF NOT AND DUP2 DUP4 DUP2 DUP2 GT ISZERO PUSH2 0x12B JUMPI PUSH2 0x12B PUSH2 0x454 JUMP JUMPDEST MUL OR SWAP1 SSTORE POP POP JUMP JUMPDEST PUSH1 0x0 DUP1 PUSH1 0x1 DUP1 SLOAD PUSH1 0xFF AND SWAP1 DUP2 GT ISZERO PUSH2 0x14D JUMPI PUSH2 0x14D PUSH2 0x454 JUMP JUMPDEST EQ PUSH2 0x192 JUMPI PUSH1 0x40 MLOAD PUSH3 0x461BCD PUSH1 0xE5 SHL DUP2 MSTORE PUSH1 0x20 PUSH1 0x4 DUP3 ADD MSTORE PUSH1 0x15 PUSH1 0x24 DUP3 ADD MSTORE PUSH21 0x506F6C69637934206973206E6F7420416374697665 PUSH1 0x58 SHL PUSH1 0x44 DUP3 ADD MSTORE PUSH1 0x64 ADD PUSH2 0x105 JUMP JUMPDEST PUSH1 0x3 DUP5 PUSH1 0x3 DUP2 GT ISZERO PUSH2 0x1A6 JUMPI PUSH2 0x1A6 PUSH2 0x454 JUMP JUMPDEST SUB PUSH2 0x27F JUMPI PUSH1 0x50 DUP4 LT PUSH2 0x210 JUMPI PUSH1 0x0 DUP1 MLOAD PUSH1 0x20 PUSH2 0x4AF DUP4 CODECOPY DUP2 MLOAD SWAP2 MSTORE PUSH1 0x40 MLOAD PUSH2 0x200 SWAP1 PUSH1 0x20 DUP1 DUP3 MSTORE PUSH1 0x19 SWAP1 DUP3 ADD MSTORE PUSH32 0x5375626A656374277320747275737420617070726F7665642100000000000000 PUSH1 0x40 DUP3 ADD MSTORE PUSH1 0x60 ADD SWAP1 JUMP JUMPDEST PUSH1 0x40 MLOAD DUP1 SWAP2 SUB SWAP1 LOG1 POP PUSH1 0x1 PUSH2 0x3CA JUMP JUMPDEST PUSH32 0xFA521B2CCCDB4E77C7C910F706A01F10D54AD95A00AE5ECA7241972E5B3D24F3 PUSH1 0x40 MLOAD PUSH2 0x26F SWAP1 PUSH1 0x20 DUP1 DUP3 MSTORE PUSH1 0x1D SWAP1 DUP3 ADD MSTORE PUSH32 0x5375626A6563742773207472757374206E6F7420617070726F76656421000000 PUSH1 0x40 DUP3 ADD MSTORE PUSH1 0x60 ADD SWAP1 JUMP JUMPDEST PUSH1 0x40 MLOAD DUP1 SWAP2 SUB SWAP1 LOG1 POP PUSH1 0x0 PUSH2 0x3CA JUMP JUMPDEST PUSH1 0x0 DUP5 PUSH1 0x3 DUP2 GT ISZERO PUSH2 0x293 JUMPI PUSH2 0x293 PUSH2 0x454 JUMP JUMPDEST SUB PUSH2 0x33A JUMPI PUSH1 0x32 DUP4 LT ISZERO DUP1 ISZERO PUSH2 0x2AA JUMPI POP PUSH1 0x32 DUP3 LT ISZERO JUMPDEST ISZERO PUSH2 0x2CA JUMPI PUSH1 0x0 DUP1 MLOAD PUSH1 0x20 PUSH2 0x4AF DUP4 CODECOPY DUP2 MLOAD SWAP2 MSTORE PUSH1 0x40 MLOAD PUSH2 0x200 SWAP1 PUSH2 0x46A JUMP JUMPDEST PUSH32 0xFA521B2CCCDB4E77C7C910F706A01F10D54AD95A00AE5ECA7241972E5B3D24F3 PUSH1 0x40 MLOAD PUSH2 0x26F SWAP1 PUSH1 0x20 DUP1 DUP3 MSTORE PUSH1 0x28 SWAP1 DUP3 ADD MSTORE PUSH32 0x5375626A65637427732026204F626A6563742773207472757374206E6F742061 PUSH1 0x40 DUP3 ADD MSTORE PUSH8 0x7070726F76656421 PUSH1 0xC0 SHL PUSH1 0x60 DUP3 ADD MSTORE PUSH1 0x80 ADD SWAP1 JUMP JUMPDEST PUSH1 0x2 DUP5 PUSH1 0x3 DUP2 GT ISZERO PUSH2 0x34E JUMPI PUSH2 0x34E PUSH2 0x454 JUMP JUMPDEST SUB PUSH2 0x382 JUMPI PUSH1 0x1E DUP4 LT ISZERO DUP1 ISZERO PUSH2 0x2AA JUMPI POP PUSH1 0x1E DUP3 LT PUSH2 0x2CA JUMPI PUSH1 0x0 DUP1 MLOAD PUSH1 0x20 PUSH2 0x4AF DUP4 CODECOPY DUP2 MLOAD SWAP2 MSTORE PUSH1 0x40 MLOAD PUSH2 0x200 SWAP1 PUSH2 0x46A JUMP JUMPDEST PUSH1 0x1 DUP5 PUSH1 0x3 DUP2 GT ISZERO PUSH2 0x396 JUMPI PUSH2 0x396 PUSH2 0x454 JUMP JUMPDEST SUB PUSH2 0x2CA JUMPI PUSH1 0xA DUP4 LT ISZERO DUP1 ISZERO PUSH2 0x2AA JUMPI POP PUSH1 0xA DUP3 LT PUSH2 0x2CA JUMPI PUSH1 0x0 DUP1 MLOAD PUSH1 0x20 PUSH2 0x4AF DUP4 CODECOPY DUP2 MLOAD SWAP2 MSTORE PUSH1 0x40 MLOAD PUSH2 0x200 SWAP1 PUSH2 0x46A JUMP JUMPDEST SWAP4 SWAP3 POP POP POP JUMP JUMPDEST PUSH1 0x0 PUSH1 0x20 DUP3 DUP5 SUB SLT ISZERO PUSH2 0x3E3 JUMPI PUSH1 0x0 DUP1 REVERT JUMPDEST DUP2 CALLDATALOAD PUSH1 0x2 DUP2 LT PUSH2 0x3CA JUMPI PUSH1 0x0 DUP1 REVERT JUMPDEST PUSH1 0x0 PUSH1 0x20 DUP3 DUP5 SUB SLT ISZERO PUSH2 0x404 JUMPI PUSH1 0x0 DUP1 REVERT JUMPDEST DUP2 CALLDATALOAD PUSH1 0x1 PUSH1 0x1 PUSH1 0xA0 SHL SUB DUP2 AND DUP2 EQ PUSH2 0x3CA JUMPI PUSH1 0x0 DUP1 REVERT JUMPDEST PUSH1 0x0 DUP1 PUSH1 0x0 PUSH1 0x60 DUP5 DUP7 SUB SLT ISZERO PUSH2 0x430 JUMPI PUSH1 0x0 DUP1 REVERT JUMPDEST DUP4 CALLDATALOAD PUSH1 0x4 DUP2 LT PUSH2 0x43F JUMPI PUSH1 0x0 DUP1 REVERT JUMPDEST SWAP6 PUSH1 0x20 DUP6 ADD CALLDATALOAD SWAP6 POP PUSH1 0x40 SWAP1 SWAP5 ADD CALLDATALOAD SWAP4 SWAP3 POP POP POP JUMP JUMPDEST PUSH4 0x4E487B71 PUSH1 0xE0 SHL PUSH1 0x0 MSTORE PUSH1 0x21 PUSH1 0x4 MSTORE PUSH1 0x24 PUSH1 0x0 REVERT JUMPDEST PUSH1 0x20 DUP1 DUP3 MSTORE PUSH1 0x24 SWAP1 DUP3 ADD MSTORE PUSH32 0x5375626A65637427732026204F626A656374277320747275737420617070726F PUSH1 0x40 DUP3 ADD MSTORE PUSH4 0x76656421 PUSH1 0xE0 SHL PUSH1 0x60 DUP3 ADD MSTORE PUSH1 0x80 ADD SWAP1 JUMP INVALID POP 0xE8 0xD4 PUSH14 0xCB719FFEAE31CDB40141820A1744 CALLDATACOPY BLOCKHASH ORIGIN 0xE7 LOG4 PUSH25 0x588D9300A568FBAEA2646970667358221220433A4A61221E98 0xC1 0x29 ADD PUSH30 0x523A1A59C85819FD6BAE987E53FCBE522088AF225364736F6C634300081A STOP CALLER ",
  "sha1": "020a89db167c726a6ef06dc9c651f92935ed15fc",
  "source": "// SPDX-License-Identifier: UNLICENSED\npragma solidity ^0.8.17;\nimport \"contracts/SubjectAttribute.sol\";\nimport \"contracts/ObjectAttribute.sol\";\ncontract Policy4{\n    enum PolicyState {Active, Deactivated}\n\n    mapping(address => bool) public authorities;\n    // VARIABLES\n    PolicyState policyState;\n     //EVENTS\n    event AccessDenied( string message);\n    event AccessApproved( string message);\n    // MODIFIERS\n    modifier authorities_only(){\n        require(authorities[msg.sender] == true, \"Sender is not an authority.\");\n        _;\n    }\n    modifier onlyWhenActive(){\n        require(policyState == PolicyState.Active, \"Policy4 is not Active\");\n        _;\n    }\n    // CONSTRUCTOR\n    constructor(){\n        policyState = PolicyState.Active;\n        authorities[msg.sender] = true;\n    }\n\n    function setPolicyState(PolicyState _policyState) public authorities_only(){\n        policyState = _policyState;\n    }\n\nfunction checkPolicy(Device.Category sub_category, uint sub_trust, uint obj_trust) public onlyWhenActive() returns (bool) {\n    if (sub_category == Device.Category.Monitoring) { \n        if (sub_trust >= 80) {\n            emit AccessApproved(\"Subject's trust approved!\"); \n            return true;\n        } else {\n            emit AccessDenied(\"Subject's trust not approved!\"); \n            return false;\n        }\n    }\n    else if (sub_category == Device.Category.Security) {\n        if (sub_trust >= 50 && obj_trust >= 50) {\n            emit AccessApproved(\"Subject's & Object's trust approved!\"); \n            return true;\n        } else {\n            emit AccessDenied(\"Subject's & Object's trust not approved!\"); \n            return false;\n        }\n    }\n    else if (sub_category == Device.Category.Health) {\n        if (sub_trust >= 30 && obj_trust >= 30) {\n            emit AccessApproved(\"Subject's & Object's trust approved!\"); \n            return true;\n        } else {\n            emit AccessDenied(\"Subject's & Object's trust not approved!\"); \n            return false;\n        }\n    }\n    else if (sub_category == Device.Category.Entertainment) {\n        if (sub_trust >= 10 && obj_trust >= 10) {\n            emit AccessApproved(\"Subject's & Object's trust approved!\"); \n            return true;\n        } else {\n            emit AccessDenied(\"Subject's & Object's trust not approved!\"); \n            return false;\n        }\n    }\n    else{\n        emit AccessDenied(\"Subject's & Object's trust not approved!\"); \n        return false;\n    }\n}\n\n}",
  "sourcePath": "contracts/Policies/Policy4.sol",
  "type": "contract"
}