{
  "abi": [
    {
      "inputs": [],
      "stateMutability": "nonpayable",
      "type": "constructor"
    },
    {
      "anonymous": false,
      "inputs": [
        {
          "indexed": false,
          "internalType": "string",
          "name": "message",
          "type": "string"
        }
      ],
      "name": "AccessApproved",
      "type": "event"
    },
    {
      "anonymous": false,
      "inputs": [
        {
          "indexed": false,
          "internalType": "string",
          "name": "message",
          "type": "string"
        }
      ],
      "name": "AccessDenied",
      "type": "event"
    },
    {
      "inputs": [
        {
          "internalType": "address",
          "name": "",
          "type": "address"
        }
      ],
      "name": "authorities",
      "outputs": [
        {
          "internalType": "bool",
          "name": "",
          "type": "bool"
        }
      ],
      "stateMutability": "view",
      "type": "function"
    },
    {
      "inputs": [
        {
          "internalType": "enum Device.Zone",
          "name": "sub_zone",
          "type": "uint8"
        },
        {
          "internalType": "enum Device.Zone",
          "name": "obj_zone",
          "type": "uint8"
        }
      ],
      "name": "checkPolicy",
      "outputs": [
        {
          "internalType": "bool",
          "name": "",
          "type": "bool"
        }
      ],
      "stateMutability": "nonpayable",
      "type": "function"
    },
    {
      "inputs": [
        {
          "internalType": "enum Policy5.PolicyState",
          "name": "_policyState",
          "type": "uint8"
        }
      ],
      "name": "setPolicyState",
      "outputs": [],
      "stateMutability": "nonpayable",
      "type": "function"
    }
  ],
  "bytecode": "6080604052348015600f57600080fd5b506001805460ff1990811682553360009081526020819052604090208054909116909117905561039a806100446000396000f3fe608060405234801561001057600080fd5b50600436106100415760003560e01c80632269e210146100465780633bd31ccd1461006d57806391223d6914610082575b600080fd5b6100596100543660046102ca565b6100a5565b604051901515815260200160405180910390f35b61008061007b3660046102fd565b61022d565b005b610059610090366004610325565b60006020819052908152604090205460ff1681565b6000806001805460ff16908111156100bf576100bf61034e565b146101095760405162461bcd60e51b8152602060048201526015602482015274506f6c69637935206973206e6f742041637469766560581b60448201526064015b60405180910390fd5b81600281111561011b5761011b61034e565b83600281111561012d5761012d61034e565b036101ab577f50e8d46dcb719ffeae31cdb40141820a1744374032e7a478588d9300a568fbae60405161019b9060208082526021908201527f5375626a65637420616e64204f626a656374205a6f6e6520617070726f7665646040820152602160f81b606082015260800190565b60405180910390a1506001610227565b7ffa521b2cccdb4e77c7c910f706a01f10d54ad95a00ae5eca7241972e5b3d24f360405161021b9060208082526028908201527f5375626a65637420616e64204f626a656374206e6f7420696e207468652073616040820152676d65205a6f6e652160c01b606082015260800190565b60405180910390a15060005b92915050565b3360009081526020819052604090205460ff1615156001146102915760405162461bcd60e51b815260206004820152601b60248201527f53656e646572206973206e6f7420616e20617574686f726974792e00000000006044820152606401610100565b6001805482919060ff19168183818111156102ae576102ae61034e565b021790555050565b8035600381106102c557600080fd5b919050565b600080604083850312156102dd57600080fd5b6102e6836102b6565b91506102f4602084016102b6565b90509250929050565b60006020828403121561030f57600080fd5b81356002811061031e57600080fd5b9392505050565b60006020828403121561033757600080fd5b81356001600160a01b038116811461031e57600080fd5b634e487b7160e01b600052602160045260246000fdfea2646970667358221220c3ff194454699bcdda8d647c52aaa7726cd4497e8b0ddb650e78a27975352ec564736f6c634300081a0033",
  "bytecodeSha1": "2871703d48d782ee0dbb00a14dcb435717e57ba7",
  "compiler": {
    "evm_version": "istanbul",
    "optimizer": {
      "enabled": true,
      "runs": 200
    },
    "version": "0.8.26+commit.8a97fa7a"
  },
  "contractName": "Policy5",
  "language": "Solidity",
  "natspec": {
    "kind": "dev",
    "methods": {},
    "version": 1
  },
  "opcodes": "PUSH1 0x80 PUSH1 0x40 MSTORE CALLVALUE DUP1 ISZERO PUSH2 0x10 JUMPI PUSH1 0x0 DUP1 REVERT JUMPDEST POP PUSH1 0x4 CALLDATASIZE LT PUSH2 0x41 JUMPI PUSH1 0x0 CALLDATALOAD PUSH1 0xE0 SHR DUP1 PUSH4 0x2269E210 EQ PUSH2 0x46 JUMPI DUP1 PUSH4 0x3BD31CCD EQ PUSH2 0x6D JUMPI DUP1 PUSH4 0x91223D69 EQ PUSH2 0x82 JUMPI JUMPDEST PUSH1 0x0 DUP1 REVERT JUMPDEST PUSH2 0x59 PUSH2 0x54 CALLDATASIZE PUSH1 0x4 PUSH2 0x2CA JUMP JUMPDEST PUSH2 0xA5 JUMP JUMPDEST PUSH1 0x40 MLOAD SWAP1 ISZERO ISZERO DUP2 MSTORE PUSH1 0x20 ADD PUSH1 0x40 MLOAD DUP1 SWAP2 SUB SWAP1 RETURN JUMPDEST PUSH2 0x80 PUSH2 0x7B CALLDATASIZE PUSH1 0x4 PUSH2 0x2FD JUMP JUMPDEST PUSH2 0x22D JUMP JUMPDEST STOP JUMPDEST PUSH2 0x59 PUSH2 0x90 CALLDATASIZE PUSH1 0x4 PUSH2 0x325 JUMP JUMPDEST PUSH1 0x0 PUSH1 0x20 DUP2 SWAP1 MSTORE SWAP1 DUP2 MSTORE PUSH1 0x40 SWAP1 KECCAK256 SLOAD PUSH1 0xFF AND DUP2 JUMP JUMPDEST PUSH1 0x0 DUP1 PUSH1 0x1 DUP1 SLOAD PUSH1 0xFF AND SWAP1 DUP2 GT ISZERO PUSH2 0xBF JUMPI PUSH2 0xBF PUSH2 0x34E JUMP JUMPDEST EQ PUSH2 0x109 JUMPI PUSH1 0x40 MLOAD PUSH3 0x461BCD PUSH1 0xE5 SHL DUP2 MSTORE PUSH1 0x20 PUSH1 0x4 DUP3 ADD MSTORE PUSH1 0x15 PUSH1 0x24 DUP3 ADD MSTORE PUSH21 0x506F6C69637935206973206E6F7420416374697665 PUSH1 0x58 SHL PUSH1 0x44 DUP3 ADD MSTORE PUSH1 0x64 ADD JUMPDEST PUSH1 0x40 MLOAD DUP1 SWAP2 SUB SWAP1 REVERT JUMPDEST DUP2 PUSH1 0x2 DUP2 GT ISZERO PUSH2 0x11B JUMPI PUSH2 0x11B PUSH2 0x34E JUMP JUMPDEST DUP4 PUSH1 0x2 DUP2 GT ISZERO PUSH2 0x12D JUMPI PUSH2 0x12D PUSH2 0x34E JUMP JUMPDEST SUB PUSH2 0x1AB JUMPI PUSH32 0x50E8D46DCB719FFEAE31CDB40141820A1744374032E7A478588D9300A568FBAE PUSH1 0x40 MLOAD PUSH2 0x19B SWAP1 PUSH1 0x20 DUP1 DUP3 MSTORE PUSH1 0x21 SWAP1 DUP3 ADD MSTORE PUSH32 0x5375626A65637420616E64204F626A656374205A6F6E6520617070726F766564 PUSH1 0x40 DUP3 ADD MSTORE PUSH1 0x21 PUSH1 0xF8 SHL PUSH1 0x60 DUP3 ADD MSTORE PUSH1 0x80 ADD SWAP1 JUMP JUMPDEST PUSH1 0x40 MLOAD DUP1 SWAP2 SUB SWAP1 LOG1 POP PUSH1 0x1 PUSH2 0x227 JUMP JUMPDEST PUSH32 0xFA521B2CCCDB4E77C7C910F706A01F10D54AD95A00AE5ECA7241972E5B3D24F3 PUSH1 0x40 MLOAD PUSH2 0x21B SWAP1 PUSH1 0x20 DUP1 DUP3 MSTORE PUSH1 0x28 SWAP1 DUP3 ADD MSTORE PUSH32 0x5375626A65637420616E64204F626A656374206E6F7420696E20746865207361 PUSH1 0x40 DUP3 ADD MSTORE PUSH8 0x6D65205A6F6E6521 PUSH1 0xC0 SHL PUSH1 0x60 DUP3 ADD MSTORE PUSH1 0x80 ADD SWAP1 JUMP JUMPDEST PUSH1 0x40 MLOAD DUP1 SWAP2 SUB SWAP1 LOG1 POP PUSH1 0x0 JUMPDEST SWAP3 SWAP2 POP POP JUMP JUMPDEST CALLER PUSH1 0x0 SWAP1 DUP2 MSTORE PUSH1 0x20 DUP2 SWAP1 MSTORE PUSH1 0x40 SWAP1 KECCAK256 SLOAD PUSH1 0xFF AND ISZERO ISZERO PUSH1 0x1 EQ PUSH2 0x291 JUMPI PUSH1 0x40 MLOAD PUSH3 0x461BCD PUSH1 0xE5 SHL DUP2 MSTORE PUSH1 0x20 PUSH1 0x4 DUP3 ADD MSTORE PUSH1 0x1B PUSH1 0x24 DUP3 ADD MSTORE PUSH32 0x53656E646572206973206E6F7420616E20617574686F726974792E0000000000 PUSH1 0x44 DUP3 ADD MSTORE PUSH1 0x64 ADD PUSH2 0x100 JUMP JUMPDEST PUSH1 0x1 DUP1 SLOAD DUP3 SWAP2 SWAP1 PUSH1 0xFF NOT AND DUP2 DUP4 DUP2 DUP2 GT ISZERO PUSH2 0x2AE JUMPI PUSH2 0x2AE PUSH2 0x34E JUMP JUMPDEST MUL OR SWAP1 SSTORE POP POP JUMP JUMPDEST DUP1 CALLDATALOAD PUSH1 0x3 DUP2 LT PUSH2 0x2C5 JUMPI PUSH1 0x0 DUP1 REVERT JUMPDEST SWAP2 SWAP1 POP JUMP JUMPDEST PUSH1 0x0 DUP1 PUSH1 0x40 DUP4 DUP6 SUB SLT ISZERO PUSH2 0x2DD JUMPI PUSH1 0x0 DUP1 REVERT JUMPDEST PUSH2 0x2E6 DUP4 PUSH2 0x2B6 JUMP JUMPDEST SWAP2 POP PUSH2 0x2F4 PUSH1 0x20 DUP5 ADD PUSH2 0x2B6 JUMP JUMPDEST SWAP1 POP SWAP3 POP SWAP3 SWAP1 POP JUMP JUMPDEST PUSH1 0x0 PUSH1 0x20 DUP3 DUP5 SUB SLT ISZERO PUSH2 0x30F JUMPI PUSH1 0x0 DUP1 REVERT JUMPDEST DUP2 CALLDATALOAD PUSH1 0x2 DUP2 LT PUSH2 0x31E JUMPI PUSH1 0x0 DUP1 REVERT JUMPDEST SWAP4 SWAP3 POP POP POP JUMP JUMPDEST PUSH1 0x0 PUSH1 0x20 DUP3 DUP5 SUB SLT ISZERO PUSH2 0x337 JUMPI PUSH1 0x0 DUP1 REVERT JUMPDEST DUP2 CALLDATALOAD PUSH1 0x1 PUSH1 0x1 PUSH1 0xA0 SHL SUB DUP2 AND DUP2 EQ PUSH2 0x31E JUMPI PUSH1 0x0 DUP1 REVERT JUMPDEST PUSH4 0x4E487B71 PUSH1 0xE0 SHL PUSH1 0x0 MSTORE PUSH1 0x21 PUSH1 0x4 MSTORE PUSH1 0x24 PUSH1 0x0 REVERT INVALID LOG2 PUSH5 0x6970667358 0x22 SLT KECCAK256 0xC3 SELFDESTRUCT NOT DIFFICULTY SLOAD PUSH10 0x9BCDDA8D647C52AAA772 PUSH13 0xD4497E8B0DDB650E78A2797535 0x2E 0xC5 PUSH5 0x736F6C6343 STOP ADDMOD BYTE STOP CALLER ",
  "sha1": "01967a2223698e0e73d5178f91de7135985ff51f",
  "source": "// SPDX-License-Identifier: UNLICENSED\npragma solidity ^0.8.17;\nimport \"contracts/SubjectAttribute.sol\";\nimport \"contracts/ObjectAttribute.sol\";\ncontract Policy5{\n    enum PolicyState {Active, Deactivated}\n\n    mapping(address => bool) public authorities;\n    // VARIABLES\n    PolicyState policyState;\n     //EVENTS\n    event AccessDenied( string message);\n    event AccessApproved( string message);\n    // MODIFIERS\n    modifier authorities_only(){\n        require(authorities[msg.sender] == true, \"Sender is not an authority.\");\n        _;\n    }\n    modifier onlyWhenActive(){\n        require(policyState == PolicyState.Active, \"Policy5 is not Active\");\n        _;\n    }\n    // CONSTRUCTOR\n    constructor(){\n        policyState = PolicyState.Active;\n        authorities[msg.sender] = true;\n    }\n\n    function setPolicyState(PolicyState _policyState) public authorities_only(){\n        policyState = _policyState;\n    }\n\n    function checkPolicy(Device.Zone sub_zone , Device.Zone obj_zone ) public  onlyWhenActive() returns (bool){\n        if(sub_zone == obj_zone ){ \n            emit AccessApproved(\"Subject and Object Zone approved!\"); \n            return true;\n        }\n        else{\n            emit AccessDenied( \"Subject and Object not in the same Zone!\");\n            return false; \n        }\n        }\n}",
  "sourcePath": "contracts/Policies/Policy5.sol",
  "type": "contract"
}