{
  "abi": [
    {
      "inputs": [
        {
          "internalType": "uint256",
          "name": "_restricted_interval",
          "type": "uint256"
        }
      ],
      "stateMutability": "nonpayable",
      "type": "constructor"
    },
    {
      "anonymous": false,
      "inputs": [
        {
          "indexed": false,
          "internalType": "string",
          "name": "message",
          "type": "string"
        }
      ],
      "name": "AccessApproved",
      "type": "event"
    },
    {
      "anonymous": false,
      "inputs": [
        {
          "indexed": false,
          "internalType": "string",
          "name": "message",
          "type": "string"
        }
      ],
      "name": "AccessDenied",
      "type": "event"
    },
    {
      "inputs": [
        {
          "internalType": "address",
          "name": "",
          "type": "address"
        }
      ],
      "name": "authorities",
      "outputs": [
        {
          "internalType": "bool",
          "name": "",
          "type": "bool"
        }
      ],
      "stateMutability": "view",
      "type": "function"
    },
    {
      "inputs": [
        {
          "internalType": "uint256",
          "name": "lastUpdated",
          "type": "uint256"
        }
      ],
      "name": "checkPolicy",
      "outputs": [
        {
          "internalType": "bool",
          "name": "",
          "type": "bool"
        }
      ],
      "stateMutability": "nonpayable",
      "type": "function"
    },
    {
      "inputs": [
        {
          "internalType": "enum Policy2.PolicyState",
          "name": "_policyState",
          "type": "uint8"
        }
      ],
      "name": "setPolicyState",
      "outputs": [],
      "stateMutability": "nonpayable",
      "type": "function"
    }
  ],
  "bytecode": "6080604052348015600f57600080fd5b506040516103f13803806103f1833981016040819052602c916059565b6001805460ff19908116825560039290925533600090815260208190526040902080549092161790556071565b600060208284031215606a57600080fd5b5051919050565b610371806100806000396000f3fe608060405234801561001057600080fd5b50600436106100415760003560e01c80633bd31ccd1461004657806391223d691461005b578063aca6bef714610092575b600080fd5b610059610054366004610294565b6100a5565b005b61007e6100693660046102bc565b60006020819052908152604090205460ff1681565b604051901515815260200160405180910390f35b61007e6100a03660046102e5565b610133565b3360009081526020819052604090205460ff16151560011461010e5760405162461bcd60e51b815260206004820152601b60248201527f53656e646572206973206e6f7420616e20617574686f726974792e000000000060448201526064015b60405180910390fd5b6001805482919060ff191681838181111561012b5761012b6102fe565b021790555050565b6000806001805460ff169081111561014d5761014d6102fe565b146101925760405162461bcd60e51b8152602060048201526015602482015274506f6c69637932206973206e6f742041637469766560581b6044820152606401610105565b426002819055600354906101a7908490610314565b10610225577f50e8d46dcb719ffeae31cdb40141820a1744374032e7a478588d9300a568fbae6040516102159060208082526021908201527f54696d6520496e74657276616c207265737472696374696f6e207061737365646040820152602160f81b606082015260800190565b60405180910390a1506001919050565b7ffa521b2cccdb4e77c7c910f706a01f10d54ad95a00ae5eca7241972e5b3d24f3604051610284906020808252601b908201527f54696d6520496e74657276616c207265737472696374696f6e21210000000000604082015260600190565b60405180910390a1506000919050565b6000602082840312156102a657600080fd5b8135600281106102b557600080fd5b9392505050565b6000602082840312156102ce57600080fd5b81356001600160a01b03811681146102b557600080fd5b6000602082840312156102f757600080fd5b5035919050565b634e487b7160e01b600052602160045260246000fd5b8181038181111561033557634e487b7160e01b600052601160045260246000fd5b9291505056fea26469706673582212209874c9174a27caa0fb75e6809c7c7bf783d7ba04e7fb06654e26a2751a5f2c0464736f6c634300081a0033",
  "bytecodeSha1": "ea73766a86f36610543d213f21b0a281b06d690f",
  "compiler": {
    "evm_version": "istanbul",
    "optimizer": {
      "enabled": true,
      "runs": 200
    },
    "version": "0.8.26+commit.8a97fa7a"
  },
  "contractName": "Policy2",
  "language": "Solidity",
  "natspec": {
    "kind": "dev",
    "methods": {},
    "version": 1
  },
  "opcodes": "PUSH1 0x80 PUSH1 0x40 MSTORE CALLVALUE DUP1 ISZERO PUSH2 0x10 JUMPI PUSH1 0x0 DUP1 REVERT JUMPDEST POP PUSH1 0x4 CALLDATASIZE LT PUSH2 0x41 JUMPI PUSH1 0x0 CALLDATALOAD PUSH1 0xE0 SHR DUP1 PUSH4 0x3BD31CCD EQ PUSH2 0x46 JUMPI DUP1 PUSH4 0x91223D69 EQ PUSH2 0x5B JUMPI DUP1 PUSH4 0xACA6BEF7 EQ PUSH2 0x92 JUMPI JUMPDEST PUSH1 0x0 DUP1 REVERT JUMPDEST PUSH2 0x59 PUSH2 0x54 CALLDATASIZE PUSH1 0x4 PUSH2 0x294 JUMP JUMPDEST PUSH2 0xA5 JUMP JUMPDEST STOP JUMPDEST PUSH2 0x7E PUSH2 0x69 CALLDATASIZE PUSH1 0x4 PUSH2 0x2BC JUMP JUMPDEST PUSH1 0x0 PUSH1 0x20 DUP2 SWAP1 MSTORE SWAP1 DUP2 MSTORE PUSH1 0x40 SWAP1 KECCAK256 SLOAD PUSH1 0xFF AND DUP2 JUMP JUMPDEST PUSH1 0x40 MLOAD SWAP1 ISZERO ISZERO DUP2 MSTORE PUSH1 0x20 ADD PUSH1 0x40 MLOAD DUP1 SWAP2 SUB SWAP1 RETURN JUMPDEST PUSH2 0x7E PUSH2 0xA0 CALLDATASIZE PUSH1 0x4 PUSH2 0x2E5 JUMP JUMPDEST PUSH2 0x133 JUMP JUMPDEST CALLER PUSH1 0x0 SWAP1 DUP2 MSTORE PUSH1 0x20 DUP2 SWAP1 MSTORE PUSH1 0x40 SWAP1 KECCAK256 SLOAD PUSH1 0xFF AND ISZERO ISZERO PUSH1 0x1 EQ PUSH2 0x10E JUMPI PUSH1 0x40 MLOAD PUSH3 0x461BCD PUSH1 0xE5 SHL DUP2 MSTORE PUSH1 0x20 PUSH1 0x4 DUP3 ADD MSTORE PUSH1 0x1B PUSH1 0x24 DUP3 ADD MSTORE PUSH32 0x53656E646572206973206E6F7420616E20617574686F726974792E0000000000 PUSH1 0x44 DUP3 ADD MSTORE PUSH1 0x64 ADD JUMPDEST PUSH1 0x40 MLOAD DUP1 SWAP2 SUB SWAP1 REVERT JUMPDEST PUSH1 0x1 DUP1 SLOAD DUP3 SWAP2 SWAP1 PUSH1 0xFF NOT AND DUP2 DUP4 DUP2 DUP2 GT ISZERO PUSH2 0x12B JUMPI PUSH2 0x12B PUSH2 0x2FE JUMP JUMPDEST MUL OR SWAP1 SSTORE POP POP JUMP JUMPDEST PUSH1 0x0 DUP1 PUSH1 0x1 DUP1 SLOAD PUSH1 0xFF AND SWAP1 DUP2 GT ISZERO PUSH2 0x14D JUMPI PUSH2 0x14D PUSH2 0x2FE JUMP JUMPDEST EQ PUSH2 0x192 JUMPI PUSH1 0x40 MLOAD PUSH3 0x461BCD PUSH1 0xE5 SHL DUP2 MSTORE PUSH1 0x20 PUSH1 0x4 DUP3 ADD MSTORE PUSH1 0x15 PUSH1 0x24 DUP3 ADD MSTORE PUSH21 0x506F6C69637932206973206E6F7420416374697665 PUSH1 0x58 SHL PUSH1 0x44 DUP3 ADD MSTORE PUSH1 0x64 ADD PUSH2 0x105 JUMP JUMPDEST TIMESTAMP PUSH1 0x2 DUP2 SWAP1 SSTORE PUSH1 0x3 SLOAD SWAP1 PUSH2 0x1A7 SWAP1 DUP5 SWAP1 PUSH2 0x314 JUMP JUMPDEST LT PUSH2 0x225 JUMPI PUSH32 0x50E8D46DCB719FFEAE31CDB40141820A1744374032E7A478588D9300A568FBAE PUSH1 0x40 MLOAD PUSH2 0x215 SWAP1 PUSH1 0x20 DUP1 DUP3 MSTORE PUSH1 0x21 SWAP1 DUP3 ADD MSTORE PUSH32 0x54696D6520496E74657276616C207265737472696374696F6E20706173736564 PUSH1 0x40 DUP3 ADD MSTORE PUSH1 0x21 PUSH1 0xF8 SHL PUSH1 0x60 DUP3 ADD MSTORE PUSH1 0x80 ADD SWAP1 JUMP JUMPDEST PUSH1 0x40 MLOAD DUP1 SWAP2 SUB SWAP1 LOG1 POP PUSH1 0x1 SWAP2 SWAP1 POP JUMP JUMPDEST PUSH32 0xFA521B2CCCDB4E77C7C910F706A01F10D54AD95A00AE5ECA7241972E5B3D24F3 PUSH1 0x40 MLOAD PUSH2 0x284 SWAP1 PUSH1 0x20 DUP1 DUP3 MSTORE PUSH1 0x1B SWAP1 DUP3 ADD MSTORE PUSH32 0x54696D6520496E74657276616C207265737472696374696F6E21210000000000 PUSH1 0x40 DUP3 ADD MSTORE PUSH1 0x60 ADD SWAP1 JUMP JUMPDEST PUSH1 0x40 MLOAD DUP1 SWAP2 SUB SWAP1 LOG1 POP PUSH1 0x0 SWAP2 SWAP1 POP JUMP JUMPDEST PUSH1 0x0 PUSH1 0x20 DUP3 DUP5 SUB SLT ISZERO PUSH2 0x2A6 JUMPI PUSH1 0x0 DUP1 REVERT JUMPDEST DUP2 CALLDATALOAD PUSH1 0x2 DUP2 LT PUSH2 0x2B5 JUMPI PUSH1 0x0 DUP1 REVERT JUMPDEST SWAP4 SWAP3 POP POP POP JUMP JUMPDEST PUSH1 0x0 PUSH1 0x20 DUP3 DUP5 SUB SLT ISZERO PUSH2 0x2CE JUMPI PUSH1 0x0 DUP1 REVERT JUMPDEST DUP2 CALLDATALOAD PUSH1 0x1 PUSH1 0x1 PUSH1 0xA0 SHL SUB DUP2 AND DUP2 EQ PUSH2 0x2B5 JUMPI PUSH1 0x0 DUP1 REVERT JUMPDEST PUSH1 0x0 PUSH1 0x20 DUP3 DUP5 SUB SLT ISZERO PUSH2 0x2F7 JUMPI PUSH1 0x0 DUP1 REVERT JUMPDEST POP CALLDATALOAD SWAP2 SWAP1 POP JUMP JUMPDEST PUSH4 0x4E487B71 PUSH1 0xE0 SHL PUSH1 0x0 MSTORE PUSH1 0x21 PUSH1 0x4 MSTORE PUSH1 0x24 PUSH1 0x0 REVERT JUMPDEST DUP2 DUP2 SUB DUP2 DUP2 GT ISZERO PUSH2 0x335 JUMPI PUSH4 0x4E487B71 PUSH1 0xE0 SHL PUSH1 0x0 MSTORE PUSH1 0x11 PUSH1 0x4 MSTORE PUSH1 0x24 PUSH1 0x0 REVERT JUMPDEST SWAP3 SWAP2 POP POP JUMP INVALID LOG2 PUSH5 0x6970667358 0x22 SLT KECCAK256 SWAP9 PUSH21 0xC9174A27CAA0FB75E6809C7C7BF783D7BA04E7FB06 PUSH6 0x4E26A2751A5F 0x2C DIV PUSH5 0x736F6C6343 STOP ADDMOD BYTE STOP CALLER ",
  "sha1": "40878ce422929f1e952db9b8e3fcc232f01b0c4c",
  "source": "// SPDX-License-Identifier: UNLICENSED\npragma solidity ^0.8.17;\ncontract Policy2  {\n    enum PolicyState {Active, Deactivated}\n\n    mapping(address => bool) public authorities;\n\n    // VARIABLES\n    PolicyState policyState;\n    uint presentTime;\n    uint restricted_interval;\n    // EVENTS\n    event AccessDenied( string message);\n    event AccessApproved( string message);\n    // MODIFIERS\n    modifier authorities_only(){\n        require(authorities[msg.sender] == true, \"Sender is not an authority.\");\n        _;\n    }\n    modifier onlyWhenActive(){\n        require(policyState == PolicyState.Active, \"Policy2 is not Active\");\n        _;\n    }\n    //CONSTRUCTOR\n    constructor( uint _restricted_interval){\n        policyState = PolicyState.Active;\n        restricted_interval = _restricted_interval;\n        authorities[msg.sender] = true;\n\n    }\n\n    function setPolicyState(PolicyState _policyState) public authorities_only(){\n        policyState = _policyState;\n    }\n\n    function checkPolicy(uint256  lastUpdated)public onlyWhenActive() returns (bool){\n        presentTime = block.timestamp;\n        if( presentTime - lastUpdated >=restricted_interval ){\n            emit AccessApproved( \"Time Interval restriction passed!\");\n            return true;\n        }\n        else{\n            emit AccessDenied( \"Time Interval restriction!!\");\n            return false;\n        }\n    }\n}",
  "sourcePath": "contracts/Policies/Policy2.sol",
  "type": "contract"
}